:10000000BFC70000E3C70000E1C70000DFC7000072
:10001000DDC70000DBC70000D9C70000D7C700005C
:10002000D5C70000D3C700000C942367CFC70000DA
:10003000CDC70000CBC70000C9C70000C7C700007C
:10004000C5C70000C3C70000C1C70000BFC700008C
:10005000BDC70000BBC70000B9C70000B7C700009C
:10006000B5C70000B3C70000B1C70000AFC70000AC
:10007000ADC70000ABC70000A9C700000C94631215
:10008000A5C70000A3C700000C94080A0C94D5571C
:100090009DC700009BC7000099C7000097C70000DC
:1000A00095C7000093C7000091C700008FC70000EC
:1000B0008DC700008BC7000089C700000C941C0A84
:1000C00085C700000C94260A0C94300A0C94F05951
:1000D0007DC700007BC7000079C7000077C700001C
:1000E00075C7000073C7000071C700006FC700002C
:1000F0006DC700006BC7000069C7000067C700003C
:1001000065C7000063C7000061C700005FC700004B
:100110000C94440A0C94B25759C7000057C700000A
:1001200055C7000053C7000051C700004FC700006B
:100130004DC700000C94205A49C700000C948A5502
:100140000C94C5090C94120A0C94FC573FC700008C
:100150003DC700000C943A0A0C94185937C70000A8
:1001600035C7000033C7000031C700002FC70000AB
:100170002DC700002BC7000029C7000027C70000BB
:1001800025C7000023C7000021C700001FC70000CB
:100190001DC700001BC7000019C7000017C70000DB
:1001A00015C7000013C7000011C700000FC70000EB
:1001B0000DC700000BC7000009C7000007C70000FB
:1001C00005C7000003C7000001C70000FFC600000C
:1001D000FDC60000FBC60000F9C60000F7C600001F
:1001E000F5C60000F3C60000F1C60000EFC600002F
:1001F000EDC600000C949E10E9C600004342430087
:100200004543420041455300444553002531357371
:1002100000456E63697068657265643A41455332A2
:10022000353600456E63697068657265643A4145AC
:100230005331393200456E63697068657265643A9E
:1002400041455331323800456E63697068657265A7
:10025000643A334B3344455300506C61696E7465A6
:1002600078743A4D414300506C61696E74657874DE
:1002700000253135730050726F644461746500422B
:10028000617463684E6F00537756657273005377DD
:1002900050726F746F547970650053775375627440
:1002A00079706500537754797065004857566572C8
:1002B0007300485750726F746F54797065004877B7
:1002C0005375627479706500487754797065004D94
:1002D000616E754944004154514100415453002519
:1002E000323473202534307300004E4F4E450000E9
:1002F00000000000000000000000000000000000FE
:100300000000015549445F52414E444F4D000000EA
:100310000000000000000000000000025549445F9A
:100320004C4546545F494E4352454D454E5400009E
:1003300000000000035549445F52494748545F4953
:100340004E4352454D454E540000000000045549AF
:10035000445F4C4546545F44454352454D454E54D9
:10036000000000000000055549445F5249474854C9
:100370005F44454352454D454E5400000000000681
:100380004359434C455F53455454494E475300002D
:1003900000000000000000000753544F52455F4D1D
:1003A000454D0000000000000000000000000000BB
:1003B0000008524543414C4C5F4D454D0000000044
:1003C0000000000000000000000009544F47474CA7
:1003D000455F4649454C4400000000000000000015
:1003E0000000000A53544F52455F4C4F4700000035
:1003F0000000000000000000000000000B434C4F14
:100400004E45000000000000000000000000000059
:1004100000000000000C434C4F4E455F4D46550018
:10042000000000000000000000000000000000804C
:1004300040C020A060E0109050D030B070F008882C
:1004400048C828A868E8189858D838B878F80484B4
:1004500044C424A464E4149454D434B474F40C8CCC
:100460004CCC2CAC6CEC1C9C5CDC3CBC7CFC028260
:1004700042C222A262E2129252D232B272F20A8ACC
:100480004ACA2AAA6AEA1A9A5ADA3ABA7AFA068654
:1004900046C626A666E6169656D636B676F60E8E6C
:1004A0004ECE2EAE6EEE1E9E5EDE3EBE7EFE018106
:1004B00041C121A161E1119151D131B171F109899C
:1004C00049C929A969E9199959D939B979F9058524
:1004D00045C525A565E5159555D535B575F50D8D3C
:1004E0004DCD2DAD6DED1D9D5DDD3DBD7DFD0383D0
:1004F00043C323A363E3139353D333B373F30B8B3C
:100500004BCB2BAB6BEB1B9B5BDB3BBB7BFB0787C3
:1005100047C727A767E7179757D737B777F70F8FDB
:100520004FCF2FAF6FEF1F9F5FDF3FBF7FFFBD5AE2
:10053000C85AC75AC65AC65AC55AC45AC35ABE5AC6
:10054000C15AC25A00000001002256A756C656CE14
:1005500026D2266B216F216C214C23EE26F026003B
:10056000100700002256A756C656D626DA266B215B
:100570006F216C214C23EE26F02600080700002294
:1005800056A756C656DE26E2266B216F216C214CFB
:1005900023EE26F02600100700002256A756C65666
:1005A000E626EA266B216F216C214C23EE26F026ED
:1005B0000010070000004E4F4E45000000000000F4
:1005C0000000000000000000000000000000014DDD
:1005D000465F444553464952450000000000000074
:1005E00000000000000000024D465F4445534649AC
:1005F00052455F324B4556310000000000000000BC
:10060000034D465F444553464952455F344B45567A
:10061000310000000000000000044D465F444553D7
:10062000464952455F344B455632000000000000F9
:100630000000004E4F4E450000000000000000008A
:10064000000000000000000000000001504F57456E
:1006500052454400000000000000000000000000BF
:1006600000000000025445524D494E414C5F434F3B
:100670004E4E000000000000000000000003544542
:10068000524D494E414C5F525854580000000000F2
:100690000000000000000453455454494E475F4396
:1006A00048414E47450000000000000000000005E2
:1006B0004D454D4F52595F53544F52454400000031
:1006C0000000000000000000064D454D4F52595FEC
:1006D0004348414E47454400000000000000000030
:1006E0000008434F4445435F52580000000000009B
:1006F0000000000000000000000009434F44454393
:100700005F545800000000000000000000000000DE
:10071000000000074649454C445F44455445435456
:100720004544000000000000000000000A4C4F4754
:100730004D454D5F46554C4C000000000000000048
:1007400000000000001E034300680061006D0065AA
:10075000006C0065006F006E002D004D0069006E9A
:1007600000690000002A034B0061007300700065FF
:100770000072002000260020004F00730077006107
:10078000006C006400200047006D0062004800001B
:10079000000403090409023E00020100C0320904FA
:1007A00000000102020100052400100104240206D9
:1007B0000524060001070582030800FF0904010063
:1007C000020A000000070504021000050705830265
:1007D0001000051201100102000008D016B2040139
:1007E0000001020001004F4646000000000000002A
:1007F0000000000000000000000000000000014DAB
:10080000454D4F525900000000000000000000005C
:1008100000000000000000024C49564500000000A6
:1008200000000000000000000000000000000000C8
:10083000004E4F4E45000000000000000000000088
:10084000000000000000000000014F4E000000000A
:100850000000000000000000000000000000000098
:100860000000024F464600000000000000000000AB
:100870000000000000000000000000033100000044
:100880000000000000000000000000000000000068
:100890000000000004320000000000000000000022
:1008A0000000000000000000000000000005330010
:1008B0000000000000000000000000000000000038
:1008C00000000000000006340000000000000000EE
:1008D0000000000000000000000000000000000711
:1008E00035000000000000000000000000000000D3
:1008F00000000000000000000D0A000D0A000D0AB3
:1009000000643130303A4F4B00000000000000001E
:1009100000000000000000000000000000000000D7
:100920000000653130313A4F4B205749544820542C
:1009300045585400000000000000000000000000C6
:100940000000006E3131303A57414954494E47203A
:10095000464F5220584D4F44454D000000000000C6
:1009600000000000C83230303A554E4B4E4F574EC3
:1009700020434F4D4D414E44000000000000000058
:100980000000000000C93230313A494E56414C490E
:100990004420434F4D4D414E44205553414745005F
:1009A000000000000000CA3230323A494E56414C35
:1009B000494420504152414D4554455200000000E9
:1009C00000000000000000783132303A46414C53BC
:1009D00045000000000000000000000000000000D2
:1009E0000000000000000000793132313A545255C5
:1009F00045000000000000000000000000000000B2
:100A0000000000000000000000CB3230333A5449AF
:100A10004D454F555400000000000000000000004C
:100A20000000000000000000000056455253494FEE
:100A30004E00000000000000000000000000000068
:100A40002969434F4E46494700000000000000005E
:100A500000000000000050694A6955494400000048
:100A60000000000000000000000000000000B86965
:100A70007A69524541444F4E4C5900000000000035
:100A8000000000000000126A066A55504C4F4144B5
:100A9000000000000000000000003E6A00000000AE
:100AA0000000444F574E4C4F4144000000000000EE
:100AB0000000436A00000000000052455345540006
:100AC00000000000000000000000486A0000000074
:100AD000000055504752414445000000000000000E
:100AE0000000526A0000000000004D454D53495A75
:100AF00045000000000000000000000000000000B1
:100B00005C6A55494453495A450000000000000002
:100B10000000000000000000736A52425554544F18
:100B20004E00000000000000000000000000906A7D
:100B3000886A52425554544F4E5F4C4F4E47000006
:100B4000000000000000B06AA86A4C425554544F9F
:100B50004E00000000000000000000000000D06A0D
:100B6000C86A4C425554544F4E5F4C4F4E4700009C
:100B7000000000000000F06AE86A4C454447524516
:100B8000454E000000000000000000000000106B57
:100B9000086B4C4544524544000000000000000032
:100BA000000000000000306B286B50494E00000030
:100BB00000000000000000000000000000004D6B7D
:100BC000486B4C4F474D4F4445000000000000006B
:100BD000000000000000676B616B4C4F474D454DB6
:100BE0000000000000000000000000000000000005
:100BF0007E6B4C4F47444F574E4C4F4144000000D2
:100C00000000A26B0000000000004C4F4753544FFF
:100C100052450000000000000000A76B000000002B
:100C200000004C4F47434C4541520000000000007B
:100C30000000AB6B00000000000053455454494EC7
:100C40004700000000000000000000000000B46B3E
:100C5000AF6B434C45415200000000000000000013
:100C60000000BC6B00000000000053544F524500D0
:100C700000000000000000000000C06B0000000049
:100C80000000524543414C4C0000000000000000B1
:100C90000000C46B00000000000043484152474977
:100CA0004E470000000000000000000000000000AF
:100CB000C86B48454C5000000000000000000000D8
:100CC0000000CE6B000000000000525353490000AA
:100CD0000000000000000000000000000000000014
:100CE0000A6C5359535449434B0000000000000064
:100CF0000000000000000000476C54494D454F556E
:100D00005400000000000000000000000000816CA2
:100D1000626C5448524553484F4C44000000000058
:100D2000000000000000EB6CD26C4155544F434171
:100D30004C494252415445000000796D00000000CA
:100D400000004649454C440000000000000000003F
:100D50000000000000003E6D696D44465F5345543D
:100D60004844520000000000000000000000312E46
:100D7000000044465F434F4D4D5F4D4F44450000DA
:100D8000000000000000692F000044465F454E430C
:100D90004D4F444500000000000000000000DC2F23
:100DA000000044465F4B45595343525542000000F2
:100DB00000006230000000000000000000000000A1
:100DC0000000000000000000000000000000000023
:100DD000000025632C25630025356400416E7920D1
:100DE000696E74656765722066726F6D203020745D
:100DF0006F2025752E205265666572656E636520CD
:100E0000766F6C746167652077696C6C2062652011
:100E100028564343202A205448524553484F4C44B7
:100E2000202F203430393529206D562E00257500AD
:100E30002535640030203D206E6F2074696D656F2C
:100E400075740D0A312D363030203D203130302080
:100E50006D73202D203630303030206D7320746952
:100E60006D656F7574002575206D730025342E3403
:100E70005800253575206D56002575202866726F3F
:100E80006D207768696368202575206E6F6E2D76FA
:100E90006F6C6174696C65290025750025750025E6
:100EA000632C25630052414E444F4D004E4F205558
:100EB00049442E004368616D656C656F6E4D696EC7
:100EC000692052657647202553207573696E672027
:100ED0004C55464120255320636F6D70696C6564E5
:100EE0002077697468204156522D4743432025538B
:100EF0002E204261736564206F6E20746865206FD8
:100F000070656E2D736F75726365204E4643207455
:100F10006F6F6C204368616D656C656F6E4D696EB7
:100F2000692E2068747470733A2F2F67697468751E
:100F3000622E636F6D2F656D7365632F4368616DFE
:100F4000656C656F6E4D696E6920636F6D6D697458
:100F500020255300323032362D30322D31330031DE
:100F6000353131313500392E352E30003766633258
:100F7000363535006364696E6F70737578585B0041
:100F800011241FBECFEFCDBFDFE3DEBF00E00CBFFB
:100F900018BE19BE1ABE1BBE13E2A0E0B0E2EEE519
:100FA000FFEE00E00BBF02C007900D92A835B1071D
:100FB000D9F71BBE2DE2A8E5B3E201C01D92AB3804
:100FC000B207E1F70E946E530C94AD770C941A6748
:100FD000F190E190D190C190B190A19091908190C9
:100FE0000B941B942B943B944B945B946B947B9449
:100FF0008B949B94AB94BB94CB94DB94EB94FB9439
:101000000895F801D894E4DF5894E2DFD894E0CF53
:10101000F801D894DDDF5894DBDFF801D894D8CFFD
:10102000F801D894D5CFF8015894D2CFF801709632
:101030005894CEDFF8013896D894CADFF801589456
:10104000C7CFF8015894C4DFD894C2DFF801589490
:10105000BFCFFF90EF90DF90CF90BF90AF909F9069
:101060008F907F906F905F904F903F902F901124C2
:1010700008952F923F924F925F926F927F928F923C
:101080009F92AF92BF92CF92DF92EF92FF920F9317
:101090001F93FC017190619051904190319021908B
:1010A000119001908A01BCDFFB0171926192519213
:1010B000419231922192119201921F910F91C9CFC9
:1010C0002F923F924F925F926F927F928F929F9258
:1010D000AF92BF92CF92DF92EF92FF920F931F9346
:1010E000FB0171906190519041903190219011904D
:1010F00001908A0198DFFC017192619251924192B4
:1011000031922192119201921F910F91A2CF2F92B1
:101110003F924F925F926F927F928F929F92AF9287
:10112000BF92CF92DF92EF92FF920F931F93FB013A
:101130007190619051904190319021901190019067
:101140008A017FDFFC01719261925192419231924A
:101150002192119201921F910F917BCF2F923F927A
:101160004F925F926F927F928F929F92AF92BF92B7
:10117000CF92DF92EF92FF920F931F93FB0171903A
:1011800061905190419031902190119001908A018D
:101190004DDFFC0171926192519241923192219204
:1011A000119201921F910F9154CF2F923F924F9223
:1011B0005F926F927F928F929F92AF92BF92CF92E7
:1011C000DF92EF92FF920F931F93FC017190619059
:1011D0005190419031902190119001908A0118DF37
:1011E000FB0171926192519241923192219211923E
:1011F00001921F910F912DCF2F923F924F925F92AC
:101200006F927F928F929F92AF92BF92CF92DF9216
:10121000EF92FF920F931F93FC0171906190519098
:10122000419031902190119001908A01EADEFB01FA
:101230007192619251924192319221921192019256
:101240001F910F9106CF2F923F924F925F926F9214
:101250007F928F929F92AF92BF92CF92DF92EF9246
:10126000FF92CF93DF93EB01DA01BF01F901719097
:101270006190519041903190219011900190F9909E
:10128000E990D990C990B990A990999089907F24BC
:101290006E245D244C243B242A2419240824FB01B9
:1012A00009957D926D925D924D923D922D921D9287
:1012B0000D92019721F7D9017D926D925D924D9229
:1012C0003D922D921D920D92DF91CF91C2CE2F9221
:1012D0003F924F925F926F927F928F929F92AF92C6
:1012E000BF92CF92DF92EF92FF92CF93DF93EB0109
:1012F000DA01BF01788069805A804B803C802D8064
:101300001E800F80FB010995F901F190E190D190C9
:10131000C190B190A190919081907F246E245D2422
:101320004C243B242A2419240824F990E990D990CC
:10133000C990B990A99099908990F901F192E192A0
:10134000D192C192B192A192919281927D926D922D
:101350005D924D923D922D921D920D92019751F604
:10136000DF91CF9176CEF8E0E8E06DCFF8E0E8E0ED
:10137000AECFF8E0E1E267CFF8E0E1E2A8CFF8E035
:10138000E1E061CFF8E0E6E1A2CF0F9200240F93F5
:101390002F933F934F935F930FB70F93EF93FF9369
:1013A000EAB1FBB15191442735B124B1569578F497
:1013B00000928C080092000806E10A95F1F700C03F
:1013C00001E00093000803E000938C0804C00AE1E8
:1013D0000A95F1F700002150304019F40E94A057FF
:1013E0000CC04F5F477011F4519102C000C000C0A3
:1013F0000AE00A95F1F700C0D9CFFF91EF910F9164
:101400000FBF5F914F913F912F910F910F901895C2
:10141000EF93FF93E0912729F09128290995FF91F7
:10142000EF911895EF93FF93E0912929F0912A29E4
:101430000995FF91EF911895EF93FF93E091232980
:10144000F09124290995FF91EF911895EF93FF935F
:10145000E0912129F09122290995FF91EF911895AA
:10146000EF93FF93E0911F29F09120290995FF91B7
:10147000EF911895EF93FF93E0911D29F0911E29AC
:101480000995FF91EF911895EF93FF93E09125292E
:10149000F09126290995FF91EF9118953BB78BBFE5
:1014A000FB01879196913BBF08953BB78BBFCB0162
:1014B00042E20D94F00F3BB70B0143E20D94F00FA5
:1014C0003BB78BBFCB0145E20D94F00F3BB746E233
:1014D00008C02091CF0127FDFCCF22272093CA010D
:1014E00008954093CA0128ED31E0209334003093F1
:1014F000CB016091C4017091C5018091C60199270B
:101500000895FC014093CA0184910895CF93DF931D
:10151000EC01FC0170968BE0DF011D928A95E9F7E2
:1015200082E08C83898783E08E8761E0CE0101961B
:10153000D0D4882361F061E0CE010696CAD4882316
:1015400031F061E0CE010B96DF91CF91C2C480E013
:10155000DF91CF910895CF93DF93FC01EB01809150
:101560005B238430C1F484899589A689B789892B46
:101570008A2B8B2B81F08181C9D3FE010190002041
:10158000E9F73197BF016C1B7D0B50E040E0CE01C5
:10159000DF91CF91A7C282E0DF91CF9108950F93A1
:1015A0001F93CF93DF93FC01EB018A0180915B23B2
:1015B000843099F484899589A689B789892B8A2BE7
:1015C0008B2B59F08181A2D350E040E0B801CE01CD
:1015D000DF91CF911F910F9185C282E0DF91CF9172
:1015E0001F910F910895CF93FC01C62F80915B232B
:1015F000843011F584899589A689B789892B8A2B2E
:101600008B2BD1F0818182D38091652390916623C9
:10161000FC01EF5BFF4F2081805C9F4FFC018081CC
:10162000281728F48C2F62D380E0CF91089526D319
:10163000D3D48823B9F3F9CF82E0F7CFCF93DF93E8
:10164000FC0180915B238430B9F584899589A68952
:10165000B789892B8A2B8B2B79F1818157D32091E4
:1016600069238091652390916623FC0127FF0BC0BD
:10167000EF5BFF4F208130E0232B69F4C0E08C2F1B
:10168000DF91CF910895E05CFF4F2081319630814A
:10169000231B330BF1CFFC01EF5BFF4FD081805C4C
:1016A0009F4FFC01C081EAD2DC1740F395D4C82FCC
:1016B0008111E5CFE3D2E3CFC2E0E1CFCF93DF9357
:1016C000EC0180915B23843089F48C899D89AE89FB
:1016D000BF89892B8A2B8B2B49F0898117D33ED365
:1016E000882321F0CE01DF91CF91A8CFDF91CF9158
:1016F0000895CF93DF93FC0180915B23843031F018
:10170000CFEFDFEFCE01DF91CF91089584899589E6
:10171000A689B789892B8A2B8B2B91F38681F6D2E8
:1017200029D3882369F320916923809165239091BF
:101730006623FC01EF5BFF4F27FF1AC0808190E01A
:10174000CFEFDFEF892B19F0C1D2C82FD0E0209165
:1017500069238091652390916623FC01EF5BFF4F25
:1017600027FF0EC0208130E0232B61F6A0D2CACF24
:10177000805C9F4FDC018C919081891B990BE0CF9D
:10178000805C9F4FDC012C918081281B330BECCFB8
:101790000895CF92DF92EF92FF920F931F93CF9312
:1017A000DF93EC01FFD2882399F028818091602398
:1017B000909161232817190659F480915D23823294
:1017C00009F47CC070F4803209F443C08132E9F03E
:1017D000DF91CF911F910F91FF90EF90DF90CF900D
:1017E00008958332A9F780915C23813289F7F2D280
:1017F000DFD360915E23CE01DF91CF911F910F91D6
:10180000FF90EF90DF90CF90C3CF80915C23813A1F
:10181000F9F6E0D2A3D28823E9F3CC88DD88EE88FC
:10182000FF888C2D63D28D2D61D28E2D5FD28F2DAE
:101830005DD2888D5BD2898D59D28A8D57D21ED2C6
:10184000DF91CF911F910F91FF90EF90DF90CF909C
:10185000AFC380915C23813209F0BACFBBD28AD268
:10186000882339F133D2F82E31D2182F2FD2082FF6
:101870002DD2402F50E070E060E0BA015527442798
:10188000782B4F29512B4C8B5D8B6E8B7F8B1ED20F
:10189000888F1CD2898F1AD28A8F09D289D3CE0120
:1018A000DF91CF911F910F91FF90EF90DF90CF903C
:1018B0006FCF80915B238111D2CF8ACF80915C233F
:1018C000813209F085CF86D273D380915E239091C7
:1018D0005F23888B998BCE01DF91CF911F910F9160
:1018E000FF90EF90DF90CF9053CFEF92FF920F9346
:1018F0001F93CF93DF930F920F92CDB7DEB70CE516
:1019000013E278010F5F1F4FE1D1F7018083F3E20B
:1019100004361F07B1F70E942B6E44D2882379F05A
:1019200080915C2390915D23953009F483C0A8F4E5
:10193000292F2D7F213009F450C0992371F132D223
:10194000882311F047D272D20F900F90DF91CF9180
:101950001F910F91FF90EF900895983009F47CC08B
:10196000993009F480C0963051F78058823038F7AA
:10197000AE014F5F5F4F6091602380915E23909135
:101980005F230E94545C8C01892BC9F223D2B801D9
:1019900089819A81FAD08BD1D2CF803889F0823870
:1019A00071F6809160238F70B1D1E0916723F0913F
:1019B0006823118112FB112710F980E0A7D106C01E
:1019C00010915923809158238111126003D2812FE5
:1019D0008DD180E08BD152D171C0882309F460C0D1
:1019E000823009F0ACCF80915E23811164C01091E8
:1019F00060231F7009F4A3CF812F88D180915D23CC
:101A0000833011F413D257C0E0916723F09168231B
:101A100081818B7F818384E8189FF0011124E55533
:101A2000FC4D1082E0916723F091682380818E7FC6
:101A3000808341C0811183CF10915E231F77CAD16B
:101A4000B7D28CD18823E9F31093C30482E011113B
:101A500083E080935B2373CF803809F070CFBAD1D5
:101A600080915A23B7CF81116ACF80915E23823053
:101A700008F065CFAFD180915E2380935A2398D22E
:101A800080915A23882311F084E005C08091C3041B
:101A90008111FACF81E080935B230E94276E4FCFA4
:101AA00080915E23813009F04ACF81E0933009F0C4
:101AB00080E08093582380E029D18CD179D23FCF28
:101AC0000895CF9380915B23882351F0C0916923BF
:101AD00080E01CD167D1811108DF8C2FCF9116C116
:101AE000CF910895AF92BF92CF92DF92FF920F9362
:101AF0001F93CF93DF936C01EB018A016DD2F82E17
:101B000081112AC00115110539F0F80180819181F8
:101B1000C81BD90BC80ED91EB12CA12C2097E1F0FF
:101B20008091652390916623FC01EF5BFF4F20813C
:101B3000805C9F4FFC0180812817F0F09FD0C1DFAF
:101B400001151105A1F0F80180819181A80EB91E3F
:101B5000A082B18285E0F82E8F2DDF91CF911F9169
:101B60000F91FF90DF90CF90BF90AF90089534D247
:101B70008823A1F2F82EF0CFF60181916F01B6D043
:101B80002197FFEFAF1ABF0AC9CFDF92EF92FF9202
:101B90000F931F93CF93DF937C01EB018091692317
:101BA0008068B4D080916223909163238C179D0745
:101BB00070F0209709F462D0D12C209751F4D11005
:101BC00008C0D8D0882309F44CC080E007C0EC01DD
:101BD000F3CF80915B23811109C082E0DF91CF9127
:101BE0001F910F91FF90EF90DF900895853011F4D1
:101BF00083E0F4CFD7D0882311F081E0EFCFBAD0C3
:101C00008111DFCFABD08823C1F22091692380916D
:101C1000652390916623FC01EF5BFF4F27FF0FC008
:101C2000008110E0209719F00830110580F0DD24C4
:101C3000D3940830110509F0D12C20D0BECF805CA0
:101C40009F4FDC010C918081081B110BEBCFF7013A
:101C500084914CD0FFEFEF1AFF0A21970F5F1F4FBF
:101C6000E1CF80915B23882309F4B7CF853009F455
:101C7000BFCF98D0882309F4A4CFBFCFE0916523CC
:101C8000F0916623EF5BFF4F8081E0916723F09135
:101C9000682390E08283938380818D798083E091B3
:101CA0006523F0916623EF5BFF4F10820895E0916A
:101CB0006723F091682380818D798083E09165238B
:101CC000F0916623EF5BFF4F1082089580916523AA
:101CD00090916623DC01AF5BBF4FEC9121E02E0FAA
:101CE0002C93E80FF92FF11D808108952091652331
:101CF00030916623D901AF5BBF4FEC9191E09E0F0D
:101D00009C93E20FF32FF11D80830895282F2F70ED
:101D1000809369234091C6045091C70494E8299F99
:101D2000B001112490E1299F9001112487FF0FC079
:101D300064557C4D6093652370936623285F3F4F05
:101D4000240F351F20936723309368230895665925
:101D50007C4D6093652370936623F2CF8091692355
:101D60008068D4DFE0916723F091682380818695B5
:101D700081700895809169238F77C8DFE091672390
:101D8000F0916823808185FF0BC082819381E0916F
:101D90006523F0916623E05CFF4F808381E0089526
:101DA00080E00895809169238F77B0DFE091672309
:101DB000F0916823808184FF0BC082819381E09140
:101DC0006523F0916623E05CFF4F808381E00895F6
:101DD00080E00895809169238F7798DFE0916723F1
:101DE000F091682380818D788083E0916723F09162
:101DF0006823808181608083E0916523F091662370
:101E0000EF5BFF4F10828091692380687FDFE09154
:101E10006723F0916823808181608083E09165234E
:101E2000F0916623EF5BFF4F10820895E0916723E6
:101E3000F0916823818184608183E0916723F09130
:101E400068238181807C803459F480916923805893
:101E50005DDFE0916723F091682381818460818355
:101E600008951F93CF93DF93C82F162FD42F4EDFE3
:101E7000E0916723F09168231182E0916723F0914C
:101E800068238C2F86FB880F880B80F982708083F3
:101E9000E0916723F09168231183E0916723F0912B
:101EA0006823128213828091652390916623848334
:101EB0009583CC0FCC0BCD23FC01E05CFF4FC0839E
:101EC0008F5B9F4FFC01108281E0DF91CF911F91CA
:101ED0000895CF92DF92EF92FF920F931F93CF93CB
:101EE000DF93D62E8C01C12CCD1002C081E01AC028
:101EF000F801D081D11104C0C3940B5F1F4FF4CF00
:101F0000E180F280848128E0823008F028E188E0D6
:101F100090E0C0E08E159F0570F08D2F8F7085309A
:101F200070F080E0DF91CF911F910F91FF90EF90C3
:101F3000DF90CF900895CF5F880F991FEBCFF1E42A
:101F4000EF16F10470F7F8018381C22BCF7E88234E
:101F500021F0813079F0C06806C0C0644E2D6C2F2E
:101F600080E88D0F7EDF4E2D6C2F8D2F7ADF811153
:101F7000C3CFD7CFC06CF7CF90E080E0A091C6046C
:101F8000B091C7049C0144E0220F331F4A95E1F74A
:101F9000A20FB31F19961C92E091C604F091C704DA
:101FA000E20FF31F118201968530910539F70895EC
:101FB00080915C2387FF0CC0DDDE811178CE80919B
:101FC0005B238111F9CF089580915B238823D9F396
:101FD000C5DE8823C9F352CE0F931F93CF93E091B0
:101FE000C604F091C704E05BFF4F00811181C4E695
:101FF0008091692387FF11C0B1DE811109C08091F2
:102000005B2381110CC082E004C0C22F8C01F0CF91
:1020100080E0CF911F910F910895ACDEEECF853017
:10202000C1F0E0916723F0916823818182FD13C0A4
:10203000E091C604F091C704E05BFF4F808191817D
:102040000817190719F32FEF2C0FC111DECF84E009
:10205000E0CF83E0DECF81E0DCCF63D069D0E0EC7D
:10206000F4E081818E7F818380818F7780831092DD
:1020700064230895CF93DF93E0E4F0E01482848139
:10208000836084834ED054D0C0ECD4E088818F77B5
:10209000888388818068888310925B2310925A23FA
:1020A000109258231092592388818064888348E0D5
:1020B00068E480E8D6DE48E068E480E0D2DE888527
:1020C00080648887898181608983DF91CF910895B9
:1020D000CF93DF933FB7F894C0ECD1E022E02A879A
:1020E000EAE1F0E0E491A0ECB4E0DA96EC93DA9760
:1020F000EBE1F0E0E491DB96EC93DB971A868FEF4F
:1021000095E28E7F16968D939C93179784E18C931E
:1021100018962C933FBF81E080936423DF91CF9189
:10212000A9CFE0ECF4E08085837080871186089564
:10213000E0ECF4E08FEF8287848708951F920F927E
:102140000FB60F92112408B60F9218BE09B60F925F
:1021500019BE0BB60F921BBE2F933F934F935F9305
:102160006F937F938F939F93AF93BF93EF93FF935F
:102170008091CA0487FF08C08091C80487FF04C00B
:1021800080E88093CA049CDC8091CA0486FF07C063
:1021900080E48093CA0410925B230E94166E8091A3
:1021A000CA0485FF0CC080E28093CA0480915A2340
:1021B0008823A1F184E080935B230E94056E8091C7
:1021C000CA0484FF14C080E18093CA0482E0809333
:1021D0005B2310925A231092C304CEDE48E068E4D9
:1021E00080E83FDE48E068E480E03BDE69DCFF91A8
:1021F000EF91BF91AF919F918F917F916F915F917F
:102200004F913F912F910F900BBE0F9009BE0F90F1
:1022100008BE0F900FBE0F901F9018958091C304B9
:10222000811102C081E0C7CF83E0C5CF0F931F9318
:10223000CF93DF9300D000D0CDB7DEB780912002DE
:102240008068809320028091230280FFFCCF81E090
:1022500080932302A0911002B0911102AE5BB109EC
:10226000B7FF02C0B0E0A0E020E038EB4BE050E068
:102270000E940C706B837C838D839E838C0122274C
:102280003327E091B32BF091B42B978186814D8158
:102290005E81443F5140D8F4973019F490E1909317
:1022A000622B873019F480E18093612B80915C2B45
:1022B000882329F0E0914E2BF0914F2B199526960B
:1022C000CDBFDEBFDF91CF911F910F910895973061
:1022D00019F491E19093622B873019F481E1809396
:1022E000612B809151268F5F6FE00E94EC6F90937D
:1022F00051269111E4CF19830A83E091692BF09163
:102300006A2B42E0BE016F5F7F4F88E41995D7CFFB
:102310000895E0ECF0E080818068808308959091DA
:10232000C100917881E009F080E00895E0ECF0E0F0
:102330008181816081830895E0ECF0E08181806893
:1023400081830895862B8093C0000895862B806139
:102350008093C00008959C01205F3F4FFC010196CF
:1023600040814093C30082179307C1F708959C01F1
:10237000205F3F4FFC0101964091C30040838217CC
:102380009307C1F708959C01205F3F4FFC01019620
:1023900040814093C20082179307C1F708959C01C2
:1023A000205F3F4FFC0101964091C200408382179D
:1023B0009307C1F70895EF92FF920F931F93CF9366
:1023C000DF938C01EB017A0180E28093C00080935F
:1023D000C00000001092C00060E0211164E080E0C5
:1023E000B1DF81E88093C1001092C400C701B3DF60
:1023F00080E11092C2008150E1F7C801C4DF89DF9B
:102400008EDF8111FDCFCE01CADFDF91CF911F9109
:102410000F91FF90EF908ACFEF92FF920F931F934F
:10242000CF93DF93CDB7DEB7A097CDBFDEBF8C01D2
:102430007B0180E28093C00000001092C000809376
:10244000C00080E1E8E3F0E2DE01119601900D9218
:102450008A95E1F720E0BE016F5F7F4FCB01ABDFD4
:102460008091C10087FD2DC0CE01419680DF5EDFE7
:1024700080E28093C00000001092C00060E080E025
:1024800065DF81E88093C1001092C400CE014196BF
:1024900062DF80E11092C2008150E1F7C70173DF73
:1024A00038DF3DDF8111FDCFC80179DF3FDFA09626
:1024B000CDBFDEBFDF91CF911F910F91FF90EF90C5
:1024C00008953ADFD5CF1F920F920FB60F921124C5
:1024D00008B60F9218BE09B60F9219BE0BB60F922E
:1024E0001BBE2F933F934F935F936F937F938F9375
:1024F0009F93AF93BF93EF93FF93E0916326F09187
:102500006426309709F01995FF91EF91BF91AF9133
:102510009F918F917F916F915F914F913F912F91FB
:102520000F900BBE0F9009BE0F9008BE0F900FBE0C
:102530000F901F901895FC01892B69F081E0808332
:102540001182128284E0848380915226813011F4BA
:102550008383089513820895CF93DF93FC01892B21
:10256000B9F080E28093C000A3E5B6E280E1ED011E
:1025700019928A95E9F784819281892B9081892B20
:102580008093C00088E891E180936326909364264D
:10259000DF91CF9108952F923F924F925F926F9269
:1025A0007F928F929F92AF92BF92CF92DF92EF92E3
:1025B000FF920F931F93CF93DF93CDB7DEB7609752
:1025C000CDBFDEBF4B017A0169019C012F7033271B
:1025D000232B09F0B9C0C114D10441F4E3E5F6E2BC
:1025E00020E1DF011D922A95E9F76F010F961C018A
:1025F00084E0369427948A95E1F75401B0E1AB0E5C
:10260000B11C90E080E02601E0E14E0E511C8215E5
:102610009305F9F48091C10087FF99C08DDE809108
:10262000C100807890E06096CDBFDEBFDF91CF9192
:102630001F910F91FF90EF90DF90CF90BF90AF90E0
:102640009F908F907F906F905F904F903F902F90D2
:1026500008953C01FFEF6F1A7F0A20915226213026
:1026600009F04FC0892B91F580E1F401DE0111964C
:1026700001900D928A95E1F7C601AE014F5F5F4F61
:1026800048165906C9F421E0A801B701CE01019608
:1026900092DE2614370441F480E1FE013196D60122
:1026A00001900D928A95E1F7F0E1EF0EF11C20E127
:1026B000A20EB11CC301ABCFDA012D91FC01319107
:1026C000CF012327FA012083AD01DACF80E1F701A2
:1026D0007097DE01119601900D928A95E1F7C50180
:1026E0004097AE014F5F5F4F8A159B0561F2DA019B
:1026F0002D91FC013191CF012327FA012083AD01F7
:10270000F3CF80E1F5017097DE01119601900D92F3
:102710008A95E1F7C601AE014F5F5F4F84159505BD
:1027200049F421E0A801B701CE01019644DE80E121
:10273000F701B5CFDA012D91FC013191CF012327AB
:10274000FA012083AD01EACF8EEB90E06CCF90E0F0
:1027500080E069CF2F923F924F925F926F927F926B
:102760008F929F92AF92BF92CF92DF92EF92FF92A1
:102770000F931F93CF93DF93CDB7DEB7AA97CDBF4B
:10278000DEBF6B017A0139012801232B41F4E3E517
:10279000F6E220E1DF011D922A95E9F73F011C01D5
:1027A000BFE02B0E311C24E0369427942A95E1F7E4
:1027B000FC01EF70FF27EFA3F8A7912C812C930168
:1027C000205F3F4F2DA33EA35E0131E1A30EB11C5C
:1027D0008F70A82FB0E0A9A7BAA7FE013196E9A390
:1027E000FAA382149304F9F48091C10087FFEAC030
:1027F000A3DD8091C100807890E0AA96CDBFDEBFB6
:10280000DF91CF911F910F91FF90EF90DF90CF90CC
:10281000BF90AF909F908F907F906F905F904F9000
:102820003F902F90089594012F5F3F4F2BA33CA31F
:10283000860180915226813009F080C0221633062D
:1028400021F48FA198A5892BD1F5A201B701C5016B
:10285000E3DD80E1F501D60101900D928A95E1F763
:10286000C3018928C1F0C70140978E159F05C1F0AB
:10287000F8012191DC013D91CD012327D8012C9352
:102880008F01F3CFF8012191DC013D91CD01232788
:10289000D8012C938F01EDA1FEA1E817F90791F75C
:1028A000EBA1FCA12E163F0609F445C0F0E1EF0EA6
:1028B000F11C20E1C20ED11C8BA09CA092CFE9A1FB
:1028C000FAA120E111922A95E9F749A55AA5B70185
:1028D000CE0101960E94EF70A201BE016F5F7F4F93
:1028E000C5019ADD80E1F501D60101900D928A952E
:1028F000E1F7C30131E023163104C1F0C70140976D
:102900008E159F05C1F0F8012191DC013D91CD01AB
:102910002327D8012C938F01F3CFF8012191DC01FB
:102920003D91CD012327D8012C938F01EDA1FEA16C
:10293000E817F90791F780E1F50115C02BA13CA13B
:102940002216330621F48FA198A5892BE1F4A20168
:10295000B701C60161DDC301EDA1FEA18E179F077E
:1029600041F480E1F701D30101900D928A95E1F7DE
:102970009DCFF8012191DC013D91CD012327D801A4
:102980002C938F01E9CFD501E0E11D92EA95E9F79B
:1029900049A55AA5B701C5010E94EF70A201B50172
:1029A000C6013ADDC301EDA1FEA18E179F0719F202
:1029B000F8012191DC013D91CD012327D8012C9311
:1029C0008F01F1CF81E090E0AFA1B8A5AB2B09F06A
:1029D00014CF90E080E011CF0F931F93DA01FC0138
:1029E000680F791F0FEF1FEF9801E617F70741F403
:1029F0000D931D932D933C9313971F910F91089561
:102A00008191082788E090E0A8014170552736950C
:102A1000279517950795452B41F040E2042743E899
:102A2000142748EB24274DEE3427019769F7DDCFB3
:102A3000EF92FF920F931F93CF93DF9300D00F92EB
:102A4000CDB7DEB78C017B01AE014F5F5F4FC4DFB6
:102A5000F801EE0DFF1D898180838A8181838B813E
:102A600082838C818383C70104962496CDBFDEBF09
:102A7000DF91CF911F910F91FF90EF900895CF922A
:102A8000DF92EF92FF920F931F93CF93DF937C011E
:102A9000FB01DC0190E080E00091072010E080174E
:102AA0009107E0F0F8013197EE0FFF1FEE0FFF1FC7
:102AB000EE0DFF1D8091062090E00196880F991F72
:102AC000880F991F08171907D8F0DF91CF911F9130
:102AD0000F91FF90EF90DF90CF90089520812C937D
:102AE000218111962C931197228112962C93129783
:102AF000238113962C931397019634961496CCCF7A
:102B00002081C18142813381C0900720D12CC8012E
:102B1000B6010E94F86F0097C1F4D0E0C857DE4DAF
:102B20005881A42FB0E0A857BE4DCC91A32FB0E0A0
:102B3000A857BE4D4C91A22FB0E0A857BE4D3C9176
:102B400063587F4DDB012C912527509108205A3D79
:102B5000A9F4049799F4A22FB0E0A857BE4D2C9188
:102B6000D0E0C857DE4DC881A42FB0E0A857BE4DB5
:102B70004C91A32FB0E0A857BE4D3C91D801AC19A1
:102B8000BD09AA0FBB1FAA0FBB1FAE0DBF1D8C91A5
:102B90002827248311968C911197C827C5831296F4
:102BA0008C9112974827468313968C913827378348
:102BB0000F5F1F4F34967ECFCF92DF92FF920F931D
:102BC0001F93CF93DF9320E1829FC00111246B01FB
:102BD000C0E1CC0ED11CDA01A80FB91FFB0120E027
:102BE0003191FD908F01015011093F25E801388393
:102BF0002F5F2430A9F76C5F7F4F04966C157D051D
:102C000051F7DF91CF911F910F91FF90DF90CF90FF
:102C10000895982F881F8827881F2BE1829F802D79
:102C20001124990F892708950F931F93CF93DF9352
:102C3000182FC62FEEDF082FECDFD82FEADFC1FBFD
:102C4000992790F9909F902D11242C2F2170219F6E
:102C5000202D112482278927C2FBCC27C0F9CD9FC4
:102C6000C02D11248C27DF91CF911F910F910895D2
:102C70003F924F925F926F927F928F929F92AF920C
:102C8000BF92CF92DF92EF92FF920F931F93CF9359
:102C9000DF93EC016B01AB01BC0180E08DDF6624AA
:102CA00063945E0184E0A80EB11C4E01E0E18E0E3B
:102CB000911C8E01CE01DC0120E0EC91F0E0E857A0
:102CC000FE4D30813C932F5F14962430B1F701966E
:102CD0008A159B0581F789819D81998399859D83BB
:102CE0009D8599878D878A819A859A838A878E8127
:102CF0009E859E838E878B819F859B839B859F87E7
:102D00009F819B878F8380910620861579F1F8013A
:102D100040807180842D8725E280F3803E2C3F2403
:102D2000582E532476DF84258525F8018083872D4E
:102D30008E256FDF78267524F8017182832D69DF77
:102D4000E826E524F801E282842D8F2562DFF8264B
:102D5000F524F801F3820C5F1F4F80169106B9F637
:102D6000A601BE01862D28DF6394A3CFA601BE0174
:102D7000862DDF91CF911F910F91FF90EF90DF9003
:102D8000CF90BF90AF909F908F907F906F905F900B
:102D90004F903F9011CF4F925F926F927F928F92A0
:102DA0009F92AF92BF92CF92DF92EF92FF920F93DA
:102DB0001F93CF93DF93EC016B01AB01BC018091BA
:102DC0000620FADEE0900620EA945E0184E0A80E78
:102DD000B11C4E01E0E18E0E911C8D8599859D8779
:102DE0009D81998799819D8389838A819A859A8318
:102DF0008A878E819E859E838E878B819F819B8310
:102E00009B859F839F859B878F878E01CE01DC01E9
:102E100020E0EC91F0E0E857FF4D30813C932F5FCC
:102E200014962430B1F70196A816B90681F7A601C9
:102E3000BE018E2DC1DEEE2009F455C0F8014080A0
:102E40005180628073806EE0842DEEDEF82E6BE0A0
:102E5000852DEADEF8266DE0862DE6DEF82669E0AF
:102E6000872DE2DEF826F801F08269E0842DDCDEB1
:102E7000F82E6EE0852DD8DEF8266BE0862DD4DEA8
:102E8000F8266DE0872DD0DEF826F801F1826DE09E
:102E9000842DCADEF82E69E0852DC6DEF8266EE0A8
:102EA000862DC2DEF8266BE0872DBEDEF826F801FF
:102EB000F2826BE0842DB8DEF82E6DE0852DB4DE55
:102EC000F82669E0862DB0DEF8266EE0872DACDEB0
:102ED000F826F801F3820C5F1F4F8016910609F067
:102EE000ADCFEA947ACFDF91CF911F910F91FF90F0
:102EF000EF90DF90CF90BF90AF909F908F907F909A
:102F00006F905F904F900895FC016A3841F586E01C
:102F100090E0808391838CE090E08283938388E1CA
:102F200090E08483958380ED90E08683978340874B
:102F300085E796E28187928785E696E28387948784
:102F400060930820808180930720828180930620EF
:102F500084818093052086818093042008956A3DB2
:102F600079F488E090E0808391838EE090E0828322
:102F7000938380E290E08483958380EF90E0D5CFC7
:102F800084E090E0808391838AE090E08283938361
:102F900080E190E08483958380EB90E0C6CFFC01D4
:102FA000818592856CCD0F931F93CF93DF93EC01B6
:102FB0008A0189859A8563DDAB85BC8580E1F8014E
:102FC00001900D928A95E1F7DF91CF911F910F91BA
:102FD0000895FC01CB01618572854ACEFC01CB01CD
:102FE00061857285D8CEAF92BF92CF92DF92EF9279
:102FF000FF920F931F93CF93DF938C01EB016A0134
:10300000DC011B96ED91FC91B12CA12CAC14BD04FC
:1030100098F0E801AB85BC8580E101900D928A951E
:10302000E1F7DF91CF911F910F91FF90EF90DF902B
:10303000CF90BF90AF9008957E019E01205F3F4FDB
:10304000D7018D917D019191119789278C93E2167B
:10305000F306B1F7F80161857285CE0109DEF0E172
:10306000AF0EB11CFE01E701D1CFCF93FC01C085AB
:10307000C11104C0AEDF8C2FCF9108959A012F703B
:103080003327C1E0232BB9F7AEDFC0E0F4CFAF9216
:10309000BF92CF92DF92EF92FF920F931F93CF9345
:1030A000DF93CDB7DEB76097CDBFDEBF7C018B016C
:1030B0006A01B12CA12CAC14BD0470F06096CDBF98
:1030C000DEBFDF91CF911F910F91FF90EF90DF90C6
:1030D000CF90BF90AF90089580E1F801DE01119686
:1030E00001900D928A95E1F7D70119966D917C9127
:1030F000C80151DED7011B96ED91FC919801205F2C
:103100003F4FD8018D918D019191119789278C9313
:1031100002171307B1F7F701A385B48580E1FE011B
:10312000319601900D928A95E1F7F0E1AF0EB11C56
:10313000C2CFCF93FC01C085C11104C04FDF8C2FDB
:10314000CF9108959A012F703327C1E0232BB9F74F
:103150009EDFC0E0F4CFEF92FF920F931F93CF93C7
:10316000DF937C01E901062F10E0F801EF54F84DE0
:103170004083A801B9010E94624FF701808187FF57
:103180000EC0FE01A2EBB7E20C0F1D1F81919D91B5
:10319000EF01219789278883E017F107B9F7DF91BD
:1031A000CF911F910F91FF90EF9008953F924F9212
:1031B0005F926F927F928F929F92AF92BF92CF92C7
:1031C000DF92EF92FF920F931F93CF93DF93382EEE
:1031D0004B013A01E801A22EB12C27014A185B08E5
:1031E000E114F10411F5A50170E060E0C8010E944E
:1031F000097180E888836501FE01E40DF51D9501E4
:103200002E193F094E145F04B0F55191CF0101977B
:10321000D901A40DB51DAE53B84D4C914527DC0125
:103220004C93BFEF4B1A5B0AEDCFC701B5010E946B
:10323000F86F009709F463C06701CA0CDB1CC81A59
:10324000D90A80E8F801EE0DFF1D8083D5CF51919A
:103250009F0121503109DC01A40DB51DAE52B84DBE
:103260004C914527D9014C93BFEF4B1A5B0A4E1482
:103270005F0468F367012AE13216B1F08AE4381678
:10328000A9F180E0DF91CF911F910F91FF90EF9016
:10329000DF90CF90BF90AF909F908F907F906F9076
:1032A0005F904F903F900895AE014E0D5F1D8301DA
:1032B0009401BE01C60185D77E01EC0CFD1CA60160
:1032C000B701CE010E94F870B6016A197B096C0F34
:1032D0007D1FA50182EA97E20E94EF70A50162EAD4
:1032E00077E2C7010E94EF7081E0CCCFAE014E0DB6
:1032F0005F1D84019301BE01C6014DD9DDCFF801E8
:10330000E40DF51DC5018E199F09B1CF8F929F92D3
:10331000AF92BF92CF92DF92EF92FF920F931F93E3
:10332000CF93DF93C82F6B014A01790158018A318D
:10333000B1F080E0CA3409F044C0E2E9F7E280E18C
:10334000DF011D928A95E9F78B019F0142EC57E25C
:10335000BF0180E190E01FD917E8D0E111C0E2E998
:10336000F7E288E0DF011D928A95E9F78B019F0162
:1033700042EC57E2BF0188E090E023D71BE1D8E0A0
:1033800022ED37E2412F6D2F82EC97E2E4DE22EC52
:1033900037E2412F6D2F82ED97E2DDDE84012D2F84
:1033A000A501AB2859F44D2F50E070E060E082E9B0
:1033B00097E20E9409712D2F42E957E2B6018C2F46
:1033C000F5DEDF91CF911F910F91FF90EF90DF908D
:1033D000CF90BF90AF909F908F900895CF93DF9341
:1033E000FC01DB01480F591FE417F50719F4DF91C1
:1033F000CF91089581919D91EF012197892788832D
:10340000F3CFCF93DF93DC0150E040E0FB01319735
:103410004E175F0740F0E80FF91F8081880F808307
:10342000DF91CF9108952D914F5F5F4FED0121976F
:103430003C91331F3327331F220F232B2883E8CFE0
:103440006F927F929F92AF92BF92CF92DF92EF9254
:10345000FF920F931F93CF93DF93CDB7DEB7E09723
:10346000CDBFDEBF182F3B015A0169018A31A1F09F
:103470008A34C9F180E0E096CDBFDEBFDF91CF9105
:103480001F910F91FF90EF90DF90CF90BF90AF9082
:103490009F907F906F90089528E0E22EF12C3BE101
:1034A000932EA70170E060E0CE0101960E940971A1
:1034B000A70170E060E0CE0181960E9409711A3187
:1034C000C1F01A34B9F683019E012F5D3F4F41E0F0
:1034D00050E04C0F5D1F4E0D5F1DBE016F5F7F4FB3
:1034E000C70159D815C080E1E82EF12C97E8992E34
:1034F000D8CF83019E012F5D3F4F41E050E04C0F3C
:103500005D1F4E0D5F1DBE016F5F7F4FC70159D616
:1035100061E070E06C0F7D1F6E0D7F1DA701CE0175
:1035200001960E94EF70A701BE016F5F7F4FC5013A
:103530000E94EF701981B701C50163DF17FF07C053
:10354000F7013197EA0DFB1D808189258083A70152
:10355000B501C6010E94EF70F5011081B701C601E7
:1035600050DF17FF09C0F1E0EF1AF108F601EE0D88
:10357000FF1D80819826908281E07DCF2F923F921F
:103580004F925F926F927F928F929F92AF92BF9273
:10359000CF92DF92EF92FF920F931F93CF93DF931F
:1035A000CDB7DEB7E197CDBFDEBF89AB3B01BA0136
:1035B0005901480117017A01E20EF31EA901C70162
:1035C0000E94EF7089A98A3129F08A3409F45AC01F
:1035D00010E07EC008E01A2D198E1A8E86E1FE01D9
:1035E0007B96DF01982F1D929A95E9F719821A822E
:1035F0007897DF011D928A95E9F79E012F5F3F4F73
:10360000AE01475E5F4FB30189A91ADF95013327E9
:10361000402E512CAA2049F08A2D602F0E94EC6F79
:10362000911103C02C153D05A8F511E01A0D2E0DC2
:103630003F1D80E8F9018083212F30E0812F602F2A
:103640000E94EC6F911120C02C153D05E8F0C901D6
:1036500084199509A201BE016F5F7F4F8E0D9F1DDA
:10366000BDDEB9A9BA31F1F0BA3409F0B1CF812F7A
:1036700090E0A701480F591F83019401B7010E94F0
:10368000CB1219C000E1A7CF1F5F2E0D3F1DD9013E
:103690001C92D2CFC90184199509A201BE01675EAF
:1036A0007F4FDCCF812F90E0A701480F591F830186
:1036B0009401B70186D511E0892B09F410E021149B
:1036C000310409F485CFA201B401C1010E94EF7059
:1036D000812FE196CDBFDEBFDF91CF911F910F917A
:1036E000FF90EF90DF90CF90BF90AF909F908F9022
:1036F0007F906F905F904F903F902F900895CF9262
:10370000DF92EF92FF920F931F93D12CC12C36DFE3
:103710001F910F91FF90EF90DF90CF900895CF927F
:10372000DF92EF92FF920F931F93CF93DF937C0171
:10373000EB016417750730F14830510569F56B01ED
:1037400088E0C81AD108CE0DDF1D01EF17E29601FF
:10375000AE0161E078E28AE1D9DD88E0FE01A2E90C
:10376000B7E201900D928A95E1F7B7016C0D7D1DCE
:1037700048E050E082E997E20E94E2709C0181E01B
:10378000232B09F080E0DF91CF911F910F91FF90E3
:10379000EF90DF90CF9008954031510599F76B017C
:1037A00080E1C81AD108CE0DDF1D01EF17E29601A6
:1037B000AE0161E078E28AE4A9DD80E1FE01A2E9E0
:1037C000B7E201900D928A95E1F7B7016C0D7D1D6E
:1037D00040E150E0CFCFAF92BF92CF92DF92EF9215
:1037E000FF920F931F93CF93DF938C016B017A01AC
:1037F00088E0F801A2E8B7E201900D928A95E1F71E
:1038000088E0F801AAE7B7E201900D928A95E1F706
:1038100088E0F801A2E7B7E201900D928A95E1F7FE
:10382000E2E9F7E288E0DF011D928A95E9F75B01A2
:10383000A40EB51ECA0187709927EA01892B51F0A1
:10384000C87F2896AE014E195F0970E060E0C5019F
:103850000E940971A6014C0F5D1F22E937E2B601F3
:10386000CE01AFD42897F601EC0FFD1F84E0A2E94A
:10387000B7E201900D928A95E1F784E0E2E9F7E280
:10388000D50101900D928A95E1F7C7010496DF9169
:10389000CF911F910F91FF90EF90DF90CF90BF904D
:1038A000AF900895AF92BF92CF92DF92EF92FF92C6
:1038B0000F931F93CF93DF936C01EB015A016417B1
:1038C000750708F45BC088E0E1E0F8E2A2E8B7E23F
:1038D00001900D928A95E1F788E0E1E0F8E2AAE72D
:1038E000B7E201900D928A95E1F788E0E1E0F8E215
:1038F000A2E7B7E201900D928A95E1F7E2E9F7E2DB
:1039000088E0DF011D928A95E9F7CB01877099273E
:103910007B01892B79F0B8EFEB2288E0E80EF11CEF
:10392000A701461B570B70E060E0C6018C0F9D1F7E
:103930000E940971A6014E0D5F1D01E018E222E907
:1039400037E2B601C7013DD4F7013897EC0DFD1DF4
:1039500084E0A2E9B7E201900D928A95E1F7CE01E9
:103960008A199B0944E050E062E977E28C0D9D1DC5
:103970000E94E2709C0181E0232B09F080E0DF913E
:10398000CF911F910F91FF90EF90DF90CF90BF905C
:10399000AF9008952F923F924F925F926F927F92D5
:1039A0008F929F92AF92BF92CF92DF92EF92FF924F
:1039B0000F931F93CF93DF93CDB7DEB76097CDBF43
:1039C000DEBF4C011B014D835E8329833A832801AE
:1039D000ED86FE862DB73EB72F87388BDC01129619
:1039E0002D913C91CB010197820F931FB9010E9449
:1039F000F86F6F837887C101B9010E94F86F8987DA
:103A00009A87EDB7FEB7E21BF30BEDBFFEBF8DB794
:103A10009EB701966C01ADB7BEB7A21BB30BADBF8D
:103A2000BEBFEDB7FEB731965F01A90101151105C3
:103A300041F470E060E0CF010E940971712C612CAB
:103A400043C0B801CF010E94EF70F8CF93012F5F00
:103A50003F4F2B833C83D40112960D911C91809192
:103A6000E227813009F0C4C06114710409F069C013
:103A7000A80170E060E0C6010E940971A8016D8193
:103A80007E81C6010E94EF700A0D1B1DA601C501B3
:103A90008017910709F04BC0D40112968D919C912B
:103AA0001397689EB001699E700D789E700D112469
:103AB000E981FA816E0F7F1FED91FC914D855E8546
:103AC000C60119956B807C802F813885621673063C
:103AD00009F0BCCF4114510441F0D40112964D912C
:103AE0005C91B501C2010E94EF7081E090E0E98530
:103AF000FA85EF2B11F490E080E02F8538892DBFF7
:103B00003EBF6096CDBFDEBFDF91CF911F910F9179
:103B1000FF90EF90DF90CF90BF90AF909F908F90ED
:103B20007F906F905F904F903F902F900895DA01B3
:103B30002D91FC013191CF012327FA012083AD01A2
:103B4000A7CFC3010197809F7001819FF00C909FC8
:103B5000F00C112429813A812E0D3F1D2B873C87C3
:103B6000E00EF11E8D819E81E80EF91EA985BA85B1
:103B7000A801AB2B39F1EF81F8852B813C81E2174D
:103B8000F30701F570E060E0C6010E940971C10110
:103B9000B8010E94F86FAC016B857C85C6010E945C
:103BA000EF700E0D1F1DF601E016F10609F474CF3B
:103BB000DF012D91CD01D7013D917D012327208388
:103BC000FC01F2CF6B857C85C6010E94EF700E0D63
:103BD0001F1DF601E016F10609F45ECFDF012D91FD
:103BE000CD01D7013D917D0123272083FC01F2CF38
:103BF000609E7001619EF00C709EF00C1124ED81AE
:103C0000FE81EE0EFF1E29853A85A801232B89F03F
:103C10008F819885AB81BC818A179B0751F470E036
:103C200060E0C6010E940971C101B8010E94F86FED
:103C3000AC01B701C6010E94EF700A0D1B1DA60161
:103C4000C5018017910749F5D40112968D919C9179
:103C50001397689EB001699E700D789E700D1124B7
:103C6000E981FA816E0F7F1FED91FC914D855E8594
:103C7000C6011995D40112964D915C91649EB001D4
:103C8000659E700D749E700D1124E981FA816E0F8E
:103C90007F1FC5010E94EF7015CFDA012D91FC0145
:103CA0003191CF012327FA012083AD01CACF2F9292
:103CB0003F924F925F926F927F928F929F92AF92BC
:103CC000BF92CF92DF92EF92FF920F931F93CF9309
:103CD000DF93CDB7DEB72E97CDBFDEBF1C012B0122
:103CE0003A0129833A834801EB86FC862DB73EB71B
:103CF0002D873E87DC0112962D913C91CB010197D7
:103D0000820F931FB9010E94F86F6B837C83C201FD
:103D1000B9010E94F86F8D839E83EDB7FEB7E21B59
:103D2000F30BEDBFFEBF8DB79EB701966C01ADB72B
:103D3000BEB7A21BB30BADBFBEBFEDB7FEB731968A
:103D40007F01A9010115110541F470E060E0CF0188
:103D50000E94097110E000E042C0B801CF010E944A
:103D6000EF70F8CFD1011296AD90BC901397A09E42
:103D7000B001A19E700DB09E700D1124F801319616
:103D8000EF83F8878091E227813009F005C129810E
:103D90003A81620F731FED91FC914B855C85C601E2
:103DA0001995D10112964D915C910115110509F0FB
:103DB0007BC0ED81FE81EF2B09F04EC0B601C3013F
:103DC0000E94EF70D10112962D913C912E0D3F1D56
:103DD000B301C70182179307A9F50F811885EB81FD
:103DE000FC810E171F0709F0BDCF8114910441F02B
:103DF000D10112964D915C91B701C4010E94EF7000
:103E000081E090E0ED81FE81EF2B11F490E080E005
:103E10002D853E852DBF3EBF2E96CDBFDEBFDF91E7
:103E2000CF911F910F91FF90EF90DF90CF90BF90B7
:103E3000AF909F908F907F906F905F904F903F904A
:103E40002F900895DB014D91FC015191CF01452741
:103E5000FB014083BD01BECF2B813C812130310568
:103E600009F068C0C201BA010E94F86FAC01B60146
:103E7000C3010E94EF70D10112966D917C91C20135
:103E80000E94F86F8E0D9F1DB30197012817390707
:103E900009F4A3CFDB014D91F90151919F01452711
:103EA000FB014083BD01F2CF2D813E81232B09F41C
:103EB00041C08B819C81AF81B8858A179B07D1F562
:103EC000049F9001059F300D149F300D1124C201F5
:103ED000BA010E94F86FAC01B601C301820F931FB3
:103EE0000E94EF70F1016281738101501109069FF8
:103EF000F001079FF00D169FF00D112429813A81E2
:103F00002E0F3F1FE60FF71F8F01060D171DC20171
:103F10000E94F86F820F931F8217930709F45DCFF9
:103F2000D8014D91F90151919F014527F801408336
:103F30008D01F2CF049FC001059F900D149F900D3D
:103F40001124B601860D971D0E94EF70D1011296C3
:103F50002D913C9101501109029FF001039FF00D3A
:103F6000129FF00D112489819A818E0F9F1FE20FFD
:103F7000F31FBF01660D771D280F391F281739075A
:103F800009F42BCFDB014D91FC015191CF01452765
:103F9000FB014083BD01F2CF9301260F371F298714
:103FA0003A878D819E81892BE1F1AB81BC81EF81C4
:103FB000F885AE17BF07A9F5A50170E060E0C6015E
:103FC0000E940971C201B5010E94F86FAC016985B8
:103FD0007A85C6010E94EF70D101ED91FC914B856D
:103FE0005C85B60189859A851995F1012281338115
:103FF000029FF001039FF00D129FF00D1124BF01ED
:10400000660D771D2E0D3F1DC7012817390779F45E
:10401000D10112964D915C91B601C7010E94EF70DB
:10402000DCCE29813A81620F731FA501D2CFDB015B
:104030004D91FC015191CF014527FB014083BD010A
:10404000E4CF8F929F92AF92BF92EF92FF920F9325
:104050001F93CF93DF9300D00F92CDB7DEB77801D7
:104060008090482090904920A0904A20B0904B200A
:1040700089829A82AB82BC8289019A01AB01BC0120
:10408000CE01019687DC2496CDBFDEBFDF91CF91B4
:104090001F910F91FF90EF90BF90AF909F908F90E6
:1040A00008958F929F92AF92BF92EF92FF920F93DB
:1040B0001F93CF93DF9300D00F92CDB7DEB7780177
:1040C00080904C2090904D20A0904E20B0904F209A
:1040D00089829A82AB82BC8289019A01AB01BC01C0
:1040E000CE010196E4DD2496CDBFDEBFDF91CF91F6
:1040F0001F910F91FF90EF90BF90AF909F908F9086
:1041000008958F929F92AF92BF92EF92FF920F937A
:104110001F93CF93DF9300D00F92CDB7DEB7780116
:104120008090502090905120A0905220B090532029
:1041300089829A82AB82BC8289019A01AB01BC015F
:10414000CE01019627DC2496CDBFDEBFDF91CF9153
:104150001F910F91FF90EF90BF90AF909F908F9025
:1041600008958F929F92AF92BF92EF92FF920F931A
:104170001F93CF93DF9300D00F92CDB7DEB77801B6
:104180008090542090905520A0905620B0905720B9
:1041900089829A82AB82BC8289019A01AB01BC01FF
:1041A000CE01019684DD2496CDBFDEBFDF91CF9195
:1041B0001F910F91FF90EF90BF90AF909F908F90C5
:1041C00008958F929F92AF92BF92EF92FF920F93BA
:1041D0001F93CF93DF9300D00F92CDB7DEB7780156
:1041E0008090582090905920A0905A20B0905B2049
:1041F00089829A82AB82BC8289019A01AB01BC019F
:10420000CE010196C7DB2496CDBFDEBFDF91CF91F3
:104210001F910F91FF90EF90BF90AF909F908F9064
:1042200008958F929F92AF92BF92EF92FF920F9359
:104230001F93CF93DF9300D00F92CDB7DEB77801F5
:1042400080905C2090905D20A0905E20B0905F20D8
:1042500089829A82AB82BC8289019A01AB01BC013E
:10426000CE01019624DD2496CDBFDEBFDF91CF9134
:104270001F910F91FF90EF90BF90AF909F908F9004
:104280000895CF93DF93EB012097D9F0AB01495FFD
:104290005F4F403422E05207D8F423E0569547950B
:1042A0002A95E1F7BC0183E298E20E94EF70C134E5
:1042B00082E0D80710F0C0E4D2E0C0932128D09368
:1042C00022288091212890912228DF91CF91089572
:1042D00048E450E0E7CF089580E00C94533508950A
:1042E0006F927F928F929F92AF92BF92CF92DF9206
:1042F000EF92FF920F931F93CF93DF93CDB7DEB76B
:10430000A097CDBFDEBF7C01CB01009709F47DC033
:10431000D7012C91243C09F078C04B01B2E08B1AF4
:1043200091085401EFE0AE22BB24A114B10409F0BE
:104330007EC020E1E0E6F0E2DE01519601900D92B0
:104340002A95E1F76701F2E0CF0ED11C3701660E26
:10435000771E01E018E29E012F5E3F4FA601B301D8
:10436000C4010E94AA13A401B301C6010E94F870FF
:10437000D70111966C9180910B20681739F18091CB
:10438000B22810D68E3011F520E130E0AE014F5F3B
:104390005F4FF70161818091B2281FD7F601AE010E
:1043A0004D5F5F4F22E1E20EF11C9191DA018D9198
:1043B000AD019F01215031099827D9019C93EE1539
:1043C000FF0599F782E1A82EB12C1EC0F701838862
:1043D0009488C588D68863E170E0C7010E941815EB
:1043E000D70153968C91539788120EC054968C9196
:1043F0005497981209C055968C915597C81204C0CD
:1044000056968C91D816F1F2C501A096CDBFDEBFAD
:10441000DF91CF911F910F91FF90EF90DF90CF90A0
:10442000BF90AF909F908F907F906F9008955B01A9
:10443000EBCF0F931F93CF93DF93EC01CB0100974A
:1044400009F44CC028812F3A19F02BE020930A2060
:10445000BC01CE0145DF8C01AC01BE0183EE0E94A0
:10446000614C80910A20843109F451C0C0F48E302F
:1044700009F443C058F48C30B1F18D30C9F18B3060
:1044800039F181EC888381E090E026C08031D1F160
:104490008231B9F7B801CE010E949E4A1DC0873112
:1044A000D9F148F48531C1F1863159F7B801CE010F
:1044B0000E94494511C08831A1F1893111F7B80135
:1044C00061507109CE0101960E94A93490E004C0A8
:1044D000B801CE010E948B4910926B28DF91CF91D9
:1044E0001F910F910895B801CE010E94C349F4CFE6
:1044F000B801CE010E94E349EFCFB801CE010E947E
:104500000D2EEACFB801CE010E94ED49E5CFB801EA
:10451000CE010E948B4BE0CFB801CE010E945B45DB
:10452000DBCFCE010E948F34D7CFCF92DF92EF92B4
:10453000FF920F931F93CF93DF93EC019B01295FB1
:104540003F4FB90143E0769567954A95E1F72830EA
:104550003105E0F44091212850912228495F5F4FB6
:1045600033E0569547953A95E1F763E278E20E9489
:10457000EF708091212890912228DF91CF911F9197
:104580000F91FF90EF90DF90CF90089588818093F6
:10459000092020313105A0F199819F3A89F58039B0
:1045A00011F081113CC08B01015011096E018FEF98
:1045B000C81AD80AA801B601CE010E94F870B80145
:1045C000CE0137DF8C01892BA1F08881FE01E00F3D
:1045D000F11F8083780181E0E81AF108A701B60194
:1045E000CE010E94F870CE0DDF1D81E988830F5F38
:1045F0001F4FC80123E0880F991F2A95E1F7BDCF0F
:104600002832310550F0803911F0811108C09A81AB
:10461000911103C09B81992329F0882329F0CE01B1
:1046200008DFE8CF81110DC0CE010E94EA37009764
:1046300041F09827892798278883998380E190E023
:104640009CCF8C81082F10E099819883882341F0BA
:10465000A801BE016B5F7F4FCE0101960E94F870EA
:10466000B8016F5F7F4FCE01E4DE8C01892B09F426
:10467000C0CF80910920882309F4BBCF8881FE0137
:10468000E00FF11F8083780181E0E81AF108BE0194
:104690006F5F7F4FA701A4CF8F929F92AF92BF927F
:1046A000CF92DF92EF92FF920F931F93CF93DF93FE
:1046B0000F920F92CDB7DEB78C017B014B0127E043
:1046C000820E911CA8E4CA2ED12C80E4881682E0C8
:1046D000980630F46401B3E0D694C794BA95E1F734
:1046E0008091212890912228009761F08E159F05D6
:1046F00049F4A60163E278E2C8010E94E270892BC6
:1047000009F444C0B701C801BCDD8093212890930F
:10471000222898E0C916D10408F494C0F8018181D8
:10472000803911F0811193C0F80182818F3A09F02C
:104730008EC0838181118BC08481811188C0A58046
:10474000B12CC6010897A816B90629F00197A8163A
:10475000B90609F07CC080910A2094EF980F93303D
:1047600050F0982F9D7F903131F0843121F08851A5
:10477000823008F06CC021E0A601B8018091E627E4
:104780000E94B14F892B91F4F12CE12CC7010F90BD
:104790000F90DF91CF911F910F91FF90EF90DF90DD
:1047A000CF90BF90AF909F908F900895F801908028
:1047B000828180838581E82EF12C882341F0A70136
:1047C000B8016A5F7F4FC80101960E94F870B70177
:1047D0006F5F7F4FC8012DDE0097B1F2F801408175
:1047E0009082F9E0CF1AD108AC14BD0469F49C01A1
:1047F0002F5F3F4F800F911F51E9FC015083F8015B
:10480000E20FF31F4083C901AC014F5F5F4FB80156
:104810008091E6270E946E50BC01F3E0660F771F7F
:10482000FA95E1F7C8010F900F90DF91CF911F919A
:104830000F91FF90EF90DF90CF90BF90AF909F903F
:104840008F901FCDF3E0CF16D10408F499C1F80181
:1048500022812F3A09F03FC080910A2094EF980FEF
:10486000933048F0982F9D7F903129F0843119F0D2
:104870008851823080F5F8018081918189839A8303
:1048800021E0A601B8018091E6270E94B14F7C018A
:10489000892B09F47BCFF2E0EF1AF108680122E0DE
:1048A000C20ED11CA701B601C8010E94F870B70161
:1048B000C801BFDD7C01009729F0AC01B801C60139
:1048C0000E94F87089819A81F80180839183A70101
:1048D0004E5F5F4F9CCFF6E0CF16D10408F450C175
:1048E000F8019081903911F09111B3C1F8018181E3
:1048F0008F3A09F058C0211156C08381811153C0ED
:104900008481A601485051098417150609F04BC04F
:1049100080910A2034EF380F333048F0382F3D7F34
:10492000303129F0843119F088518230E0F521E0EE
:10493000A601B8018091E6270E94B14F892B09F4A6
:1049400023CFF801818180838481E82EF12C882394
:1049500041F0A701B8016B5F7F4FC80101960E942B
:10496000F870B7016F5F7F4FC80163DD7C01892B51
:1049700009F40ACFF8018081EE0DFF1D80836701E5
:10498000F1E0CF1AD108B8016F5F7F4FA601C801CF
:104990000E94F870F801EC0DFD1D81E98083A701EC
:1049A0004D5F5F4F34CF88E0C816D10408F4E8C0EB
:1049B000903911F0911152C1211150C1F801838138
:1049C00081114CC184819601285031098217130648
:1049D00009F044C190930920A40173E056954795CE
:1049E0007A95E1F720E0B8018091E6270E94B14F67
:1049F000BC01E3E0660F771FEA95E1F7C80195DD9A
:104A000007968830910508F4BFCEAC0163E0569557
:104A100047956A95E1F7FBCE80E9C0C08330F1F499
:104A200080910920F80180838FEA8183F4E0EF16FA
:104A3000F10450F0A70143505109B8016D5F7F4F59
:104A4000C80105960E94F870F801128213828BEF5C
:104A50008E0D8483F2E0EF0EF11CC1C0823009F0AC
:104A6000BEC080910920F801808382818183A701E3
:104A700043505109B8016D5F7F4FC80105960E94F0
:104A8000F870F801128213828BEF8E0D8483A7C019
:104A9000409708F4CFC022E0E21AF108CBC0F5E05D
:104AA000CF16D104B8F180910D20833011F08830F9
:104AB00089F5F8018081803E69F1863259F18235AD
:104AC00049F1843539F1B701C8010E94643681117A
:104AD00021C021E0A601B8018091E6270E94B14FD4
:104AE0008330910558F0BC0162507109C8010296EB
:104AF0000E948B49AC01892B09F0EACEB701C801AD
:104B00000E947636BC01089708F48CCE695F7F4F0F
:104B1000687F88CEF8E0EF16F10480F380910D20D5
:104B2000833011F0883051F7F8018081803E31F3F5
:104B3000863221F3823511F3843501F3B701C801C0
:104B40000E9464368111DACFB601C8010E948B49F8
:104B5000AC01892B99F25BCEF9E0CF16D10480F03D
:104B600081110EC0F801838181110AC084818111F5
:104B700007C02581C60109972817190609F47FC0C7
:104B8000B601C8010E94CF378093E427882309F437
:104B900086CF813009F040CFF801828180930920CF
:104BA000F8018081918189839A8320E0A601B80170
:104BB0008091E6270E94B14F7C01892B09F4E6CD54
:104BC0008091E427813009F029CFF2E0EF1AF10853
:104BD000A701B8016E5F7F4FC8010E94F870B7014E
:104BE00083E0660F771F8A95E1F7C8019EDC079680
:104BF0007C0123E0F694E7942A95E1F72091E427DD
:104C00002130C1F088309105A8F06801CE0CDF1C7E
:104C1000F6012081222309F43BCFA701B801C80186
:104C200001960E94F870F6018081F8018083F1E01E
:104C3000EF1AF108E114F10409F444CEA701B80118
:104C4000C80102963DCE29E0C216D10408F08ACFF1
:104C500097CF88E0C816D10408F492CFF80181817B
:104C6000803909F079CF83818111EDCF8481811161
:104C7000EACF2581C60108972817190621F721E0F8
:104C8000A601B8018091E6270E94B14F7C01892BD3
:104C900009F47ACDF801B080818180930920F1E098
:104CA000EF1AF10868012FEFC21AD20AA701B60164
:104CB000C8010E94F870B70143E0660F771F4A955C
:104CC000E1F7C80132DC07968830910508F45CCD25
:104CD00033E0969587953A95E1F77C01EFEFEE1A70
:104CE000FE0AA701B801C6010E94F870F801B0825F
:104CF000A7018DCD80E00E9473308BE080930A2065
:104D000008950E9461350C946F35ECEDF8E284E370
:104D1000DF011D928A95E9F7E7ECF8E285E1DF0112
:104D20001D928A95E9F7E3EBF8E284E1DF011D9239
:104D30008A95E9F7E7E9F8E28BE1DF011D928A95B0
:104D4000E9F7E6E8F8E280E1DF011D928A95E9F7EC
:104D50001092B2288FEF80939628CCDFD2CF1F938A
:104D6000CF93DF93182FD62FC42FCFDF8AE0809305
:104D70000A201092E327D1506C2F812FD23058F4A3
:104D80000E94EB4EC1110E94BF4C1092EF27DF91A1
:104D9000CF911F9108950E949B4EF4CF40E060E0B8
:104DA00088E1DDCF41E060E088E1D9CF40E061E01B
:104DB00086E1D5CF41E061E086E1D1CF40E061E01E
:104DC00088E1CDCF41E061E088E1C9CF40E062E019
:104DD00088E1C5CF41E062E088E1C1CF0C94224F69
:104DE0000C942B4F609117297091182945E150E0E0
:104DF00087EC98E20C946A4C1F93CF93DF93CDB766
:104E0000DEB76597CDBFDEBF182F8091C728681722
:104E100000F56430F0F4E62FF0E0EE0FFF1FE953E9
:104E2000F74D6585768545E150E0CE0101960E94FB
:104E3000634C8A859B85163019F1A8F4133099F1DB
:104E400058F4113069F18C81123059F18A811123A3
:104E500041F190E080E014C088859985143081F498
:104E60008E819F810DC08A899B89193049F078F421
:104E70008C859D85173021F088899989183049F7EC
:104E80006596CDBFDEBFDF91CF911F9108958E85CE
:104E90009F851A30A9F38C899D891B3089F3D9CF5E
:104EA0008B8190E0EDCF8D81FCCFCF92DF92EF929E
:104EB000FF921F93CF93DF93CDB7DEB76597CDBF3A
:104EC000DEBF182F7A018091C7286817D8F46430A4
:104ED000C8F4C62ED12CCC0CDD1CF601E953F74DDD
:104EE0006585768545E150E0CE0101960E94634CD0
:104EF0001630E9F1B8F41330A9F178F4112319F15F
:104F0000123071F16596CDBFDEBFDF91CF911F9159
:104F1000FF90EF90DF90CF900895143029F5EE8246
:104F2000FF8212C0193049F138F4173019F11830E6
:104F300049F7E88AF98A08C01A3011F11B3011F7D5
:104F4000EC8AFD8A01C0EA82F601E953F74D6585D6
:104F5000768545E150E0CE0101960E946A4CD2CFA1
:104F6000EC82F2CFED82F0CFE886F986EDCFEA86CB
:104F7000FB86EACFEC86FD86E7CFEA8AFB8AE4CFA0
:104F8000EE86FF86E1CF682F81E036CFCF93C62F24
:104F9000633028F4F8DF982F81E0C91708F080E02B
:104FA000CF9108951F93CF93DF9300D0CDB7DEB795
:104FB000162F8430D0F46330C0F4682F84E01CDFF7
:104FC000BC0143E050E0CE0101960E94634CE1E059
:104FD000F0E0EC0FFD1FE10FF11D80812396CDBFA6
:104FE000DEBFDF91CF911F91089580E0F7CF60E0A1
:104FF00080E0D8DF8470089560E08091B228D2DF2D
:1050000082700895EF92FF920F931F93CF93DF93D7
:1050100000D0CDB7DEB7162F042F8430D8F463301C
:10502000C8F4682F84E0E8DE7C0143E050E0BC0176
:10503000CE0101960E94634CE1E0F0E0EC0FFD1F11
:10504000E10FF11D008343E050E0B701CE0101966E
:105050000E946A4C2396CDBFDEBFDF91CF911F9196
:105060000F91FF90EF9008951F93CF93DF9300D09F
:10507000CDB7DEB7162F8430D0F46330C0F4682F7C
:1050800088E0BADEBC0143E050E0CE0101960E9408
:10509000634CE1E0F0E0EC0FFD1FE10FF11D8081BA
:1050A0002396CDBFDEBFDF91CF911F91089580E0A1
:1050B000F7CFEF92FF920F931F93CF93DF9300D020
:1050C000CDB7DEB7162F042F8430D8F46330C8F480
:1050D000682F88E091DE7C0143E050E0BC01CE0106
:1050E00001960E94634CE1E0F0E0EC0FFD1FE10F40
:1050F000F11D008343E050E0B701CE0101960E940C
:105100006A4C2396CDBFDEBFDF91CF911F910F91E7
:10511000FF90EF9008950F931F93CF93DF9300D0EC
:10512000CDB7DEB7082F162F843048F080E02396E5
:10513000CDBFDEBFDF91CF911F910F91089526DF84
:105140008823A1F3602F89E057DEBC0143E050E0E3
:10515000CE0101960E94634CE1E0F0E0EC0FFD1FF0
:10516000E10FF11D8081E3CFDF92EF92FF920F9369
:105170001F93CF93DF9300D0CDB7DEB7082F162F44
:10518000D42E8430E0F402DF8823C9F0602F89E058
:1051900033DE7C0143E050E0BC01CE0101960E9469
:1051A000634CE1E0F0E0EC0FFD1FE10FF11DD08258
:1051B00043E050E0B701CE0101960E946A4C23966D
:1051C000CDBFDEBFDF91CF911F910F91FF90EF9088
:1051D000DF900895682F8BE00FCECF92DF92EF9291
:1051E000FF920F931F93CF93DF930F920F92CDB740
:1051F000DEB7082F162F6A0179018430D8F4C6DE95
:105200008823C1F081E2E816F104A0F4802FE2DFE8
:10521000612F70E0660F771F680F791F42E050E042
:10522000CE0101960E94634C69817A81A701C60173
:105230000E94634C0F900F90DF91CF911F910F91BF
:10524000FF90EF90DF90CF900895CF92DF92EF9292
:10525000FF921F93CF93DF930F920F92CDB7DEB7DC
:10526000162F6A0179018430C0F46330B0F4213222
:10527000310598F4AFDF612F70E0660F771F680F7C
:10528000791F42E050E0CE0101960E94634C698193
:105290007A81A701C6010E946A4C0F900F90DF919E
:1052A000CF911F91FF90EF90DF90CF900895462F00
:1052B00050E0682F82E0F9CD1F93CF93DF9300D0A9
:1052C0000F92CDB7DEB7162F843098F4682F85E0A3
:1052D00093DDBC0144E050E0CE0101960E94634C96
:1052E000FE01319680E09191911721F08F5F84301B
:1052F000D1F784E02496CDBFDEBFDF91CF911F911F
:105300000895CF93DF9300D00F92CDB7DEB7682F0B
:10531000843030F02496CDBFDEBFDF91CF91089569
:1053200085E06ADDBC0144E050E0CE0101960E94B8
:10533000634CFE01319680E091919F3F59F38F5F5E
:105340008430D1F7E7CFEF92FF920F931F93CF9363
:10535000DF9300D00F92CDB7DEB7162F042F843025
:10536000D8F46430C8F4682F85E046DD7C0144E061
:1053700050E0BC01CE0101960E94634CE1E0F0E0F8
:10538000EC0FFD1FE10FF11D008344E050E0B70179
:10539000CE0101960E946A4C2496CDBFDEBFDF91FC
:1053A000CF911F910F91FF90EF9008951F93CF938E
:1053B000DF93CDB7DEB72897CDBFDEBF162F843081
:1053C00008F56430F8F46091B2288AE015DDBC017C
:1053D00048E050E0CE0101960E94634C612F70E0DE
:1053E000660F771F81E090E08C0F9D1F680F791F7B
:1053F000FB01808191812896CDBFDEBFDF91CF91E7
:105400001F91089590E080E0F6CFCF93DF93CDB762
:10541000DEB76B97CDBFDEBFC9DFBC018FEF611573
:10542000710539F04BE150E0CE0101960E94634CCA
:1054300089816B96CDBFDEBFDF91CF910895CF9369
:10544000DF93CDB7DEB76B97CDBFDEBFAFDFBC015B
:105450008FEF9FEF6115710541F04BE150E0CE01F8
:1054600001960E94634C8B819C816B96CDBFDEBF01
:10547000DF91CF9108951F93CF93DF9300D00F92C8
:10548000CDB7DEB7162F8430D0F46430C0F4682F67
:1054900086E0B2DCBC0144E050E0CE0101960E94FF
:1054A000634CE1E0F0E0EC0FFD1FE10FF11D8081A6
:1054B0002496CDBFDEBFDF91CF911F91089580E08C
:1054C000F7CFEF92FF920F931F93CF93DF9300D00C
:1054D0000F92CDB7DEB7162F042F8430D8F4643086
:1054E000C8F4682F86E088DC7C0144E050E0BC0111
:1054F000CE0101960E94634CE1E0F0E0EC0FFD1F4D
:10550000E10FF11D008344E050E0B701CE010196A8
:105510000E946A4C2496CDBFDEBFDF91CF911F91D0
:105520000F91FF90EF9008951F93CF93DF93CDB726
:10553000DEB72897CDBFDEBF162F843000F564306C
:10554000F0F4682F87E058DCBC0148E050E0CE0161
:1055500001960E94634C612F70E0660F771F81E017
:1055600090E08C0F9D1F680F791FFB018081918156
:105570002896CDBFDEBFDF91CF911F91089590E0B7
:1055800080E0F6CFCF92DF92EF92FF921F93CF93FE
:10559000DF93CDB7DEB72897CDBFDEBF162F7A01D8
:1055A0008430F0F46430E0F4682F87E025DC6C018F
:1055B00048E050E0BC01CE0101960E94634CE12F0F
:1055C000F0E0EE0FFF1F81E090E08C0F9D1FE80FD1
:1055D000F91FE082F18248E050E0B6010E946A4C77
:1055E0002896CDBFDEBFDF91CF911F91FF90EF9046
:1055F000DF90CF900895CF92DF92EF92FF921F93AA
:10560000CF93DF93CDB7DEB7A397CDBFDEBF6C01DD
:10561000142FCE0101967C018BE1F70111928A953E
:10562000E9F7643010F4443088F08BE1F601119210
:105630008A95E9F7C601A396CDBFDEBFDF91CF9172
:105640001F91FF90EF90DF90CF9008958AE0D4DB18
:10565000BC0148E050E0CE014C960E94634CE12F23
:10566000F0E0EE0FFF1FEE0DFF1D638D748D4BE11B
:1056700050E0C7010E94634C8BE1F701D601019015
:105680000D928A95E1F7D6CFEF92FF921F93CF93B9
:10569000DF93CDB7DEB72897CDBFDEBF162F7A01D7
:1056A000843040F5643030F5452B21F1682F8AE0D5
:1056B000A3DBBC0148E050E0CE0101960E94634CA0
:1056C000612F70E0660F771F81E090E08C0F9D1FC7
:1056D000680F791FFB01608171814BE150E0C701C8
:1056E0000E946A4C8BE1F701A7E9B8E201900D92A4
:1056F0008A95E1F72896CDBFDEBFDF91CF911F914C
:10570000FF90EF900895EF92FF920F931F93CF9326
:105710007C0108EC18E2C0E043E050E0B701C801AA
:105720000E94E270892B29F0CF5F0D5F1F4FC430BC
:1057300099F78C2FCF911F910F91FF90EF900895C3
:105740000F931F93CF93C82FE091B228E81741F130
:10575000A82FB0E0AA0FBB1FA953B74D1D960D91FE
:105760001C9101151105E1F0EF3F69F0F0E0EE0F3B
:10577000FF1FE953F74D6585768545E150E082EBE3
:1057800098E20E946A4C45E150E0B80182EB98E251
:105790000E94634CC093B228CF911F910F9122CBEE
:1057A000CF911F910F910895AEDF843020F4C8DFB0
:1057B00090E080E0089580EA90E0089580E0C0CF16
:1057C00081E09091B228911180E008952F923F924C
:1057D0004F925F926F927F928F929F92AF92BF9201
:1057E000CF92DF92EF92FF920F931F93CF93DF93AD
:1057F000CDB7DEB7C054D109CDBFDEBF7C01262EA8
:10580000042F2DB73EB721962EAF3FAF2197DC0175
:105810008C9181110FC011968C91119781110AC042
:1058200012968C911091C728182B09F455C0882323
:1058300009F48AC1C70167DF843009F085C110917E
:10584000C7288EEC90E0143050F51CAEE3E080E405
:1058500090E0E21520F1E7ECF8E2332433941315DD
:1058600031F084819581892B9681892B29F033949D
:10587000339624E03212F3CF412E512C809119201F
:1058800090E00E94954C3201660C771CF301E953BD
:10589000F74D85879687892B11F58EE090E021964C
:1058A000EEADFFAD2197EDBFFEBFC05CDF4FCDBFBA
:1058B000DEBFDF91CF911F910F91FF90EF90DF90AE
:1058C000CF90BF90AF909F908F907F906F905F90A0
:1058D0004F903F902F900895B1E0BCAFB7CFFE013D
:1058E000B69680E1DF011D928A95E9F719A381E060
:1058F0008AA32BA21CA28091EF278DA38091182050
:1059000090E00E94954CBC018EA39FA3892B29F2A5
:1059100021E031E0029FC001039F900D11248A8392
:105920009B83098343E050E08E010F5F1F4FC80146
:105930000E946A4C8091172090E00E94954C6C0167
:1059400088A799A7892B09F4A8CF44E050E06FEF0E
:1059500070E0C8010E94097144E050E0B601C8013E
:105960000E946A4C8091162090E00E94954CBC01E8
:105970008AA79BA7892B09F490CF84E0F8011192A4
:105980008A95E9F744E050E0C8010E946A4C809192
:10599000152090E00E94954CBC018CA79DA7892BF7
:1059A00009F47BCF8FE090E089839A838B839C837B
:1059B0008D839E838F83988748E050E0C8010E94C2
:1059C0006A4C8091142090E00E94954CBC0188ABF9
:1059D00099AB892B09F461CF83E0D8011D928A9598
:1059E000E9F743E050E0C8010E946A4C809113201F
:1059F00090E00E94954C6C018AAB9BAB892B09F41B
:105A00004CCFEDB7FEB7EDAFFEAFA0901320B12C99
:105A10002DB73EB72A193B092DBF3EBF8DB79EB7A4
:105A200001964C01A50170E060E00E940971A5019A
:105A3000B601C4010E946A4CADADBEADADBFBEBFE4
:105A40008091112090E00E94954CBC018EA79FA7E9
:105A5000892B09F422CF88E0F80111928A95E9F7A1
:105A600048E050E0C8010E946A4C8091122090E00A
:105A70000E94954C8CAB9DAB892B09F40ECF6E0127
:105A8000F6E3CF0ED11C86E0D6011D928A95E9F788
:105A90005601912C92104AC080E2D8011D928A953D
:105AA000E9F76EA97FA940E250E0C8010E946A4C64
:105AB0006CA97DA946E050E0C6010E946A4CF30142
:105AC000E953F74D6585768545E150E0CE01819635
:105AD0000E946A4CBCADBB2349F085E1FE01B19642
