:100000000C944A080C9470080C9470080C947008B6
:100010000C9470080C9470080C9470080C94700880
:100020000C9470080C9470080C94FC690C94700883
:100030000C9470080C9470080C9470080C94700860
:100040000C9470080C9470080C9470080C94700850
:100050000C9470080C9470080C9470080C94700840
:100060000C9470080C9470080C9470080C94700830
:100070000C9470080C9470080C9470080C94ED1299
:100080000C9470080C9470080C94920A0C94A35A67
:100090000C9470080C9470080C9470080C94700800
:1000A0000C9470080C9470080C9470080C947008F0
:1000B0000C9470080C9470080C9470080C94A60AA8
:1000C0000C9470080C94B00A0C94BA0A0C94BE5CA0
:1000D0000C9470080C9470080C9470080C947008C0
:1000E000FFC70000FDC70000FBC70000F9C7000004
:1000F000F7C70000F5C70000F3C70000F1C7000014
:10010000EFC70000EDC70000EBC70000E9C7000023
:100110000C94CE0A0C94805AE3C70000E1C700009B
:10012000DFC70000DDC70000DBC70000D9C7000043
:10013000D7C700000C94EE5CD3C700000C9458584D
:100140000C944F0A0C949C0A0C94CA5AC9C700001C
:10015000C7C700000C94C40A0C94E65BC1C700003A
:10016000BFC70000BDC70000BBC70000B9C7000083
:10017000B7C70000B5C70000B3C70000B1C7000093
:10018000AFC70000ADC70000ABC70000A9C70000A3
:10019000A7C70000A5C70000A3C70000A1C70000B3
:1001A0009FC700009DC700009BC7000099C70000C3
:1001B00097C7000095C7000093C7000091C70000D3
:1001C0008FC700008DC700008BC7000089C70000E3
:1001D00087C7000085C7000083C7000081C70000F3
:1001E0007FC700007DC700007BC7000079C7000003
:1001F00077C700000C94281173C700004E4F54209D
:10020000494D504C454D454E544544002532686893
:10021000782532686878253268687800256C750022
:1002200053455420414944204649525354004325E4
:100230006C7546257549256868755225686875008E
:1002400053455420414944204649525354004325C4
:100250006C7546257549256868755225686875006E
:1002600053455420414944204649525354004325A4
:100270006C7546257549256868755225686875004E
:100280004342430045434200414553004445530027
:100290002531357300456E63697068657265643A2F
:1002A00041455332353600456E6369706865726545
:1002B000643A41455331393200456E63697068656F
:1002C0007265643A41455331323800456E63697056
:1002D00068657265643A334B3344455300506C6132
:1002E000696E746578743A4D414300506C61696E73
:1002F0007465787400253135730050726F64446101
:1003000074650042617463684E6F0053775665727E
:100310007300537750726F746F5479706500537720
:10032000537562747970650053775479706500482D
:10033000575665727300485750726F746F547970D6
:100340006500487753756274797065004877547911
:100350007065004D616E7549440041545141004142
:1003600054530025323473202534307300004E4F2F
:100370004E450000000000000000000000000000EA
:10038000000000000000015549445F52414E444FB7
:100390004D0000000000000000000000000000020E
:1003A0005549445F4C4546545F494E4352454D457F
:1003B0004E54000000000000035549445F52494775
:1003C00048545F494E4352454D454E54000000008D
:1003D00000045549445F4C4546545F4445435245EB
:1003E0004D454E54000000000000055549445F5241
:1003F000494748545F44454352454D454E540000DB
:10040000000000064359434C455F53455454494E40
:100410004753000000000000000000000753544F45
:1004200052455F4D454D00000000000000000000F7
:10043000000000000008524543414C4C5F4D454DC3
:10044000000000000000000000000000000009544F
:100450004F47474C455F4649454C4400000000006B
:10046000000000000000000A53544F52455F4C4FFB
:100470004700000000000000000000000000000035
:100480000B434C4F4E4500000000000000000000F0
:100490000000000000000000000C434C4F4E455F80
:1004A0004D46550000000000000000000000000064
:1004B0000000008040C020A060E0109050D030B01C
:1004C00070F0088848C828A868E8189858D838B83C
:1004D00078F8048444C424A464E4149454D434B454
:1004E00074F40C8C4CCC2CAC6CEC1C9C5CDC3CBCDC
:1004F0007CFC028242C222A262E2129252D232B248
:1005000072F20A8A4ACA2AAA6AEA1A9A5ADA3ABADB
:100510007AFA068646C626A666E6169656D636B6F3
:1005200076F60E8E4ECE2EAE6EEE1E9E5EDE3EBE7B
:100530007EFE018141C121A161E1119151D131B111
:1005400071F1098949C929A969E9199959D939B9AB
:1005500079F9058545C525A565E5159555D535B5C3
:1005600075F50D8D4DCD2DAD6DED1D9D5DDD3DBD4B
:100570007DFD038343C323A363E3139353D333B3B7
:1005800073F30B8B4BCB2BAB6BEB1B9B5BDB3BBB4B
:100590007BFB078747C727A767E7179757D737B763
:1005A00077F70F8F4FCF2FAF6FEF1F9F5FDF3FBFEB
:1005B0007FFF8B5D965D955D945D945D935D925D2F
:1005C000915D8C5D8F5D905D0000000100F05875BD
:1005D000599459EB23EF23881E8C1E891E69200B2A
:1005E000240D240010070000F05875599459F32386
:1005F000F723881E8C1E891E69200B240D240008F9
:10060000070000F05875599459FB23FF23881E8C6E
:100610001E891E69200B240D240010070000F058CD
:100620007559945903240724881E8C1E891E69203D
:100630000B240D240010070000004E4F4E45000013
:1006400000000000000000000000000000000000AA
:100650000000014D465F44455346495245000000A5
:100660000000000000000000000000024D465F4452
:100670004553464952455F324B4556310000000014
:1006800000000000034D465F444553464952455F14
:10069000344B4556310000000000000000044D4678
:1006A0005F444553464952455F344B45563200003E
:1006B000000000000000004E4F4E4500000000000A
:1006C0000000000000000000000000000000000129
:1006D000504F574552454400000000000000000004
:1006E0000000000000000000025445524D494E41F8
:1006F0004C5F434F4E4E0000000000000000000021
:1007000000035445524D494E414C5F5258545800D5
:10071000000000000000000000000453455454494C
:100720004E475F4348414E4745000000000000002F
:10073000000000054D454D4F52595F53544F5245EF
:10074000440000000000000000000000064D454D80
:100750004F52595F4348414E474544000000000056
:10076000000000000008434F4445435F525800001A
:10077000000000000000000000000000000009432D
:100780004F4445435F545800000000000000000043
:1007900000000000000000074649454C445F444506
:1007A0005445435445440000000000000000000090
:1007B0000A4C4F474D454D5F46554C4C00000000DC
:1007C0000000000000000000001E034300680061FC
:1007D000006D0065006C0065006F006E002D004D1F
:1007E0000069006E00690000002A034B006100737D
:1007F000007000650072002000260020004F00738A
:1008000000770061006C006400200047006D00620A
:1008100000480000000403090409023E0002010030
:10082000C032090400000102020100052400100189
:10083000042402060524060001070582030800FFC0
:1008400009040100020A0000000705040210000567
:10085000070583021000051201100102000008D0F4
:1008600016B204010001020001004F4646000000DC
:100870000000000000000000000000000000000078
:100880000000014D454D4F5259000000000000008E
:100890000000000000000000000000024C49564526
:1008A0000000000000000000000000000000000048
:1008B00000000000004E4F4E450000000000000008
:1008C00000000000000000000000000000014F4E8A
:1008D0000000000000000000000000000000000018
:1008E000000000000000024F46460000000000002B
:1008F00000000000000000000000000000000003F5
:1009000031000000000000000000000000000000B6
:1009100000000000000000000432000000000000A1
:1009200000000000000000000000000000000000C7
:10093000000533000000000000000000000000007F
:10094000000000000000000000000634000000006D
:100950000000000000000000000000000000000097
:10096000000000073500000000000000000000004B
:100970000000000000000000000000000D0A000D53
:100980000A000D0A00643130303A4F4B000000007D
:100990000000000000000000000000000000000057
:1009A000000000000000653130313A4F4B205749BC
:1009B0005448205445585400000000000000000036
:1009C000000000000000006E3131303A57414954B8
:1009D000494E4720464F5220584D4F44454D000048
:1009E0000000000000000000C83230303A554E4B85
:1009F0004E4F574E20434F4D4D414E440000000096
:100A0000000000000000000000C93230313A494EB9
:100A100056414C494420434F4D4D414E442055537F
:100A200041474500000000000000CA3230323A4918
:100A30004E56414C494420504152414D4554455237
:100A40000000000000000000000000783132303A61
:100A500046414C534500000000000000000000002B
:100A60000000000000000000000000007931323179
:100A70003A545255450000000000000000000000FC
:100A800000000000000000000000000000CB323039
:100A9000333A54494D454F555400000000000000C2
:100AA00000000000000000000000000000005645AB
:100AB0005253494F4E0000000000000000000000AB
:100AC00000000000026C434F4E4649470000000002
:100AD00000000000000000000000296C236C554954
:100AE00044000000000000000000000000000000C2
:100AF0000000916C536C524541444F4E4C590000DC
:100B000000000000000000000000EB6CDF6C55509E
:100B10004C4F414400000000000000000000176D31
:100B2000000000000000444F574E4C4F414400006D
:100B30000000000000001C6D000000000000524595
:100B40005345540000000000000000000000216D2B
:100B5000000000000000555047524144450000008D
:100B60000000000000002B6D0000000000004D455B
:100B70004D53495A450000000000000000000000ED
:100B800000000000356D55494453495A45000000A6
:100B90000000000000000000000000004C6D524208
:100BA0005554544F4E0000000000000000000000AB
:100BB0000000696D616D52425554544F4E5F4C4F69
:100BC0004E470000000000000000896D816D4C421E
:100BD0005554544F4E00000000000000000000007B
:100BE0000000A96DA16D4C425554544F4E5F4C4FBF
:100BF0004E470000000000000000C96DC16D4C456B
:100C000044475245454E000000000000000000002F
:100C10000000E96DE16D4C45445245440000000080
:100C200000000000000000000000096E016E504945
:100C30004E00000000000000000000000000000066
:100C40000000266E216E4C4F474D4F44450000007A
:100C500000000000000000000000406E3A6E4C4FA3
:100C6000474D454D0000000000000000000000005E
:100C700000000000576E4C4F47444F574E4C4F41B9
:100C80004400000000007B6E0000000000004C4F9C
:100C90004753544F52450000000000000000806E92
:100CA0000000000000004C4F47434C4541520000FB
:100CB000000000000000846E0000000000005345AA
:100CC0005454494E4700000000000000000000009E
:100CD00000008D6E886E434C4541520000000000BC
:100CE000000000000000956E00000000000053545A
:100CF0004F52450000000000000000000000996E07
:100D0000000000000000524543414C4C0000000030
:100D10000000000000009D6E00000000000043483D
:100D2000415247494E47000000000000000000000B
:100D300000000000A16E48454C500000000000007B
:100D4000000000000000A76E0000000000005253E9
:100D500053490000000000000000000000000000F7
:100D600000000000E36E5359535449434B00000008
:100D7000000000000000000000000000206F544947
:100D80004D454F55540000000000000000000000D9
:100D900000005A6F3B6F5448524553484F4C440033
:100DA00000000000000000000000C46FAB6F415560
:100DB000544F43414C494252415445000000527047
:100DC0000000000000004649454C440000000000BF
:100DD0000000000000000000000017704270444650
:100DE0005F534554484452000000000000000000DA
:100DF0000000482B000044465F434F4D4D5F4D4F70
:100E000044450000000000000000802C0000444623
:100E10005F454E434D4F4445000000000000000078
:100E20000000F32C000044465F4B45595343525594
:100E30004200000000007A2D00000000000044463F
:100E40005F53455455505F47414C4C000000000033
:100E500000008C2D000044465F4352455F47414CE3
:100E60004C415050000000000000DC2D00004446C2
:100E70005F55505F47414C4C41505000000000000E
:100E80000000502E000044465F55505F47414C4CD7
:100E90005F434944000000000000C42E00004446A7
:100EA0005F53454C5F47414C4C415050000000009F
:100EB00000001F2F000044465F5345545F47414CDC
:100EC0004C4B4559000000000000562F0000000068
:100ED0000000000000000000000000000000000012
:100EE00000000000000025632C2563002535640008
:100EF000416E7920696E74656765722066726F6DE8
:100F0000203020746F2025752E205265666572652D
:100F10006E636520766F6C746167652077696C6CB1
:100F20002062652028564343202A205448524553C6
:100F3000484F4C44202F203430393529206D562E0F
:100F4000002575002535640030203D206E6F20742B
:100F5000696D656F75740D0A312D363030203D2076
:100F6000313030206D73202D203630303030206D00
:100F7000732074696D656F7574002575206D73003D
:100F800025342E345800253575206D5600257520E2
:100F90002866726F6D207768696368202575206EFA
:100FA0006F6E2D766F6C6174696C65290025750014
:100FB00025750025632C25630052414E444F4D009A
:100FC0004E4F205549442E004368616D656C656F36
:100FD0006E4D696E692052657647202553207573E2
:100FE000696E67204C55464120255320636F6D7014
:100FF000696C65642077697468204156522D4743B7
:10100000432025532E204261736564206F6E207447
:101010006865206F70656E2D736F75726365204E05
:10102000464320746F6F6C204368616D656C656F1B
:101030006E4D696E692E2068747470733A2F2F6735
:1010400069746875622E636F6D2F656D7365632FAC
:101050004368616D656C656F6E4D696E6920636F85
:101060006D6D697420255300323032362D30322DAB
:1010700030360031353131313500392E352E3000E2
:1010800033653034313233006364696E6F70737569
:1010900078585B0011241FBECFEFCDBFDFE3DEBF6A
:1010A00000E00CBF18BE19BE1ABE1BBE12E2A0E0C3
:1010B000B0E2E0E1F5EF00E00BBF02C007900D9257
:1010C000A635B107D9F71BBE2DE2A6E5B2E201C0F5
:1010D0001D92A433B207E1F70E943C560C94867A25
:1010E0000C94F369F190E190D190C190B190A190EE
:1010F000919081900B941B942B943B944B945B9414
:101100006B947B948B949B94AB94BB94CB94DB9427
:10111000EB94FB940895F801D894E4DF5894E2DF4F
:10112000D894E0CFF801D894DDDF5894DBDFF801E4
:10113000D894D8CFF801D894D5CFF8015894D2CF0D
:10114000F80170965894CEDFF8013896D894CADF2B
:10115000F8015894C7CFF8015894C4DFD894C2DF7F
:10116000F8015894BFCFFF90EF90DF90CF90BF90E1
:10117000AF909F908F907F906F905F904F903F9037
:101180002F90112408952F923F924F925F926F9269
:101190007F928F929F92AF92BF92CF92DF92EF9207
:1011A000FF920F931F93FC017190619051904190B9
:1011B00031902190119001908A01BCDFFB01719266
:1011C00061925192419231922192119201921F911A
:1011D0000F91C9CF2F923F924F925F926F927F9261
:1011E0008F929F92AF92BF92CF92DF92EF92FF9237
:1011F0000F931F93FB01719061905190419031903A
:101200002190119001908A0198DFFC017192619206
:101210005192419231922192119201921F910F911C
:10122000A2CF2F923F924F925F926F927F928F92B6
:101230009F92AF92BF92CF92DF92EF92FF920F9365
:101240001F93FB01719061905190419031902190DA
:10125000119001908A017FDFFC017192619251929D
:10126000419231922192119201921F910F917BCF65
:101270002F923F924F925F926F927F928F929F92A6
:10128000AF92BF92CF92DF92EF92FF920F931F9394
:10129000FB0171906190519041903190219011909B
:1012A00001908A014DDFFC0171926192519241924D
:1012B00031922192119201921F910F9154CF2F924E
:1012C0003F924F925F926F927F928F929F92AF92D6
:1012D000BF92CF92DF92EF92FF920F931F93FC0188
:1012E00071906190519041903190219011900190B6
:1012F0008A0118DFFB017192619251924192319201
:101300002192119201921F910F912DCF2F923F9216
:101310004F925F926F927F928F929F92AF92BF9205
:10132000CF92DF92EF92FF920F931F93FC01719087
:1013300061905190419031902190119001908A01DB
:10134000EADEFB01719261925192419231922192B7
:10135000119201921F910F9106CF2F923F924F92BF
:101360005F926F927F928F929F92AF92BF92CF9235
:10137000DF92EF92FF92CF93DF93EB01DA01BF018F
:10138000F9017190619051904190319021901190AC
:101390000190F990E990D990C990B990A99099904D
:1013A00089907F246E245D244C243B242A24192414
:1013B0000824FB0109957D926D925D924D923D92BC
:1013C0002D921D920D92019721F7D9017D926D9278
:1013D0005D924D923D922D921D920D92DF91CF9193
:1013E000C2CE2F923F924F925F926F927F928F92D6
:1013F0009F92AF92BF92CF92DF92EF92FF92CF93E4
:10140000DF93EB01DA01BF01788069805A804B805D
:101410003C802D801E800F80FB010995F901F19021
:10142000E190D190C190B190A190919081907F2452
:101430006E245D244C243B242A2419240824F9908A
:10144000E990D990C990B990A99099908990F901A3
:10145000F192E192D192C192B192A1929192819234
:101460007D926D925D924D923D922D921D920D92C4
:10147000019751F6DF91CF9176CEF8E0E2E96DCF9A
:10148000F8E0E2E9AECFF8E0EBEA67CFF8E0EBEAAC
:10149000A8CFF8E0EBE861CFF8E0E0EAA2CF0F9246
:1014A00000240F932F933F934F935F930FB70F93A6
:1014B000EF93FF93EAB1FBB15191442735B124B1C9
:1014C000569578F400928C080092000806E10A957F
:1014D000F1F700C001E00093000803E000938C08DE
:1014E00004C00AE10A95F1F700002150304019F4D8
:1014F0000E946E5A0CC04F5F477011F4519102C0A8
:1015000000C000C00AE00A95F1F700C0D9CFFF91F2
:10151000EF910F910FBF5F914F913F912F910F91DD
:101520000F901895EF93FF93E0911027F0911127FA
:101530000995FF91EF911895EF93FF93E091122792
:10154000F09113270995FF91EF911895EF93FF9371
:10155000E0910C27F0910D270995FF91EF911895D7
:10156000EF93FF93E0910A27F0910B270995FF91E4
:10157000EF911895EF93FF93E0910827F0910927D9
:101580000995FF91EF911895EF93FF93E09106274E
:10159000F09107270995FF91EF911895EF93FF932D
:1015A000E0910E27F0910F270995FF91EF91189583
:1015B0003BB78BBFFB01879196913BBF08953BB72B
:1015C0008BBFCB0142E20D94F00F3BB70B0143E21E
:1015D0000D94F00F3BB78BBFCB0145E20D94F00F9C
:1015E0003BB746E208C02091CF0127FDFCCF222760
:1015F0002093CA0108954093CA0128ED31E0209359
:1016000034003093CB016091C4017091C501809189
:10161000C60199270895FC014093CA018491089559
:10162000CF93DF93EC01FC0170968BE0DF011D92FC
:101630008A95E9F782E08C83898783E08E8761E071
:10164000CE010196D0D4882361F061E0CE010696E8
:10165000CAD4882331F061E0CE010B96DF91CF919F
:10166000C2C480E0DF91CF910895CF93DF93FC0156
:10167000EB01809159228430C1F484899589A6892F
:10168000B789892B8A2B8B2B81F08181C9D3FE01ED
:1016900001900020E9F73197BF016C1B7D0B50E0F2
:1016A00040E0CE01DF91CF91A7C282E0DF91CF91E0
:1016B00008950F931F93CF93DF93FC01EB018A01F1
:1016C00080915922843099F484899589A689B789B3
:1016D000892B8A2B8B2B59F08181A2D350E040E0DB
:1016E000B801CE01DF91CF911F910F9185C282E0A9
:1016F000DF91CF911F910F910895CF93FC01C62FD9
:1017000080915922843011F584899589A689B789F9
:10171000892B8A2B8B2BD1F0818182D380916322FC
:1017200090916422FC01EF5BFF4F2081805C9F4F12
:10173000FC018081281728F48C2F62D380E0CF91A0
:10174000089526D3D3D48823B9F3F9CF82E0F7CF15
:10175000CF93DF93FC01809159228430B9F58489BD
:101760009589A689B789892B8A2B8B2B79F1818161
:1017700057D3209167228091632290916422FC01CB
:1017800027FF0BC0EF5BFF4F208130E0232B69F474
:10179000C0E08C2FDF91CF910895E05CFF4F208156
:1017A00031963081231B330BF1CFFC01EF5BFF4FF0
:1017B000D081805C9F4FFC01C081EAD2DC1740F3EE
:1017C00095D4C82F8111E5CFE3D2E3CFC2E0E1CFBA
:1017D000CF93DF93EC0180915922843089F48C8976
:1017E0009D89AE89BF89892B8A2B8B2B49F08981F2
:1017F00017D33ED3882321F0CE01DF91CF91A8CF1C
:10180000DF91CF910895CF93DF93FC01809159220E
:10181000843031F0CFEFDFEFCE01DF91CF9108952B
:1018200084899589A689B789892B8A2B8B2B91F37B
:101830008681F6D229D3882369F32091672280918B
:10184000632290916422FC01EF5BFF4F27FF1AC0D7
:10185000808190E0CFEFDFEF892B19F0C1D2C82F44
:10186000D0E0209167228091632290916422FC0154
:10187000EF5BFF4F27FF0EC0208130E0232B61F686
:10188000A0D2CACF805C9F4FDC018C919081891BD4
:10189000990BE0CF805C9F4FDC012C918081281B4D
:1018A000330BECCF0895CF92DF92EF92FF920F931C
:1018B0001F93CF93DF93EC01FFD2882399F0288107
:1018C00080915E2290915F222817190659F4809129
:1018D0005B22823209F47CC070F4803209F443C088
:1018E0008132E9F0DF91CF911F910F91FF90EF903E
:1018F000DF90CF9008958332A9F780915A228132E8
:1019000089F7F2D2DFD360915C22CE01DF91CF91D3
:101910001F910F91FF90EF90DF90CF90C3CF8091F8
:101920005A22813AF9F6E0D2A3D28823E9F3CC888F
:10193000DD88EE88FF888C2D63D28D2D61D28E2DAF
:101940005FD28F2D5DD2888D5BD2898D59D28A8DE1
:1019500057D21ED2DF91CF911F910F91FF90EF9040
:10196000DF90CF90AFC380915A22813209F0BACF75
:10197000BBD28AD2882339F133D2F82E31D2182F34
:101980002FD2082F2DD2402F50E070E060E0BA0136
:1019900055274427782B4F29512B4C8B5D8B6E8B11
:1019A0007F8B1ED2888F1CD2898F1AD28A8F09D240
:1019B00089D3CE01DF91CF911F910F91FF90EF90CE
:1019C000DF90CF906FCF809159228111D2CF8ACFF3
:1019D00080915A22813209F085CF86D273D38091CB
:1019E0005C2290915D22888B998BCE01DF91CF9103
:1019F0001F910F91FF90EF90DF90CF9053CFEF9218
:101A0000FF920F931F93CF93DF930F920F92CDB757
:101A1000DEB70AE512E278010F5F1F4FE1D1F7014F
:101A20008083F2E202361F07B1F70E94047144D2AC
:101A3000882379F080915A2290915B22953009F4A5
:101A400083C0A8F4292F2D7F213009F450C0992399
:101A500071F132D2882311F047D272D20F900F90D9
:101A6000DF91CF911F910F91FF90EF9008959830E3
:101A700009F47CC0993009F480C0963051F7805841
:101A8000823038F7AE014F5F5F4F60915E228091E8
:101A90005C2290915D220E94225F8C01892BC9F209
:101AA00023D2B80189819A81FAD08BD1D2CF8038E4
:101AB00089F0823871F680915E228F70B1D1E09109
:101AC0006522F0916622118112FB112710F980E046
:101AD000A7D106C010915722809156228111126021
:101AE00003D2812F8DD180E08BD152D171C0882358
:101AF00009F460C0823009F0ACCF80915C22811182
:101B000064C010915E221F7009F4A3CF812F88D189
:101B100080915B22833011F413D257C0E09165228B
:101B2000F091662281818B7F818384E8189FF00188
:101B30001124E755FD4D1082E0916522F091662257
:101B400080818E7F808341C0811183CF10915C2280
:101B50001F77CAD1B7D28CD18823E9F31093C3047D
:101B600082E0111183E08093592273CF803809F00D
:101B700070CFBAD180915822B7CF81116ACF8091AE
:101B80005C22823008F065CFAFD180915C228093D7
:101B9000582298D280915822882311F084E005C001
:101BA0008091C3048111FACF81E0809359220E9471
:101BB00000714FCF80915C22813009F04ACF81E0E3
:101BC000933009F080E08093562280E029D18CD1B7
:101BD00079D23FCF0895CF9380915922882351F035
:101BE000C091672280E01CD167D1811108DF8C2F62
:101BF000CF9116C1CF910895AF92BF92CF92DF924D
:101C0000FF920F931F93CF93DF936C01EB018A0137
:101C10006DD2F82E81112AC00115110539F0F80195
:101C200080819181C81BD90BC80ED91EB12CA12C63
:101C30002097E1F08091632290916422FC01EF5B98
:101C4000FF4F2081805C9F4FFC0180812817F0F0BE
:101C50009FD0C1DF01151105A1F0F80180819181AC
:101C6000A80EB91EA082B18285E0F82E8F2DDF91DB
:101C7000CF911F910F91FF90DF90CF90BF90AF90C9
:101C8000089534D28823A1F2F82EF0CFF601819185
:101C90006F01B6D02197FFEFAF1ABF0AC9CFDF920D
:101CA000EF92FF920F931F93CF93DF937C01EB0191
:101CB000809167228068B4D08091602290916122E7
:101CC0008C179D0770F0209709F462D0D12C2097D3
:101CD00051F4D11008C0D8D0882309F44CC080E05A
:101CE00007C0EC01F3CF80915922811109C082E035
:101CF000DF91CF911F910F91FF90EF90DF900895AA
:101D0000853011F483E0F4CFD7D0882311F081E03F
:101D1000EFCFBAD08111DFCFABD08823C1F22091B1
:101D200067228091632290916422FC01EF5BFF4F58
:101D300027FF0FC0008110E0209719F0083011052F
:101D400080F0DD24D3940830110509F0D12C20D087
:101D5000BECF805C9F4FDC010C918081081B110B72
:101D6000EBCFF70184914CD0FFEFEF1AFF0A2197D8
:101D70000F5F1F4FE1CF80915922882309F4B7CF1D
:101D8000853009F4BFCF98D0882309F4A4CFBFCF02
:101D9000E0916322F0916422EF5BFF4F8081E0913C
:101DA0006522F091662290E08283938380818D7911
:101DB0008083E0916322F0916422EF5BFF4F1082F9
:101DC0000895E0916522F091662280818D7980836B
:101DD000E0916322F0916422EF5BFF4F108208953F
:101DE0008091632290916422DC01AF5BBF4FEC9144
:101DF00021E02E0F2C93E80FF92FF11D808108951B
:101E00002091632230916422D901AF5BBF4FEC91E6
:101E100091E09E0F9C93E20FF32FF11D80830895B4
:101E2000282F2F70809367224091C6045091C704D9
:101E300094E8299FB001112490E1299F9001112479
:101E400087FF0FC066557D4D6093632270936422B7
:101E5000285F3F4F240F351F209365223093662261
:101E6000089568597D4D6093632270936422F2CF88
:101E7000809167228068D4DFE0916522F09166222C
:101E80008081869581700895809167228F77C8DF61
:101E9000E0916522F0916622808185FF0BC08281EE
:101EA0009381E0916322F0916422E05CFF4F808394
:101EB00081E0089580E00895809167228F77B0DFF8
:101EC000E0916522F0916622808184FF0BC08281BF
:101ED0009381E0916322F0916422E05CFF4F808364
:101EE00081E0089580E00895809167228F7798DFE0
:101EF000E0916522F091662280818D788083E09167
:101F00006522F0916622808181608083E091632266
:101F1000F0916422EF5BFF4F10828091672280680E
:101F20007FDFE0916522F09166228081816080836D
:101F3000E0916322F0916422EF5BFF4F10820895DD
:101F4000E0916522F0916622818184608183E09135
:101F50006522F09166228181807C803459F48091E1
:101F6000672280585DDFE0916522F09166228181D1
:101F70008460818308951F93CF93DF93C82F162F1A
:101F8000D42F4EDFE0916522F09166221182E0911C
:101F90006522F09166228C2F86FB880F880B80F9D2
:101FA00082708083E0916522F09166221183E09136
:101FB0006522F091662212821382809163229091B1
:101FC000642284839583CC0FCC0BCD23FC01E05C91
:101FD000FF4FC0838F5B9F4FFC01108281E0DF9138
:101FE000CF911F910895CF92DF92EF92FF920F93BE
:101FF0001F93CF93DF93D62E8C01C12CCD1002C03E
:1020000081E01AC0F801D081D11104C0C3940B5FE4
:102010001F4FF4CFE180F280848128E0823008F005
:1020200028E188E090E0C0E08E159F0570F08D2FCC
:102030008F70853070F080E0DF91CF911F910F910C
:10204000FF90EF90DF90CF900895CF5F880F991F9A
:10205000EBCFF1E4EF16F10470F7F8018381C22BA6
:10206000CF7E882321F0813079F0C06806C0C0643B
:102070004E2D6C2F80E88D0F7EDF4E2D6C2F8D2F17
:102080007ADF8111C3CFD7CFC06CF7CF90E080E06B
:10209000A091C604B091C7049C0144E0220F331FF5
:1020A0004A95E1F7A20FB31F19961C92E091C6045E
:1020B000F091C704E20FF31F11820196853091055C
:1020C00039F7089580915A2287FF0CC0DDDE811117
:1020D00078CE809159228111F9CF089580915922AB
:1020E0008823D9F3C5DE8823C9F352CE0F931F93FB
:1020F000CF93E091C604F091C704E05BFF4F0081ED
:102100001181C4E68091672287FF11C0B1DE811181
:1021100009C08091592281110CC082E004C0C22FF5
:102120008C01F0CF80E0CF911F910F910895ACDE2C
:10213000EECF8530C1F0E0916522F0916622818179
:1021400082FD13C0E091C604F091C704E05BFF4F2D
:10215000808191810817190719F32FEF2C0FC111F6
:10216000DECF84E0E0CF83E0DECF81E0DCCF63D060
:1021700069D0E0ECF4E081818E7F818380818F776C
:102180008083109262220895CF93DF93E0E4F0E021
:1021900014828481836084834ED054D0C0ECD4E018
:1021A00088818F77888388818068888310925922FC
:1021B00010925822109256221092572288818064E1
:1021C000888348E068E480E8D6DE48E068E480E0A0
:1021D000D2DE888580648887898181608983DF91E8
:1021E000CF910895CF93DF933FB7F894C0ECD1E03F
:1021F00022E02A87EAE1F0E0E491A0ECB4E0DA968C
:10220000EC93DA97EBE1F0E0E491DB96EC93DB976B
:102210001A868DEF94E28E7F16968D939C93179776
:1022200084E18C9318962C933FBF81E080936222C7
:10223000DF91CF91A9CFE0ECF4E0808583708087B7
:1022400011860895E0ECF4E08FEF8287848708958B
:102250001F920F920FB60F92112408B60F9218BE5C
:1022600009B60F9219BE0BB60F921BBE2F933F9368
:102270004F935F936F937F938F939F93AF93BF938E
:10228000EF93FF938091CA0487FF08C08091C80430
:1022900087FF04C080E88093CA049CDC8091CA0454
:1022A00086FF07C080E48093CA04109259220E94DE
:1022B000EF708091CA0485FF0CC080E28093CA044D
:1022C000809158228823A1F184E0809359220E94B2
:1022D000DE708091CA0484FF14C080E18093CA0438
:1022E00082E080935922109258221092C304CEDECD
:1022F00048E068E480E83FDE48E068E480E03BDEF8
:1023000069DCFF91EF91BF91AF919F918F917F9188
:102310006F915F914F913F912F910F900BBE0F9056
:1023200009BE0F9008BE0F900FBE0F901F9018951A
:102330008091C304811102C081E0C7CF83E0C5CF83
:102340000F931F93CF93DF9300D000D0CDB7DEB7AC
:10235000809120028068809320028091230280FF78
:10236000FCCF81E080932302A0911002B091110272
:10237000AE5BB109B7FF02C0B0E0A0E020E038EBEF
:102380004BE050E00E94E5726B837C838D839E83DB
:102390008C0122273327E0915C2AF0915D2A9781F6
:1023A00086814D815E81443F5140D8F4973019F4C5
:1023B00090E190934B29873019F480E180934A296A
:1023C00080914529882329F0E0913729F091382917
:1023D00019952696CDBFDEBFDF91CF911F910F914A
:1023E0000895973019F491E190934B29873019F4AF
:1023F00081E180934A2980914F258F5F6FE00E9491
:10240000C57290934F259111E4CF19830A83E0910F
:102410005229F091532942E0BE016F5F7F4F88E45B
:102420001995D7CF0895E0ECF0E080818068808333
:1024300008959091C100917881E009F080E00895BD
:10244000E0ECF0E08181816081830895E0ECF0E0D0
:102450008181806881830895862B8093C0000895D0
:10246000862B80618093C00008959C01205F3F4FC0
:10247000FC01019640814093C30082179307C1F786
:1024800008959C01205F3F4FFC0101964091C300DD
:10249000408382179307C1F708959C01205F3F4F47
:1024A000FC01019640814093C20082179307C1F757
:1024B00008959C01205F3F4FFC0101964091C200AE
:1024C000408382179307C1F70895EF92FF920F930D
:1024D0001F93CF93DF938C01EB017A0180E280930D
:1024E000C0008093C00000001092C00060E0211185
:1024F00064E080E0B1DF81E88093C1001092C40005
:10250000C701B3DF80E11092C2008150E1F7C8013A
:10251000C4DF89DF8EDF8111FDCFCE01CADFDF91FD
:10252000CF911F910F91FF90EF908ACFEF92FF9282
:102530000F931F93CF93DF93CDB7DEB7A097CDBF97
:10254000DEBF8C017B0180E28093C000000010920E
:10255000C0008093C00080E1E0E4F0E2DE0111966B
:1025600001900D928A95E1F720E0BE016F5F7F4FE9
:10257000CB01ABDF8091C10087FD2DC0CE0141961C
:1025800080DF5EDF80E28093C00000001092C00018
:1025900060E080E065DF81E88093C1001092C400B4
:1025A000CE01419662DF80E11092C2008150E1F7D6
:1025B000C70173DF38DF3DDF8111FDCFC80179DF4F
:1025C0003FDFA096CDBFDEBFDF91CF911F910F916E
:1025D000FF90EF9008953ADFD5CF1F920F920FB67C
:1025E0000F92112408B60F9218BE09B60F9219BEA9
:1025F0000BB60F921BBE2F933F934F935F936F9336
:102600007F938F939F93AF93BF93EF93FF93E0914B
:102610006125F0916225309709F01995FF91EF91AE
:10262000BF91AF919F918F917F916F915F914F91EA
:102630003F912F910F900BBE0F9009BE0F9008BED7
:102640000F900FBE0F901F901895FC01892B69F019
:1026500081E080831182128284E0848380915025FE
:10266000813011F48383089513820895CF93DF930B
:10267000FC01892BB9F080E28093C000A1E5B5E2AE
:1026800080E1ED0119928A95E9F784819281892B85
:102690009081892B8093C00082E192E18093612533
:1026A00090936225DF91CF9108952F923F924F92A0
:1026B0005F926F927F928F929F92AF92BF92CF92D2
:1026C000DF92EF92FF920F931F93CF93DF93CDB7DB
:1026D000DEB76097CDBFDEBF4B017A0169019C0177
:1026E0002F703327232B09F0B9C0C114D10441F452
:1026F000E1E5F5E220E1DF011D922A95E9F76F019E
:102700000F961C0184E0369427948A95E1F75401D2
:10271000B0E1AB0EB11C90E080E02601E0E14E0E8E
:10272000511C82159305F9F48091C10087FF99C06F
:102730008DDE8091C100807890E06096CDBFDEBFD5
:10274000DF91CF911F910F91FF90EF90DF90CF908D
:10275000BF90AF909F908F907F906F905F904F90C1
:102760003F902F9008953C01FFEF6F1A7F0A209150
:102770005025213009F04FC0892B91F580E1F401FB
:10278000DE01119601900D928A95E1F7C601AE0126
:102790004F5F5F4F48165906C9F421E0A801B70101
:1027A000CE01019692DE2614370441F480E1FE0149
:1027B0003196D60101900D928A95E1F7F0E1EF0E86
:1027C000F11C20E1A20EB11CC301ABCFDA012D91A7
:1027D000FC013191CF012327FA012083AD01DACF2B
:1027E00080E1F7017097DE01119601900D928A95B4
:1027F000E1F7C5014097AE014F5F5F4F8A159B051A
:1028000061F2DA012D91FC013191CF012327FA0108
:102810002083AD01F3CF80E1F5017097DE011196C1
:1028200001900D928A95E1F7C601AE014F5F5F4FAF
:102830008415950549F421E0A801B701CE01019660
:1028400044DE80E1F701B5CFDA012D91FC01319131
:10285000CF012327FA012083AD01EACF8EEB90E070
:102860006CCF90E080E069CF2F923F924F925F92C1
:102870006F927F928F929F92AF92BF92CF92DF9290
:10288000EF92FF920F931F93CF93DF93CDB7DEB7F5
:10289000AA97CDBFDEBF6B017A0139012801232B36
:1028A00041F4E1E5F5E220E1DF011D922A95E9F727
:1028B0003F011C01BFE02B0E311C24E0369427940D
:1028C0002A95E1F7FC01EF70FF27EFA3F8A7912C01
:1028D000812C9301205F3F4F2DA33EA35E0131E188
:1028E000A30EB11C8F70A82FB0E0A9A7BAA7FE0154
:1028F0003196E9A3FAA382149304F9F48091C100FC
:1029000087FFEAC0A3DD8091C100807890E0AA969D
:10291000CDBFDEBFDF91CF911F910F91FF90EF9060
:10292000DF90CF90BF90AF909F908F907F906F90EF
:102930005F904F903F902F90089594012F5F3F4FED
:102940002BA33CA3860180915025813009F080C0E3
:102950002216330621F48FA198A5892BD1F5A20167
:10296000B701C501E3DD80E1F501D60101900D92CB
:102970008A95E1F7C3018928C1F0C70140978E15F8
:102980009F05C1F0F8012191DC013D91CD01232784
:10299000D8012C938F01F3CFF8012191DC013D91F7
:1029A000CD012327D8012C938F01EDA1FEA1E817BB
:1029B000F90791F7EBA1FCA12E163F0609F445C0DB
:1029C000F0E1EF0EF11C20E1C20ED11C8BA09CA007
:1029D00092CFE9A1FAA120E111922A95E9F749A540
:1029E0005AA5B701CE0101960E94C873A201BE018B
:1029F0006F5F7F4FC5019ADD80E1F501D60101903F
:102A00000D928A95E1F7C30131E023163104C1F03C
:102A1000C70140978E159F05C1F0F8012191DC0197
:102A20003D91CD012327D8012C938F01F3CFF801DD
:102A30002191DC013D91CD012327D8012C938F01F9
:102A4000EDA1FEA1E817F90791F780E1F50115C0A6
:102A50002BA13CA12216330621F48FA198A5892B26
:102A6000E1F4A201B701C60161DDC301EDA1FEA140
:102A70008E179F0741F480E1F701D30101900D9279
:102A80008A95E1F79DCFF8012191DC013D91CD01BF
:102A90002327D8012C938F01E9CFD501E0E11D92C6
:102AA000EA95E9F749A55AA5B701C5010E94C8737F
:102AB000A201B501C6013ADDC301EDA1FEA18E1749
:102AC0009F0719F2F8012191DC013D91CD012327E7
:102AD000D8012C938F01F1CF81E090E0AFA1B8A590
:102AE000AB2B09F014CF90E080E011CF0F931F9330
:102AF000DA01FC01680F791F0FEF1FEF9801E6174D
:102B0000F70741F40D931D932D933C9313971F9159
:102B10000F9108958191082788E090E0A801417005
:102B200055273695279517950795452B41F040E297
:102B3000042743E8142748EB24274DEE3427019758
:102B400069F7DDCFEF92FF920F931F93CF93DF933F
:102B500000D00F92CDB7DEB78C017B01AE014F5F85
:102B60005F4FC4DFF801EE0DFF1D898180838A81EC
:102B700081838B8182838C818383C7010496249611
:102B8000CDBFDEBFDF91CF911F910F91FF90EF90EE
:102B90000895EF92FF920F931F93CF93DF937C01E1
:102BA000E901062F10E0F801E656FA4D4083A8012E
:102BB000B9010E942A52F701808187FF0EC0FE01F1
:102BC000ABE9B5E20C0F1D1F81919D91EF0121979B
:102BD00089278883E017F107B9F7DF91CF911F911B
:102BE0000F91FF90EF9008953F924F925F926F92F6
:102BF0007F928F929F92AF92BF92CF92DF92EF928D
:102C0000FF920F931F93CF93DF93382E4B013A011E
:102C1000E801A22EB12C27014A185B08E114F10447
:102C200011F5A50170E060E0C8010E94E27380E840
:102C300088836501FE01E40DF51D95012E193F09FC
:102C40004E145F04B0F55191CF010197D901A40D45
:102C5000B51DA555BA4D4C914527DC014C93BFEFEE
:102C60004B1A5B0AEDCFC701B5010E94D1720097E4
:102C700009F463C06701CA0CDB1CC81AD90A80E8D2
:102C8000F801EE0DFF1D8083D5CF51919F0121509A
:102C90003109DC01A40DB51DA554BA4D4C91452751
:102CA000D9014C93BFEF4B1A5B0A4E145F0468F3D3
:102CB00067012AE13216B1F08AE43816A9F180E002
:102CC000DF91CF911F910F91FF90EF90DF90CF9008
:102CD000BF90AF909F908F907F906F905F904F903C
:102CE0003F900895AE014E0D5F1D83019401BE011A
:102CF000C60184D77E01EC0CFD1CA601B701CE01F4
:102D00000E94D173B6016A197B096C0F7D1FA50162
:102D10008BE895E20E94C873A5016BE875E2C701D4
:102D20000E94C87381E0CCCFAE014E0D5F1D8401BF
:102D30009301BE01C601B9DCDDCFF801E40DF51D3C
:102D4000C5018E199F09B1CF8F929F92AF92BF920A
:102D5000CF92DF92EF92FF920F931F93CF93DF9367
:102D6000C82F6B014A01790158018A31B1F080E026
:102D7000CA3409F044C0EBE7F5E280E1DF011D92BF
:102D80008A95E9F78B019F014BEA55E2BF0180E18B
:102D900090E08BDC17E8D0E111C0EBE7F5E288E0CA
:102DA000DF011D928A95E9F78B019F014BEA55E2FD
:102DB000BF0188E090E022D71BE1D8E02BEB35E2A1
:102DC000412F6D2F8BEA95E2E4DE2BEA35E2412FAD
:102DD0006D2F8BEB95E2DDDE84012D2FA501AB2855
:102DE00059F44D2F50E070E060E08BE795E20E94CF
:102DF000E2732D2F4BE755E2B6018C2FF5DEDF9104
:102E0000CF911F910F91FF90EF90DF90CF90BF90E7
:102E1000AF909F908F900895CF93DF93FC01DB01DB
:102E2000480F591FE417F50719F4DF91CF91089562
:102E300081919D91EF01219789278883F3CFCF93CB
:102E4000DF93DC0150E040E0FB0131974E175F0754
:102E500040F0E80FF91F8081880F8083DF91CF91C8
:102E600008952D914F5F5F4FED0121973C91331FE6
:102E70003327331F220F232B2883E8CF6F927F92B3
:102E80009F92AF92BF92CF92DF92EF92FF920F93F9
:102E90001F93CF93DF93CDB7DEB7E097CDBFDEBFF3
:102EA000182F3B015A0169018A31A1F08A34C9F116
:102EB00080E0E096CDBFDEBFDF91CF911F910F91F3
:102EC000FF90EF90DF90CF90BF90AF909F907F905A
:102ED0006F90089528E0E22EF12C3BE1932EA7019C
:102EE00070E060E0CE0101960E94E273A70170E0FD
:102EF00060E0CE0181960E94E2731A31C1F01A346B
:102F0000B9F683019E012F5D3F4F41E050E04C0F29
:102F10005D1F4E0D5F1DBE016F5F7F4FC701C5DB9B
:102F200015C080E1E82EF12C97E8992ED8CF8301C7
:102F30009E012F5D3F4F41E050E04C0F5D1F4E0D55
:102F40005F1DBE016F5F7F4FC70158D661E070E023
:102F50006C0F7D1F6E0D7F1DA701CE0101960E9493
:102F6000C873A701BE016F5F7F4FC5010E94C87380
:102F70001981B701C50163DF17FF07C0F70131975A
:102F8000EA0DFB1D808189258083A701B501C6015B
:102F90000E94C873F5011081B701C60150DF17FF09
:102FA00009C0F1E0EF1AF108F601EE0DFF1D808176
:102FB0009826908281E07DCF2F923F924F925F9230
:102FC0006F927F928F929F92AF92BF92CF92DF9239
:102FD000EF92FF920F931F93CF93DF93CDB7DEB79E
:102FE000E197CDBFDEBF89AB3B01BA015901480172
:102FF00017017A01E20EF31EA901C7010E94C873EE
:1030000089A98A3129F08A3409F459C010E07DC0B9
:1030100008E01A2D198E1A8E86E1FE017B96DF01DB
:10302000982F1D929A95E9F719821A827897DF01F5
:103030001D928A95E9F79E012F5F3F4FAE01475ED3
:103040005F4FB30189A91ADF95013327402E512C18
:10305000AA2049F08A2D602F0E94C572911103C0E9
:103060002C153D05A0F511E01A0D2E0D3F1D80E831
:10307000F9018083212F30E0812F602F0E94C572DB
:1030800091111FC02C153D05E0F0C9018419950967
:10309000A201BE016F5F7F4F8E0D9F1DBDDEB9A9DE
:1030A000BA31E9F0BA3409F0B1CF812F90E0A7012D
:1030B000480F591F83019401B701F7DA19C000E1E5
:1030C000A8CF1F5F2E0D3F1DD9011C92D3CFC90180
:1030D00084199509A201BE01675E7F4FDDCF812F64
:1030E00090E0A701480F591F83019401B70186D5CD
:1030F00011E0892B09F410E02114310409F486CF82
:10310000A201B401C1010E94C873812FE196CDBF15
:10311000DEBFDF91CF911F910F91FF90EF90DF9075
:10312000CF90BF90AF909F908F907F906F905F9067
:103130004F903F902F900895CF92DF92EF92FF92A1
:103140000F931F93D12CC12C37DF1F910F91FF904C
:10315000EF90DF90CF900895CF92DF92EF92FF92A1
:103160000F931F93CF93DF937C01EB0164177507D7
:1031700030F14830510569F56B0188E0C81AD10873
:10318000CE0DDF1D0AED15E29601AE016AEE75E285
:103190008AE1DADD88E0FE01ABE7B5E201900D924D
:1031A0008A95E1F7B7016C0D7D1D48E050E08BE793
:1031B00095E20E94BB739C0181E0232B09F080E023
:1031C000DF91CF911F910F91FF90EF90DF90CF9003
:1031D00008954031510599F76B0180E1C81AD10873
:1031E000CE0DDF1D0AED15E29601AE016AEE75E225
:1031F0008AE4AADD80E1FE01ABE7B5E201900D9221
:103200008A95E1F7B7016C0D7D1D40E150E0CFCF0D
:10321000AF92BF92CF92DF92EF92FF920F931F93E4
:10322000CF93DF938C016B017A0188E0F801A3E76B
:10323000B5E201900D928A95E1F788E0F801ABE6DE
:10324000B5E201900D928A95E1F788E0F801A3E6D6
:10325000B5E201900D928A95E1F7EBE7F5E288E09F
:10326000DF011D928A95E9F75B01A40EB51ECA0124
:1032700087709927EA01892B51F0C87F2896AE0103
:103280004E195F0970E060E0C5010E94E273A6017B
:103290004C0F5D1F2BE735E2B601CE01AFD4289766
:1032A000F601EC0FFD1F84E0ABE7B5E201900D9253
:1032B0008A95E1F784E0EBE7F5E2D50101900D9204
:1032C0008A95E1F7C7010496DF91CF911F910F9185
:1032D000FF90EF90DF90CF90BF90AF900895AF92A6
:1032E000BF92CF92DF92EF92FF920F931F93CF93F3
:1032F000DF936C01EB015A016417750708F45BC09A
:1033000088E0EAEEF5E2A3E7B5E201900D928A9536
:10331000E1F788E0EAEEF5E2ABE6B5E201900D9266
:103320008A95E1F788E0EAEEF5E2A3E6B5E20190DE
:103330000D928A95E1F7EBE7F5E288E0DF011D9257
:103340008A95E9F7CB01877099277B01892B79F062
:10335000B8EFEB2288E0E80EF11CA701461B570BE3
:1033600070E060E0C6018C0F9D1F0E94E273A60111
:103370004E0D5F1D0AEE15E22BE735E2B601C701DF
:103380003DD4F7013897EC0DFD1D84E0ABE7B5E2C5
:1033900001900D928A95E1F7CE018A199B0944E0CC
:1033A00050E06BE775E28C0D9D1D0E94BB739C0184
:1033B00081E0232B09F080E0DF91CF911F910F91E5
:1033C000FF90EF90DF90CF90BF90AF9008952F9235
:1033D0003F924F925F926F927F928F929F92AF92A5
:1033E000BF92CF92DF92EF92FF920F931F93CF93F2
:1033F000DF93CDB7DEB76097CDBFDEBF4C011B01B9
:103400004D835E8329833A832801ED86FE862DB79E
:103410003EB72F87388BDC0112962D913C91CB0162
:103420000197820F931FB9010E94D1726F83788731
:10343000C101B9010E94D17289879A87EDB7FEB7A1
:10344000E21BF30BEDBFFEBF8DB79EB701966C017B
:10345000ADB7BEB7A21BB30BADBFBEBFEDB7FEB7D6
:1034600031965F01A9010115110541F470E060E09A
:10347000CF010E94E273712C612C43C0B801CF01CF
:103480000E94C873F8CF93012F5F3F4F2B833C837B
:10349000D40112960D911C918091CB25813009F0B9
:1034A000C4C06114710409F069C0A80170E060E053
:1034B000C6010E94E273A8016D817E81C6010E944F
:1034C000C8730A0D1B1DA601C5018017910709F0DD
:1034D0004BC0D40112968D919C911397689EB001B8
:1034E000699E700D789E700D1124E981FA816E0F2E
:1034F0007F1FED91FC914D855E85C60119956B800E
:103500007C802F8138856216730609F0BCCF411488
:10351000510441F0D40112964D915C91B501C20164
:103520000E94C87381E090E0E985FA85EF2B11F4E1
:1035300090E080E02F8538892DBF3EBF6096CDBFDB
:10354000DEBFDF91CF911F910F91FF90EF90DF9041
:10355000CF90BF90AF909F908F907F906F905F9033
:103560004F903F902F900895DA012D91FC013191F9
:10357000CF012327FA012083AD01A7CFC301019713
:10358000809F7001819FF00C909FF00C1124298185
:103590003A812E0D3F1D2B873C87E00EF11E8D8159
:1035A0009E81E80EF91EA985BA85A801AB2B39F1D9
:1035B000EF81F8852B813C81E217F30701F570E07C
:1035C00060E0C6010E94E273C101B8010E94D1729D
:1035D000AC016B857C85C6010E94C8730E0D1F1D52
:1035E000F601E016F10609F474CFDF012D91CD014B
:1035F000D7013D917D0123272083FC01F2CF6B850C
:103600007C85C6010E94C8730E0D1F1DF601E016D1
:10361000F10609F45ECFDF012D91CD01D7013D9177
:103620007D0123272083FC01F2CF609E7001619E03
:10363000F00C709EF00C1124ED81FE81EE0EFF1E49
:1036400029853A85A801232B89F08F819885AB8144
:10365000BC818A179B0751F470E060E0C6010E94AC
:10366000E273C101B8010E94D172AC01B701C60179
:103670000E94C8730A0D1B1DA601C5018017910782
:1036800049F5D40112968D919C911397689EB001D3
:10369000699E700D789E700D1124E981FA816E0F7C
:1036A0007F1FED91FC914D855E85C6011995D40172
:1036B00012964D915C91649EB001659E700D749E52
:1036C000700D1124E981FA816E0F7F1FC5010E94E0
:1036D000C87315CFDA012D91FC013191CF01232759
:1036E000FA012083AD01CACF2F923F924F925F9291
:1036F0006F927F928F929F92AF92BF92CF92DF9202
:10370000EF92FF920F931F93CF93DF93CDB7DEB766
:103710002E97CDBFDEBF1C012B013A0129833A83CE
:103720004801EB86FC862DB73EB72D873E87DC012E
:1037300012962D913C91CB010197820F931FB901F5
:103740000E94D1726B837C83C201B9010E94D17245
:103750008D839E83EDB7FEB7E21BF30BEDBFFEBF7B
:103760008DB79EB701966C01ADB7BEB7A21BB30B68
:10377000ADBFBEBFEDB7FEB731967F01A901011500
:10378000110541F470E060E0CF010E94E27310E0A7
:1037900000E042C0B801CF010E94C873F8CFD10148
:1037A0001296AD90BC901397A09EB001A19E700D93
:1037B000B09E700D1124F8013196EF83F887809147
:1037C000CB25813009F005C129813A81620F731F31
:1037D000ED91FC914B855C85C6011995D10112963E
:1037E0004D915C910115110509F07BC0ED81FE81C1
:1037F000EF2B09F04EC0B601C3010E94C873D1017E
:1038000012962D913C912E0D3F1DB301C7018217D9
:103810009307A9F50F811885EB81FC810E171F070F
:1038200009F0BDCF8114910441F0D10112964D9160
:103830005C91B701C4010E94C87381E090E0ED8102
:10384000FE81EF2B11F490E080E02D853E852DBFA9
:103850003EBF2E96CDBFDEBFDF91CF911F910F915E
:10386000FF90EF90DF90CF90BF90AF909F908F90A0
:103870007F906F905F904F903F902F900895DB0165
:103880004D91FC015191CF014527FB014083BD01C2
:10389000BECF2B813C812130310509F068C0C201C7
:1038A000BA010E94D172AC01B601C3010E94C87373
:1038B000D10112966D917C91C2010E94D1728E0D40
:1038C0009F1DB30197012817390709F4A3CFDB0126
:1038D0004D91F90151919F014527FB014083BD01A5
:1038E000F2CF2D813E81232B09F441C08B819C8135
:1038F000AF81B8858A179B07D1F5049F9001059F7A
:10390000300D149F300D1124C201BA010E94D172F2
:10391000AC01B601C301820F931F0E94C873F1016D
:103920006281738101501109069FF001079FF00D1C
:10393000169FF00D112429813A812E0F3F1FE60FAB
:10394000F71F8F01060D171DC2010E94D172820F51
:10395000931F8217930709F45DCFD8014D91F901A8
:1039600051919F014527F80140838D01F2CF049FBB
:10397000C001059F900D149F900D1124B601860D76
:10398000971D0E94C873D10112962D913C91015050
:103990001109029FF001039FF00D129FF00D1124F9
:1039A00089819A818E0F9F1FE20FF31FBF01660D61
:1039B000771D280F391F2817390709F42BCFDB0192
:1039C0004D91FC015191CF014527FB014083BD0181
:1039D000F2CF9301260F371F29873A878D819E8169
:1039E000892BE1F1AB81BC81EF81F885AE17BF0770
:1039F000A9F5A50170E060E0C6010E94E273C20172
:103A0000B5010E94D172AC0169857A85C6010E9418
:103A1000C873D101ED91FC914B855C85B601898518
:103A20009A851995F10122813381029FF001039F4C
:103A3000F00D129FF00D1124BF01660D771D2E0DA4
:103A40003F1DC7012817390779F4D10112964D910E
:103A50005C91B601C7010E94C873DCCE29813A810E
:103A6000620F731FA501D2CFDB014D91FC01519173
:103A7000CF014527FB014083BD01E4CF8F929F9288
:103A8000AF92BF92EF92FF920F931F93CF93DF936A
:103A900000D00F92CDB7DEB7780180905020909083
:103AA0005120A0905220B090532089829A82AB82FC
:103AB000BC8289019A01AB01BC01CE01019687DC71
:103AC0002496CDBFDEBFDF91CF911F910F91FF9064
:103AD000EF90BF90AF909F908F9008958F929F929C
:103AE000AF92BF92EF92FF920F931F93CF93DF930A
:103AF00000D00F92CDB7DEB778018090542090901F
:103B00005520A0905620B090572089829A82AB828F
:103B1000BC8289019A01AB01BC01CE010196E4DDB2
:103B20002496CDBFDEBFDF91CF911F910F91FF9003
:103B3000EF90BF90AF909F908F9008958F929F923B
:103B4000AF92BF92EF92FF920F931F93CF93DF93A9
:103B500000D00F92CDB7DEB77801809058209090BA
:103B60005920A0905A20B0905B2089829A82AB8223
:103B7000BC8289019A01AB01BC01CE01019627DC10
:103B80002496CDBFDEBFDF91CF911F910F91FF90A3
:103B9000EF90BF90AF909F908F9008958F929F92DB
:103BA000AF92BF92EF92FF920F931F93CF93DF9349
:103BB00000D00F92CDB7DEB7780180905C20909056
:103BC0005D20A0905E20B0905F2089829A82AB82B7
:103BD000BC8289019A01AB01BC01CE01019684DD52
:103BE0002496CDBFDEBFDF91CF911F910F91FF9043
:103BF000EF90BF90AF909F908F9008958F929F927B
:103C0000AF92BF92EF92FF920F931F93CF93DF93E8
:103C100000D00F92CDB7DEB77801809060209090F1
:103C20006120A0906220B090632089829A82AB824A
:103C3000BC8289019A01AB01BC01CE010196C7DBB0
:103C40002496CDBFDEBFDF91CF911F910F91FF90E2
:103C5000EF90BF90AF909F908F9008958F929F921A
:103C6000AF92BF92EF92FF920F931F93CF93DF9388
:103C700000D00F92CDB7DEB778018090642090908D
:103C80006520A0906620B090672089829A82AB82DE
:103C9000BC8289019A01AB01BC01CE01019624DDF1
:103CA0002496CDBFDEBFDF91CF911F910F91FF9082
:103CB000EF90BF90AF909F908F900895CF93DF9338
:103CC000EB012097D9F0AB01495F5F4F403422E010
:103CD0005207D8F423E0569547952A95E1F7BC01A1
:103CE00084E096E20E94C873C13482E0D80710F0E5
:103CF000C0E4D2E0C0930226D0930326809102262E
:103D000090910326DF91CF91089548E450E0E7CFEA
:103D1000089580E00C94513808956F927F928F92AD
:103D20009F92AF92BF92CF92DF92EF92FF920F934A
:103D30001F93CF93DF93CDB7DEB7A097CDBFDEBF84
:103D40007C01CB01009709F47DC0D7012C91243C64
:103D500009F078C04B01B2E08B1A91085401EFE0F2
:103D6000AE22BB24A114B10409F07EC020E1E8E634
:103D7000F0E2DE01519601900D922A95E1F767017C
:103D8000F2E0CF0ED11C3701660E771E0AEE15E267
:103D90009E012F5E3F4FA601B301C4010E9434145F
:103DA000A401B301C6010E94D173D70111966C9191
:103DB00080910620681739F180919B2610D68E30AD
:103DC00011F520E130E0AE014F5F5F4FF7016181F7
:103DD00080919B261FD7F601AE014D5F5F4F22E118
:103DE000E20EF11C9191DA018D91AD019F012150FC
:103DF00031099827D9019C93EE15FF0599F782E1C7
:103E0000A82EB12C1EC0F70183889488C588D68857
:103E100063E170E0C7010E94A215D70153968C910F
:103E2000539788120EC054968C915497981209C0DB
:103E300055968C915597C81204C056968C91D816F9
:103E4000F1F2C501A096CDBFDEBFDF91CF911F91EA
:103E50000F91FF90EF90DF90CF90BF90AF909F9029
:103E60008F907F906F9008955B01EBCF0F931F931E
:103E7000CF93DF93EC01CB01009709F44CC028816C
:103E80002F3A19F02BE020930520BC01CE0145DF2D
:103E90008C01AC01BE0183EE0E94294F8091052068
:103EA000843109F451C0C0F48E3009F443C058F491
:103EB0008C30B1F18D30C9F18B3039F181EC8883D0
:103EC00081E090E026C08031D1F18231B9F7B801AC
:103ED000CE010E94734D1DC08731D9F148F4853160
:103EE000C1F1863159F7B801CE010E944D4811C089
:103EF0008831A1F1893111F7B80161507109CE0102
:103F000001960E94AD3390E004C0B801CE010E943A
:103F1000604C10924C26DF91CF911F910F91089524
:103F2000B801CE010E94984CF4CFB801CE010E9496
:103F3000B84CEFCFB801CE010E94242BEACFB801D4
:103F4000CE010E94C24CE5CFB801CE010E94624E64
:103F5000E0CFB801CE010E945F48DBCFCE010E94C6
:103F60009333D7CFCF92DF92EF92FF920F931F93AD
:103F7000CF93DF93EC019B01295F3F4FB90143E0F1
:103F8000769567954A95E1F728303105E0F4409140
:103F9000022650910326495F5F4F33E056954795BF
:103FA0003A95E1F764E076E20E94C87380910226B8
:103FB00090910326DF91CF911F910F91FF90EF9089
:103FC000DF90CF90089588818093042020313105BF
:103FD000A0F199819F3A89F5803911F081113CC097
:103FE0008B01015011096E018FEFC81AD80AA80180
:103FF000B601CE010E94D173B801CE0137DF8C012A
:10400000892BA1F08881FE01E00FF11F80837801E8
:1040100081E0E81AF108A701B601CE010E94D17330
:10402000CE0DDF1D81E988830F5F1F4FC80123E09C
:10403000880F991F2A95E1F7BDCF2832310550F03E
:10404000803911F0811108C09A81911103C09B81C0
:10405000992329F0882329F0CE0108DFE8CF8111C8
:104060000DC0CE010E94E83A009741F098278927B9
:1040700098278883998380E190E09CCF8C81082FDA
:1040800010E099819883882341F0A801BE016B5FFD
:104090007F4FCE0101960E94D173B8016F5F7F4FB1
:1040A000CE01E4DE8C01892B09F4C0CF809104207D
:1040B000882309F4BBCF8881FE01E00FF11F8083C4
:1040C000780181E0E81AF108BE016F5F7F4FA70118
:1040D000A4CF8F929F92AF92BF92CF92DF92EF9236
:1040E000FF920F931F93CF93DF930F920F92CDB751
:1040F000DEB78C017B014B0127E0820E911CA8E406
:10410000CA2ED12C80E4881682E0980630F464012F
:10411000B3E0D694C794BA95E1F7809102269091C6
:104120000326009761F08E159F0549F4A60164E00F
:1041300076E2C8010E94BB73892B09F444C0B70121
:10414000C801BCDD809302269093032698E0C9162F
:10415000D10408F494C0F8018181803911F08111F3
:1041600093C0F80182818F3A09F08EC0838181115A
:104170008BC08481811188C0A580B12CC6010897AD
:10418000A816B90629F00197A816B90609F07CC04F
:104190008091052094EF980F933050F0982F9D7FD9
:1041A000903131F0843121F08851823008F06CC0B8
:1041B00021E0A601B8018091CF250E947952892B78
:1041C00091F4F12CE12CC7010F900F90DF91CF916A
:1041D0001F910F91FF90EF90DF90CF90BF90AF9025
:1041E0009F908F900895F8019080828180838581CF
:1041F000E82EF12C882341F0A701B8016A5F7F4FB8
:10420000C80101960E94D173B7016F5F7F4FC8014B
:104210002DDE0097B1F2F80140819082F9E0CF1ACB
:10422000D108AC14BD0469F49C012F5F3F4F800F8F
:10423000911F51E9FC015083F801E20FF31F408305
:10424000C901AC014F5F5F4FB8018091CF250E943B
:104250003053BC01F3E0660F771FFA95E1F7C80110
:104260000F900F90DF91CF911F910F91FF90EF90E2
:10427000DF90CF90BF90AF909F908F901FCDF3E0D5
:10428000CF16D10408F499C1F80122812F3A09F020
:104290003FC08091052094EF980F933048F0982FFD
:1042A0009D7F903129F0843119F08851823080F55A
:1042B000F8018081918189839A8321E0A601B80168
:1042C0008091CF250E9479527C01892B09F47BCF04
:1042D000F2E0EF1AF108680122E0C20ED11CA7013A
:1042E000B601C8010E94D173B701C801BFDD7C01CE
:1042F000009729F0AC01B801C6010E94D1738981F1
:104300009A81F80180839183A7014E5F5F4F9CCF14
:10431000F6E0CF16D10408F450C1F801908190392D
:1043200011F09111B3C1F80181818F3A09F058C0A1
:10433000211156C08381811153C08481A601485048
:1043400051098417150609F04BC08091052034EF00
:10435000380F333048F0382F3D7F303129F0843129
:1043600019F088518230E0F521E0A601B801809172
:10437000CF250E947952892B09F423CFF80181813E
:1043800080838481E82EF12C882341F0A701B801B5
:104390006B5F7F4FC80101960E94D173B7016F5FB9
:1043A0007F4FC80163DD7C01892B09F40ACFF80136
:1043B0008081EE0DFF1D80836701F1E0CF1AD108E7
:1043C000B8016F5F7F4FA601C8010E94D173F80149
:1043D000EC0DFD1D81E98083A7014D5F5F4F34CF58
:1043E00088E0C816D10408F4E8C0903911F09111A2
:1043F00052C1211150C1F801838181114CC18481C6
:104400009601285031098217130609F044C1909390
:104410000420A40173E0569547957A95E1F720E0D2
:10442000B8018091CF250E947952BC01E3E0660F6C
:10443000771FEA95E1F7C80195DD07968830910569
:1044400008F4BFCEAC0163E0569547956A95E1F755
:10445000FBCE80E9C0C08330F1F480910420F801E4
:1044600080838FEA8183F4E0EF16F10450F0A70116
:1044700043505109B8016D5F7F4FC80105960E94F6
:10448000D173F801128213828BEF8E0D8483F2E0D8
:10449000EF0EF11CC1C0823009F0BEC08091042033
:1044A000F801808382818183A70143505109B801BB
:1044B0006D5F7F4FC80105960E94D173F80112828B
:1044C00013828BEF8E0D8483A7C0409708F4CFC072
:1044D00022E0E21AF108CBC0F5E0CF16D104B8F122
:1044E00080911520833011F0883089F5F8018081A2
:1044F000803E69F1863259F1823549F1843539F1CE
:10450000B701C8010E946239811121C021E0A601D2
:10451000B8018091CF250E9479528330910558F0DF
:10452000BC0162507109C80102960E94604CAC0146
:10453000892B09F0EACEB701C8010E947439BC0189
:10454000089708F48CCE695F7F4F687F88CEF8E0CB
:10455000EF16F10480F380911520833011F088303C
:1045600051F7F8018081803E31F3863221F38235A4
:1045700011F3843501F3B701C8010E94623981113A
:10458000DACFB601C8010E94604CAC01892B99F2C8
:104590005BCEF9E0CF16D10480F081110EC0F80196
:1045A000838181110AC08481811107C02581C601E0
:1045B00009972817190609F47FC0B601C8010E949F
:1045C000CD3A8093CD25882309F486CF813009F038
:1045D00040CFF801828180930420F801808191818D
:1045E00089839A8320E0A601B8018091CF250E949B
:1045F00079527C01892B09F4E6CD8091CD2581305B
:1046000009F029CFF2E0EF1AF108A701B8016E5FB7
:104610007F4FC8010E94D173B70183E0660F771FF7
:104620008A95E1F7C8019EDC07967C0123E0F694A9
:10463000E7942A95E1F72091CD252130C1F088300B
:104640009105A8F06801CE0CDF1CF6012081222321
:1046500009F43BCFA701B801C80101960E94D173AC
:10466000F6018081F8018083F1E0EF1AF108E1148E
:10467000F10409F444CEA701B801C80102963DCE69
:1046800029E0C216D10408F08ACF97CF88E0C81677
:10469000D10408F492CFF8018181803909F079CFF3
:1046A00083818111EDCF84818111EACF2581C601FB
:1046B00008972817190621F721E0A601B801809173
:1046C000CF250E9479527C01892B09F47ACDF8011B
:1046D000B080818180930420F1E0EF1AF108680135
:1046E0002FEFC21AD20AA701B601C8010E94D173E6
:1046F000B70143E0660F771F4A95E1F7C80132DC46
:1047000007968830910508F45CCD33E0969587953F
:104710003A95E1F77C01EFEFEE1AFE0AA701B80126
:10472000C6010E94D173F801B082A7018DCD80E04F
:104730000E94732F8BE08093052008950E945F38BC
:104740000C946D38E5ECF6E284E3DF011D928A9566
:10475000E9F7E0EBF6E285E1DF011D928A95E9F7E2
:10476000ECE9F6E284E1DF011D928A95E9F7E0E8E1
:10477000F6E28BE1DF011D928A95E9F7EFE6F6E2BA
:1047800080E1DF011D928A95E9F710929B268FEF59
:1047900080937F26CCDFD2CF1F93CF93DF93182F48
:1047A000D62FC42FCFDF8AE0809305201092CC252E
:1047B000D1506C2F812FD23058F40E94B351C111C7
:1047C0000E94874F1092D825DF91CF911F910895B5
:1047D0000E946351F4CF40E060E088E1DDCF41E02A
:1047E00060E088E1D9CF40E061E086E1D5CF41E0EB
:1047F00061E086E1D1CF40E061E088E1CDCF41E0EA
:1048000061E088E1C9CF40E062E088E1C5CF41E0E6
:1048100062E088E1C1CF0C94EA510C94F3516091AD
:1048200000277091012745E150E080EB96E20C945F
:10483000324F1F93CF93DF93CDB7DEB76597CDBFD0
:10484000DEBF182F8091B026681700F56430F0F4B1
:10485000E62FF0E0EE0FFF1FE055F94D65857685F8
:1048600045E150E0CE0101960E942B4F8A859B8541
:10487000163019F1A8F4133099F158F4113069F198
:104880008C81123059F18A81112341F190E080E04E
:1048900014C088859985143081F48E819F810DC064
:1048A0008A899B89193049F078F48C859D85173069
:1048B00021F088899989183049F76596CDBFDEBF08
:1048C000DF91CF911F9108958E859F851A30A9F3AE
:1048D0008C899D891B3089F3D9CF8B8190E0EDCFF6
:1048E0008D81FCCFCF92DF92EF92FF921F93CF93F7
:1048F000DF93CDB7DEB76597CDBFDEBF182F7A0146
:104900008091B0266817D8F46430C8F4C62ED12C34
:10491000CC0CDD1CF601E055F94D6585768545E149
:1049200050E0CE0101960E942B4F1630E9F1B8F409
:104930001330A9F178F4112319F1123071F1659651
:10494000CDBFDEBFDF91CF911F91FF90EF90DF9041
:10495000CF900895143029F5EE82FF8212C01930ED
:1049600049F138F4173019F1183049F7E88AF98A13
:1049700008C01A3011F11B3011F7EC8AFD8A01C012
:10498000EA82F601E055F94D6585768545E150E00E
:10499000CE0101960E94324FD2CFEC82F2CFED824F
:1049A000F0CFE886F986EDCFEA86FB86EACFEC8683
:1049B000FD86E7CFEA8AFB8AE4CFEE86FF86E1CF69
:1049C000682F81E036CFCF93C62F633028F4F8DF0D
:1049D000982F81E0C91708F080E0CF9108951F93C8
:1049E000CF93DF9300D0CDB7DEB7162F8430D0F44D
:1049F0006330C0F4682F84E01CDFBC0143E050E06A
:104A0000CE0101960E942B4FE1E0F0E0EC0FFD1F7C
:104A1000E10FF11D80812396CDBFDEBFDF91CF91E5
:104A20001F91089580E0F7CF60E080E0D8DF8470C8
:104A3000089560E080919B26D2DF82700895EF9206
:104A4000FF920F931F93CF93DF9300D0CDB7DEB7C4
:104A5000162F042F8430D8F46330C8F4682F84E014
:104A6000E8DE7C0143E050E0BC01CE0101960E94EB
:104A70002B4FE1E0F0E0EC0FFD1FE10FF11D008393
:104A800043E050E0B701CE0101960E94324F2396D9
:104A9000CDBFDEBFDF91CF911F910F91FF90EF90BF
:104AA00008951F93CF93DF9300D0CDB7DEB7162FB5
:104AB0008430D0F46330C0F4682F88E0BADEBC01E3
:104AC00043E050E0CE0101960E942B4FE1E0F0E080
:104AD000EC0FFD1FE10FF11D80812396CDBFDEBFDE
:104AE000DF91CF911F91089580E0F7CFEF92FF9271
:104AF0000F931F93CF93DF9300D0CDB7DEB7162F60
:104B0000042F8430D8F46330C8F4682F88E091DE35
:104B10007C0143E050E0BC01CE0101960E942B4F86
:104B2000E1E0F0E0EC0FFD1FE10FF11D008343E039
:104B300050E0B701CE0101960E94324F2396CDBFBF
:104B4000DEBFDF91CF911F910F91FF90EF900895FD
:104B50000F931F93CF93DF9300D0CDB7DEB7082F0D
:104B6000162F843048F080E02396CDBFDEBFDF9162
:104B7000CF911F910F91089526DF8823A1F3602F15
:104B800089E057DEBC0143E050E0CE0101960E946F
:104B90002B4FE1E0F0E0EC0FFD1FE10FF11D8081F4
:104BA000E3CFDF92EF92FF920F931F93CF93DF93A8
:104BB00000D0CDB7DEB7082F162FD42E8430E0F406
:104BC00002DF8823C9F0602F89E033DE7C0143E0F7
:104BD00050E0BC01CE0101960E942B4FE1E0F0E0D5
:104BE000EC0FFD1FE10FF11DD08243E050E0B70153
:104BF000CE0101960E94324F2396CDBFDEBFDF91DA
:104C0000CF911F910F91FF90EF90DF900895682F43
:104C10008BE00FCECF92DF92EF92FF920F931F9314
:104C2000CF93DF930F920F92CDB7DEB7082F162FD9
:104C30006A0179018430D8F4C6DE8823C1F089E1A5
:104C4000E816F104A0F4802FE2DF612F70E0660F18
:104C5000771F680F791F42E050E0CE0101960E9455
:104C60002B4F69817A81A701C6010E942B4F0F90BB
:104C70000F90DF91CF911F910F91FF90EF90DF90F8
:104C8000CF900895CF92DF92EF92FF921F93CF9330
:104C9000DF930F920F92CDB7DEB7162F6A0179011D
:104CA0008430C0F46330B0F42931310598F4AFDFBB
:104CB000612F70E0660F771F680F791F42E050E0A8
:104CC000CE0101960E942B4F69817A81A701C6010E
:104CD0000E94324F0F900F90DF91CF911F91FF9064
:104CE000EF90DF90CF900895462F50E0682F82E03C
:104CF000F9CD1F93CF93DF9300D00F92CDB7DEB7DE
:104D0000162F843098F4682F85E093DDBC0144E0D1
:104D100050E0CE0101960E942B4FFE01319680E0BB
:104D20009191911721F08F5F8430D1F784E0249620
:104D3000CDBFDEBFDF91CF911F910895CF93DF9359
:104D400000D00F92CDB7DEB7682F843030F02496B4
:104D5000CDBFDEBFDF91CF91089585E06ADDBC0154
:104D600044E050E0CE0101960E942B4FFE013196A7
:104D700080E091919F3F59F38F5F8430D1F7E7CF67
:104D8000EF92FF920F931F93CF93DF9300D00F9278
:104D9000CDB7DEB7162F042F8430D8F46430C8F4B2
:104DA000682F85E046DD7C0144E050E0BC01CE0187
:104DB00001960E942B4FE1E0F0E0EC0FFD1FE10FA8
:104DC000F11D008344E050E0B701CE0101960E943E
:104DD000324F2496CDBFDEBFDF91CF911F910F914F
:104DE000FF90EF9008951F93CF93DF93CDB7DEB779
:104DF0002897CDBFDEBF162F843008F56430F8F455
:104E000060919B268AE015DDBC0148E050E0CE01B0
:104E100001960E942B4F612F70E0660F771F81E093
:104E200090E08C0F9D1F680F791FFB01808191819D
:104E30002896CDBFDEBFDF91CF911F91089590E0FE
:104E400080E0F6CFCF93DF93CDB7DEB76B97CDBFC2
:104E5000DEBFC9DFBC018FEF6115710539F04BE191
:104E600050E0CE0101960E942B4F89816B96CDBFF9
:104E7000DEBFDF91CF910895CF93DF93CDB7DEB73B
:104E80006B97CDBFDEBFAFDFBC018FEF9FEF61152A
:104E9000710541F04BE150E0CE0101960E942B4F8D
:104EA0008B819C816B96CDBFDEBFDF91CF91089542
:104EB0001F93CF93DF9300D00F92CDB7DEB7162F9D
:104EC0008430D0F46430C0F4682F86E0B2DCBC01DA
:104ED00044E050E0CE0101960E942B4FE1E0F0E06B
:104EE000EC0FFD1FE10FF11D80812496CDBFDEBFC9
:104EF000DF91CF911F91089580E0F7CFEF92FF925D
:104F00000F931F93CF93DF9300D00F92CDB7DEB7EF
:104F1000162F042F8430D8F46430C8F4682F86E04C
:104F200088DC7C0144E050E0BC01CE0101960E9487
:104F30002B4FE1E0F0E0EC0FFD1FE10FF11D0083CE
:104F400044E050E0B701CE0101960E94324F249612
:104F5000CDBFDEBFDF91CF911F910F91FF90EF90FA
:104F600008951F93CF93DF93CDB7DEB72897CDBFBA
:104F7000DEBF162F843000F56430F0F4682F87E030
:104F800058DCBC0148E050E0CE0101960E942B4F56
:104F9000612F70E0660F771F81E090E08C0F9D1FFE
:104FA000680F791FFB01808191812896CDBFDEBFFC
:104FB000DF91CF911F91089590E080E0F6CFCF92DE
:104FC000DF92EF92FF921F93CF93DF93CDB7DEB7BF
:104FD0002897CDBFDEBF162F7A018430F0F46430FD
:104FE000E0F4682F87E025DC6C0148E050E0BC016C
:104FF000CE0101960E942B4FE12FF0E0EE0FFF1F34
:1050000081E090E08C0F9D1FE80FF91FE082F18294
:1050100048E050E0B6010E94324F2896CDBFDEBF77
:10502000DF91CF911F91FF90EF90DF90CF90089587
:10503000CF92DF92EF92FF921F93CF93DF93CDB782
:10504000DEB7A397CDBFDEBF6C01142FCE01019652
:105050007C018BE1F70111928A95E9F7643010F435
:10506000443088F08BE1F60111928A95E9F7C60188
:10507000A396CDBFDEBFDF91CF911F91FF90EF9040
:10508000DF90CF9008958AE0D4DBBC0148E050E087
:10509000CE014C960E942B4FE12FF0E0EE0FFF1F48
:1050A000EE0DFF1D638D748D4BE150E0C7010E9432
:1050B0002B4F8BE1F701D60101900D928A95E1F714
:1050C000D6CFEF92FF921F93CF93DF93CDB7DEB78A
:1050D0002897CDBFDEBF162F7A01843040F56430AB
:1050E00030F5452B21F1682F8AE0A3DBBC0148E0B5
:1050F00050E0CE0101960E942B4F612F70E0660FA9
:10510000771F81E090E08C0F9D1F680F791FFB01D6
:10511000608171814BE150E0C7010E94324F8BE109
:10512000F701A0E8B6E201900D928A95E1F7289682
:10513000CDBFDEBFDF91CF911F91FF90EF9008951B
:10514000EF92FF920F931F93CF937C0101EB16E236
:10515000C0E043E050E0B701C8010E94BB73892B57
:1051600029F0CF5F0D5F1F4FC43099F78C2FCF917F
:105170001F910F91FF90EF9008950F931F93CF937E
:10518000C82FE0919B26E81741F1A82FB0E0AA0FA5
:10519000BB1FA055B94D1D960D911C910115110510
:1051A000E1F0EF3F69F0F0E0EE0FFF1FE055F94D41
:1051B0006585768545E150E08BE996E20E94324FA5
:1051C00045E150E0B8018BE996E20E942B4FC09375
:1051D0009B26CF911F910F9122CBCF911F910F91C1
:1051E0000895AEDF843020F4C8DF90E080E00895B9
:1051F00080EA90E0089580E0C0CF81E090919B2606
:10520000911180E008952F923F924F925F926F929A
:105210007F928F929F92AF92BF92CF92DF92EF9246
:10522000FF920F931F93CF93DF93CDB7DEB7E8972D
:10523000CDBFDEBF7C01262E042F2DB73EB72FAB8E
:1052400038AFDC018C9181110FC011968C911197B0
:1052500081110AC012968C911091B026182B09F476
:1052600052C0882309F487C1C7016ADF843009F07E
:1052700082C11091B0268EEC90E0143050F51CAA3B
:10528000E3E080E490E0E21520F1E0EBF6E2332485
:105290003394131531F084819581892B9681892B64
:1052A00029F03394339624E03212F3CF412E512C5F
:1052B0008091212090E00E945D4F3201660C771CA6
:1052C000F301E055F94D85879687892BF9F48EE037
:1052D00090E0EFA9F8ADEDBFFEBFE896CDBFDEBF11
:1052E000DF91CF911F910F91FF90EF90DF90CF90C2
:1052F000BF90AF909F908F907F906F905F904F90F6
:105300003F902F900895B1E0BCABBACFFE017E96DE
:1053100080E1DF011D928A95E9F7198F81E08A8F7C
:105320002B8E1C8E8091D8258D8F8091202090E02F
:105330000E945D4FBC018E8F9F8F892B41F221E02F
:1053400031E0029FC001039F900D11248A839B834B
:10535000098343E050E08E010F5F1F4FC8010E9498
:10536000324F80911F2090E00E945D4F6C0188A316
:1053700099A3892B09F4ABCF44E050E06FEF70E0C4
:10538000C8010E94E27344E050E0B601C8010E94E7
:10539000324F80911E2090E00E945D4FBC018AA395
:1053A0009BA3892B09F493CF84E0F80111928A958D
:1053B000E9F744E050E0C8010E94324F80911D207F
:1053C00090E00E945D4FBC018CA39DA3892B09F442
:1053D0007ECF8FE090E089839A838B839C838D833B
:1053E0009E838F83988748E050E0C8010E94324F27
:1053F00080911C2090E00E945D4FBC0188A799A776
:10540000892B09F464CF83E0D8011D928A95E9F7CE
:1054100043E050E0C8010E94324F80911B2090E091
:105420000E945D4F6C018AA79BA7892B09F44FCF7F
:10543000EDB7FEB7EDABFEABA0901B20B12C2DB7A6
:105440003EB72A193B092DBF3EBF8DB79EB70196C7
:105450004C01A50170E060E00E94E273A501B60175
:10546000C4010E94324FADA9BEA9ADBFBEBF80919D
:10547000192090E00E945D4FBC018EA39FA3892B51
:1054800009F425CF88E0F80111928A95E9F748E000
:1054900050E0C8010E94324F80911A2090E00E9493
:1054A0005D4F8CA79DA7892B09F411CF6E01FEE2F9
:1054B000CF0ED11C86E0D6011D928A95E9F75601E0
:1054C000912C92104AC088E1D8011D928A95E9F783
:1054D0006EA57FA548E150E0C8010E94324F6CA53F
:1054E0007DA546E050E0C6010E94324FF301E05531
:1054F000F94D6585768545E150E0CE0149960E94DB
:10550000324FBCA9BB2349F085E1FE017996ABE996
:10551000B6E201900D928A95E1F7F7018081F301DF
:10552000E40DF51DE055F94D8183D70111968C915D
:105530001197828312968C91BFEF4B1A5B0AF2018E
:10554000EE0FFF1FE40DF51DE055F94D80833092FD
:10555000B02665D990E080E0BCCE8091182090E024
:105560000E945D4FF501819391935F01892B09F4AE
:10557000AECE9394A6CF8EED90E0ABCEE1DD84303D
:1055800041F1282F30E0F901EE0FFF1FE20FF31F6A
:10559000E055F94D118212822F5F3F4FF901EE0F56
:1055A000FF1FE20FF31FE055F94D10829091B026D6
:1055B000891708F4982F9093B02631D980919B26B3
:1055C000882311F080E08FD480E0D7DD90E080E088
:1055D000089580EA90E0089510926F260895AC0136
:1055E00090916F2683E0989FF0011124E055F94DCA
:1055F00020E0943018F0822F91E00CC0318182813C
:10560000832B6381862BE9F02C3E40F090936F262C
:10561000822F90E0A0E0BC018A2F0895DA01A20F4A
:10562000B11D3C938281A1E0A20FA40FB52FB11D43
:105630008C938381A2E0A20FA40FB52FB11D2D5F23
:105640008C939F5F3396D5CFCF93DF93EC01019678
:10565000C6DF9B01482F832F942F892B51F018828E
:105660008BE080930520822F90E00196DF91CF910F
:1056700008958FEA88838EE0F4CFE0915C2AF09160
:105680005D2A9581915081E0943008F080E0089582
:10569000CF92DF92EF92FF920F931F93CF93DF93FE
:1056A000CDB7DEB7C057D109CDBFDEBF7B01E5DF87
:1056B00081110EC089ECC059DF4FCDBFDEBFDF9135
:1056C000CF911F910F91FF90EF90DF90CF900895B1
:1056D0006E012DE2C20ED11CDF92CF928E01075ACD
:1056E0001F4F1F930F9383E693E09F938F93FF9237
:1056F000EF920E942A74CDBFDEBF892B09F4FEC051
:1057000069961FAE6997F801178AA6016CE270E0EE
:10571000CE0101960E94505D7C016FE573E0C801E7
:105720000E947873892BD9F41981412F50E04E15CE
:105730005F0509F0BFCFCA010397429708F0BACFBF
:10574000BE016F5F7F4F81EE96E20E94C873109397
:10575000F5260E94EE4F0E94874F84E6ACCF6AE5A3
:1057600073E0C8010E947873892B79F4F2E0EF1698
:10577000F10409F09FCF89818093DF268A8180938D
:10578000E02681E08093F926E4CF63E573E0C80169
:105790000E947873892B41F4EA94EF2809F08ACFAC
:1057A00089818093CD26D5CF6CE473E0C8010E9437
:1057B0007873892B41F4EA94EF2809F07BCF898133
:1057C0008093CE26C6CF62E473E0C8010E9478734E
:1057D000892B41F4EA94EF2809F06CCF89818093FA
:1057E000CF26B7CF66E373E0C8010E947873892B98
:1057F00041F4EA94EF2809F05DCF89818093D226A5
:10580000A8CF6FE273E0C8010E947873892B61F41E
:10581000F2E0EF16F10409F04DCF89818093D02694
:105820008A818093D12695CF68E273E0C8010E94F7
:105830007873892B41F4EA94EF2809F03BCF8981F2
:105840008093D32686CF6EE173E0C8010E947873FF
:10585000892B41F4EA94EF2809F02CCF89818093B9
:10586000D42677CF62E173E0C8010E947873892B58
:1058700041F4EA94EF2809F01DCF89818093D7265F
:1058800068CF6BE073E0C8010E947873892B61F4E4
:10589000E2E0EE16F10409F00DCF89818093D52660
:1058A0008A818093D62655CF63E073E0C8010E94B9
:1058B0007873892B79F4F5E0EF16F10409F0FACE4C
:1058C00085E0FE013196A8EDB6E201900D928A9531
:1058D000E1F73FCF6AEF72E0C8010E947873892B2D
:1058E00009F0E8CE22E0E216F10409F0E3CE898166
:1058F0008093DD268A818093DE262BCF8AECDBCE57
:10590000EF92FF920F931F93CF93DF93CDB7DEB744
:105910006097CDBFDEBF7B01B0DE81110BC089EC8B
:105920006096CDBFDEBFDF91CF911F910F91FF90A9
:10593000EF9008958E010F5F1F4F1F930F9385EF18
:1059400092E09F938F93FF92EF920E942A740F90A0
:105950000F900F900F900F900F90892B09F441C07A
:10596000188A6BEE72E0C8010E947873892B39F4B3
:105970001092D8251092552685E890E2D1CF6DED92
:1059800072E0C8010E947873892B31F481E0809322
:10599000D82580935526F0CF6BEC72E0C8010E94A9
:1059A0007873892B11F483E0F2CF69EB72E0C801C0
:1059B0000E947873892B11F484E0E9CF67EA72E0E2
:1059C000C8010E947873892B11F485E0E0CF65E966
:1059D00072E0C8010E947873892B09F0A0CF86E09D
:1059E000D6CF8AEC9DCFAF92BF92CF92DF92EF924B
:1059F000FF921F93CF93DF93CDB7DEB76097CDBFF4
:105A0000DEBF7B013ADE182F81110EC089EC609653
:105A1000CDBFDEBFDF91CF911F91FF90EF90DF9060
:105A2000CF90BF90AF900895CE0101966C019F93E7
:105A30008F9380E992E09F938F93FF92EF920E9461
:105A40002A740F900F900F900F900F900F90892B4A
:105A500009F44EC0188A6AE370E0C6010E94E97337
:105A60007C01009789F15C01AC18BD088C1571F2BE
:105A7000BB24A5016CE872E0C6010E949473892BD7
:105A800039F1A50168E872E0C6010E949473B12E55
:105A9000A12C892B09F0BACF64E872E0C7010E94FB
:105AA0007873892BC1F41092CE25AA2021F081E0D1
:105AB00081278093CB25BB2021F081E0182710930C
:105AC000502585E890E2A3CFA12EB12E7601E4CF38
:105AD000A12EB12CE1CF60E872E0C7010E9478737B
