:100000001CC5000040C500003EC500003CC5000006
:100010003AC5000038C5000036C5000034C50000F0
:1000200032C5000030C500000C9471692CC5000079
:100030002AC5000028C5000026C5000024C5000010
:1000400022C5000020C500001EC500001CC5000020
:100050001AC5000018C5000016C5000014C5000030
:1000600012C5000010C500000EC500000CC5000040
:100070000AC5000008C5000006C500000C94C00FAA
:1000800002C5000000C5000020C700000C94DE5A25
:10009000FAC40000F8C40000F6C40000F4C4000074
:1000A000F2C40000F0C40000EEC40000ECC4000084
:1000B000EAC40000E8C40000E6C400001AC700005B
:1000C000E2C4000020C7000028C700000C94F95CBF
:1000D000DAC40000D8C40000D6C40000D4C40000B4
:1000E000D2C40000D0C40000CEC40000CCC40000C4
:1000F000CAC40000C8C40000C6C40000C4C40000D4
:10010000C2C40000C0C40000BEC40000BCC40000E3
:1001100018C700000C94BB5AB6C40000B4C4000059
:10012000B2C40000B0C40000AEC40000ACC4000003
:10013000AAC400000C94295DA6C400000C94935836
:1001400081C60000CCC600000C94055B9CC4000076
:100150009AC40000ECC600000C94215C94C400001A
:1001600092C4000090C400008EC400008CC4000043
:100170008AC4000088C4000086C4000084C4000053
:1001800082C4000080C400007EC400007CC4000063
:100190007AC4000078C4000076C4000074C4000073
:1001A00072C4000070C400006EC400006CC4000083
:1001B0006AC4000068C4000066C4000064C4000093
:1001C00062C4000060C400005EC400005CC40000A3
:1001D0005AC4000058C4000056C4000054C40000B3
:1001E00052C4000050C400004EC400004CC40000C3
:1001F0004AC400000C94FB0D46C400004E4F54202E
:10020000494D504C454D454E544544002532686893
:10021000782532686878253268687800256C750022
:1002200053455420414944204649525354004325E4
:100230006C7546257549256868755225686875008E
:1002400053455420414944204649525354004325C4
:100250006C7546257549256868755225686875006E
:1002600053455420414944204649525354004325A4
:100270006C7546257549256868755225686875004E
:100280004342430045434200414553004445530027
:100290002531357300456E63697068657265643A2F
:1002A00041455332353600456E6369706865726545
:1002B000643A41455331393200456E63697068656F
:1002C0007265643A41455331323800456E63697056
:1002D00068657265643A334B3344455300506C6132
:1002E000696E746578743A4D414300506C61696E73
:1002F0007465787400253135730050726F64446101
:1003000074650042617463684E6F0053775665727E
:100310007300537750726F746F5479706500537720
:10032000537562747970650053775479706500482D
:10033000575665727300485750726F746F547970D6
:100340006500487753756274797065004877547911
:100350007065004D616E7549440041545141004142
:10036000545300253234732025343073000080400C
:10037000C020A060E0109050D030B070F0088848E5
:10038000C828A868E8189858D838B878F804844479
:10039000C424A464E4149454D434B474F40C8C4C85
:1003A000CC2CAC6CEC1C9C5CDC3CBC7CFC0282422B
:1003B000C222A262E2129252D232B272F20A8A4A85
:1003C000CA2AAA6AEA1A9A5ADA3ABA7AFA06864619
:1003D000C626A666E6169656D636B676F60E8E4E25
:1003E000CE2EAE6EEE1E9E5EDE3EBE7EFE018141D4
:1003F000C121A161E1119151D131B171F109894955
:10040000C929A969E9199959D939B979F9058545E8
:10041000C525A565E5159555D535B575F50D8D4DF4
:10042000CD2DAD6DED1D9D5DDD3DBD7DFD0383439A
:10043000C323A363E3139353D333B373F30B8B4BF4
:10044000CB2BAB6BEB1B9B5BDB3BBB7BFB07874788
:10045000C727A767E7179757D737B777F70F8F4F94
:10046000CF2FAF6FEF1F9F5FDF3FBF7FFFC65DD115
:100470005DD05DCF5DCF5DCE5DCD5DCC5DC75DCA2E
:100480005DCB5D00000001002B59B059CF592B24E2
:100490002F24C81ECC1EC91EA9204B244D24001099
:1004A0000700002B59B059CF5933243724C81ECC2C
:1004B0001EC91EA9204B244D2400080700002B59FB
:1004C000B059CF593B243F24C81ECC1EC91EA920B9
:1004D0004B244D2400100700002B59B059CF59432D
:1004E000244724C81ECC1EC91EA9204B244D24001D
:1004F00010070000004E4F4E4500000000000000B5
:1005000000000000000000000000000000014D4657
:100510005F4445534649524500000000000000007A
:10052000000000000000024D465F4445534649521A
:10053000455F324B455631000000000000000003CB
:100540004D465F444553464952455F344B4556310D
:100550000000000000000000044D465F4445534683
:100560004952455F344B4556320000000000000000
:10057000001E034300680061006D0065006C0065AB
:10058000006F006E002D004D0069006E00690000D4
:10059000002A034B006100730070006500720020A8
:1005A00000260020004F007300770061006C00649B
:1005B00000200047006D00620048000000040309AD
:1005C0000409023E00020100C032090400000102D9
:1005D000020100052400100104240206052406007F
:1005E00001070582030800FF09040100020A000058
:1005F000000705040210000507058302100005121C
:1006000001100102000008D016B20401000102002E
:1006100001004F46460000000000000000000000FE
:1006200000000000000000000000014D454D4F5249
:100630005900000000000000000000000000000061
:10064000000000024C495645000000000000000078
:100650000000000000000000000000000D0A000D76
:100660000A000D0A00643130303A4F4B00000000A0
:10067000000000000000000000000000000000007A
:10068000000000000000653130313A4F4B205749DF
:100690005448205445585400000000000000000059
:1006A000000000000000006E3131303A57414954DB
:1006B000494E4720464F5220584D4F44454D00006B
:1006C0000000000000000000C83230303A554E4BA8
:1006D0004E4F574E20434F4D4D414E4400000000B9
:1006E000000000000000000000C93230313A494EDD
:1006F00056414C494420434F4D4D414E44205553A3
:1007000041474500000000000000CA3230323A493B
:100710004E56414C494420504152414D455445525A
:100720000000000000000000000000783132303A84
:1007300046414C534500000000000000000000004E
:10074000000000000000000000000000793132319C
:100750003A5452554500000000000000000000001F
:1007600000000000000000000000000000CB32305C
:10077000333A54494D454F555400000000000000E5
:100780000000000000000000000000000000434FD7
:100790004E46494700000000000000000000000035
:1007A00000007B6B756B55494400000000000000A1
:1007B00000000000000000000000E36BA56B555036
:1007C0004C4F414400000000000000000000316C6C
:1007D000000000000000444F574E4C4F41440000C1
:1007E000000000000000366C0000000000005245D0
:1007F00053455400000000000000000000003B6C66
:1008000000000000000055504752414445000000E0
:10081000000000000000456C0000000000004C4F8C
:10082000474D4F444500000000000000000000005C
:100830000000556C4F6C4C4F474D454D000000007B
:100840000000000000000000000000006C6C4C4F35
:1008500047444F574E4C4F41440000000000906CFD
:100860000000000000004C4F4753544F5245000019
:10087000000000000000956C0000000000004C4FDC
:1008800047434C4541520000000000000000996CB5
:10089000000000000000434C4541520000000000F1
:1008A0000000000000009D6C000000000000535498
:1008B0004F52450000000000000000000000A06C46
:1008C000000000000000524543414C4C0000000075
:1008D000000000000000A36C00000000000048457C
:1008E0004C50000000000000000000000000A66C5A
:1008F00000000000000044465F5345544844520045
:10090000000000000000000000008E2B00004446A4
:100910005F434F4D4D5F4D4F4445000000000000C8
:100920000000C62C000044465F454E434D4F4445F1
:1009300000000000000000000000392D00004446C7
:100940005F4B455953435255420000000000C02DF3
:1009500000000000000044465F53455455505F4777
:10096000414C4C00000000000000D22D0000444625
:100970005F4352455F47414C4C41505000000000DE
:100980000000222E000044465F55505F47414C4C0A
:1009900041505000000000000000962E0000444628
:1009A0005F55505F47414C4C5F4349440000000095
:1009B00000000A2F000044465F53454C5F47414CFE
:1009C0004C415050000000000000652F00004446DC
:1009D0005F5345545F47414C4C4B45590000000064
:1009E00000009C2F0000000000000000000000003C
:1009F000000000000000000000000000000025755D
:100A0000202866726F6D20776869636820257520DD
:100A10006E6F6E2D766F6C6174696C652900524142
:100A20004E444F4D004E4F205549442E006364699B
:100A30006E6F70737578585B000011241FBECFEF86
:100A4000CDBFDFE3DEBF00E00CBF18BE19BE1ABE8B
:100A50001BBE14E2A0E0B0E2ECE2FEEE00E00BBF51
:100A600002C007900D92A636B107D9F71BBE2FE240
:100A7000A6E6B4E201C01D92AD36B207E1F70E94CE
:100A800077560C9414770C946869F190E190D190AA
:100A9000C190B190A190919081900B941B942B9454
:100AA0003B944B945B946B947B948B949B94AB940E
:100AB000BB94CB94DB94EB94FB940895F801D89409
:100AC000E4DF5894E2DFD894E0CFF801D894DDDF7A
:100AD0005894DBDFF801D894D8CFF801D894D5CF5B
:100AE000F8015894D2CFF80170965894CEDFF801EF
:100AF0003896D894CADFF8015894C7CFF8015894B3
:100B0000C4DFD894C2DFF8015894BFCFFF90EF90B4
:100B1000DF90CF90BF90AF909F908F907F906F901D
:100B20005F904F903F902F90112408952F923F9205
:100B30004F925F926F927F928F929F92AF92BF92ED
:100B4000CF92DF92EF92FF920F931F93FC0171906F
:100B500061905190419031902190119001908A01C3
:100B6000BCDFFB01719261925192419231922192CC
:100B7000119201921F910F91C9CF2F923F924F92E4
:100B80005F926F927F928F929F92AF92BF92CF921D
:100B9000DF92EF92FF920F931F93FB017190619090
:100BA0005190419031902190119001908A0198DFED
:100BB000FC01719261925192419231922192119273
:100BC00001921F910F91A2CF2F923F924F925F926D
:100BD0006F927F928F929F92AF92BF92CF92DF924D
:100BE000EF92FF920F931F93FB01719061905190D0
:100BF000419031902190119001908A017FDFFC019A
:100C0000719261925192419231922192119201928C
:100C10001F910F917BCF2F923F924F925F926F92D5
:100C20007F928F929F92AF92BF92CF92DF92EF927C
:100C3000FF920F931F93FB0171906190519041902F
:100C400031902190119001908A014DDFFC01719249
:100C500061925192419231922192119201921F918F
:100C60000F9154CF2F923F924F925F926F927F924B
:100C70008F929F92AF92BF92CF92DF92EF92FF92AC
:100C80000F931F93FC0171906190519041903190AE
:100C90002190119001908A0118DFFB0171926192FD
:100CA0005192419231922192119201921F910F9192
:100CB0002DCF2F923F924F925F926F927F928F92A1
:100CC0009F92AF92BF92CF92DF92EF92FF920F93DB
:100CD0001F93FC017190619051904190319021904F
:100CE000119001908A01EADEFB01719261925192AA
:100CF000419231922192119201921F910F9106CF50
:100D00002F923F924F925F926F927F928F929F921B
:100D1000AF92BF92CF92DF92EF92FF92CF93DF9389
:100D2000EB01DA01BF01F90171906190519041909E
:100D30003190219011900190F990E990D990C9904B
:100D4000B990A990999089907F246E245D244C24B9
:100D50003B242A2419240824FB0109957D926D92D5
:100D60005D924D923D922D921D920D92019721F729
:100D7000D9017D926D925D924D923D922D921D9280
:100D80000D92DF91CF91C2CE2F923F924F925F9200
:100D90006F927F928F929F92AF92BF92CF92DF928B
:100DA000EF92FF92CF93DF93EB01DA01BF017880DE
:100DB00069805A804B803C802D801E800F80FB0113
:100DC0000995F901F190E190D190C190B190A19075
:100DD000919081907F246E245D244C243B242A240E
:100DE00019240824F990E990D990C990B990A99054
:100DF00099908990F901F192E192D192C192B192C8
:100E0000A192919281927D926D925D924D923D92CE
:100E10002D921D920D92019751F6DF91CF9176CED2
:100E2000F5E0E5E66DCFF5E0E5E6AECFF5E0EEE71F
:100E300067CFF5E0EEE7A8CFF5E0EEE561CFF5E0AE
:100E4000E3E7A2CF0F9200240F932F933F934F938A
:100E50005F930FB70F93EF93FF93EAB1FBB15191FB
:100E6000442735B124B1569578F400928C0800924D
:100E7000000806E10A95F1F700C001E000930008C0
:100E800003E000938C0804C00AE10A95F1F7000022
:100E90002150304019F40E94A95A0CC04F5F47708E
:100EA00011F4519102C000C000C00AE00A95F1F7A8
:100EB00000C0D9CFFF91EF910F910FBF5F914F917C
:100EC0003F912F910F910F901895EF93FF93E09121
:100ED000452AF091462A0995FF91EF911895EF93D5
:100EE000FF93E091472AF091482A0995FF91EF91ED
:100EF0001895EF93FF93E091412AF091422A0995CA
:100F0000FF91EF911895EF93FF93E0913F2AF091B5
:100F1000402A0995FF91EF911895EF93FF93E09187
:100F20003D2AF0913E2A0995FF91EF911895EF9394
:100F3000FF93E0913B2AF0913C2A0995FF91EF91B4
:100F40001895EF93FF93E091432AF091442A099575
:100F5000FF91EF9118953BB78BBFFB01879196915D
:100F60003BBF08953BB78BBFCB0142E20D94F00F1E
:100F70003BB70B0143E20D94F00F3BB78BBFCB01A6
:100F800045E20D94F00F3BB746E208C02091CF0137
:100F900027FDFCCF22272093CA0108954093CA0160
:100FA00028ED31E0209334003093CB016091C401EF
:100FB0007091C5018091C60199270895FC01409365
:100FC000CA0184910895CF93DF93EC01FC017096E0
:100FD0008BE0DF011D928A95E9F782E08C83898797
:100FE00083E08E8761E0CE010196D0D4882361F042
:100FF00061E0CE010696CAD4882331F061E0CE01CB
:101000000B96DF91CF91C2C480E0DF91CF9108951C
:10101000CF93DF93FC01EB01809169248430C1F40C
:1010200084899589A689B789892B8A2B8B2B81F096
:101030008181C9D3FE0101900020E9F73197BF01FA
:101040006C1B7D0B50E040E0CE01DF91CF91A7C239
:1010500082E0DF91CF9108950F931F93CF93DF9399
:10106000FC01EB018A0180916924843099F4848920
:101070009589A689B789892B8A2B8B2B59F0818179
:10108000A2D350E040E0B801CE01DF91CF911F9193
:101090000F9185C282E0DF91CF911F910F9108954A
:1010A000CF93FC01C62F80916924843011F5848987
:1010B0009589A689B789892B8A2B8B2BD1F08181C1
:1010C00082D38091732490917424FC01EF5BFF4FD5
:1010D0002081805C9F4FFC018081281728F48C2F91
:1010E00062D380E0CF91089526D3D3D48823B9F377
:1010F000F9CF82E0F7CFCF93DF93FC018091692491
:101100008430B9F584899589A689B789892B8A2B7A
:101110008B2B79F1818157D320917724809173248F
:1011200090917424FC0127FF0BC0EF5BFF4F2081DF
:1011300030E0232B69F4C0E08C2FDF91CF9108952C
:10114000E05CFF4F208131963081231B330BF1CFC0
:10115000FC01EF5BFF4FD081805C9F4FFC01C081A1
:10116000EAD2DC1740F395D4C82F8111E5CFE3D242
:10117000E3CFC2E0E1CFCF93DF93EC01809169240C
:10118000843089F48C899D89AE89BF89892B8A2B0B
:101190008B2B49F0898117D33ED3882321F0CE01D0
:1011A000DF91CF91A8CFDF91CF910895CF93DF93B7
:1011B000FC0180916924843031F0CFEFDFEFCE0164
:1011C000DF91CF91089584899589A689B789892B64
:1011D0008A2B8B2B91F38681F6D229D3882369F34E
:1011E000209177248091732490917424FC01EF5B0B
:1011F000FF4F27FF1AC0808190E0CFEFDFEF892BF0
:1012000019F0C1D2C82FD0E02091772480917324A7
:1012100090917424FC01EF5BFF4F27FF0EC02081EB
:1012200030E0232B61F6A0D2CACF805C9F4FDC0157
:101230008C919081891B990BE0CF805C9F4FDC01E2
:101240002C918081281B330BECCF0895CF92DF9235
:10125000EF92FF920F931F93CF93DF93EC01FFD296
:10126000882399F0288180916E2490916F2428170B
:10127000190659F480916B24823209F47CC070F411
:10128000803209F443C08132E9F0DF91CF911F91A0
:101290000F91FF90EF90DF90CF9008958332A9F7E0
:1012A00080916A24813289F7F2D2DFD360916C2475
:1012B000CE01DF91CF911F910F91FF90EF90DF90C2
:1012C000CF90C3CF80916A24813AF9F6E0D2A3D2BD
:1012D0008823E9F3CC88DD88EE88FF888C2D63D2E3
:1012E0008D2D61D28E2D5FD28F2D5DD2888D5BD2F8
:1012F000898D59D28A8D57D21ED2DF91CF911F91FD
:101300000F91FF90EF90DF90CF90AFC380916A2450
:10131000813209F0BACFBBD28AD2882339F133D2D5
:10132000F82E31D2182F2FD2082F2DD2402F50E077
:1013300070E060E0BA0155274427782B4F29512BE4
:101340004C8B5D8B6E8B7F8B1ED2888F1CD2898FCE
:101350001AD28A8F09D289D3CE01DF91CF911F9102
:101360000F91FF90EF90DF90CF906FCF8091692425
:101370008111D2CF8ACF80916A24813209F085CF42
:1013800086D273D380916C2490916D24888B998B35
:10139000CE01DF91CF911F910F91FF90EF90DF90E1
:1013A000CF9053CFEF92FF920F931F93CF93DF9382
:1013B0000F920F92CDB7DEB70AE614E278010F5F05
:1013C0001F4FE1D1F7018083F4E202371F07B1F725
:1013D0000E94926D44D2882379F080916A24909182
:1013E0006B24953009F483C0A8F4292F2D7F213078
:1013F00009F450C0992371F132D2882311F047D2F9
:1014000072D20F900F90DF91CF911F910F91FF90AB
:10141000EF900895983009F47CC0993009F480C0A9
:10142000963051F78058823038F7AE014F5F5F4FEA
:1014300060916E2480916C2490916D240E94015FD4
:101440008C01892BC9F223D2B80189819A81FAD003
:101450008BD1D2CF803889F0823871F680916E249A
:101460008F70B1D1E0917524F0917624118112FB37
:10147000112710F980E0A7D106C010916724809150
:1014800066248111126003D2812F8DD180E08BD12F
:1014900052D171C0882309F460C0823009F0ACCF0A
:1014A00080916C24811164C010916E241F7009F426
:1014B000A3CF812F88D180916B24833011F413D274
:1014C00057C0E0917524F091762481818B7F8183D0
:1014D00084E8189FF0011124E754FB4D1082E0913D
:1014E0007524F091762480818E7F808341C08111A4
:1014F00083CF10916C241F77CAD1B7D28CD18823A7
:10150000E9F31093C30482E0111183E0809369240E
:1015100073CF803809F070CFBAD180916824B7CFEB
:1015200081116ACF80916C24823008F065CFAFD1F1
:1015300080916C248093682498D2809168248823B9
:1015400011F084E005C08091C3048111FACF81E0DD
:10155000809369240E948E6D4FCF80916C248130DE
:1015600009F04ACF81E0933009F080E0809366244F
:1015700080E029D18CD179D23FCF0895CF9380914B
:101580006924882351F0C091772480E01CD167D171
:10159000811108DF8C2FCF9116C1CF910895AF92A2
:1015A000BF92CF92DF92FF920F931F93CF93DF935F
:1015B0006C01EB018A016DD2F82E81112AC0011550
:1015C000110539F0F80180819181C81BD90BC80E33
:1015D000D91EB12CA12C2097E1F080917324909119
:1015E0007424FC01EF5BFF4F2081805C9F4FFC0166
:1015F00080812817F0F09FD0C1DF01151105A1F0FF
:10160000F80180819181A80EB91EA082B18285E087
:10161000F82E8F2DDF91CF911F910F91FF90DF90CA
:10162000CF90BF90AF90089534D28823A1F2F82EC6
:10163000F0CFF60181916F01B6D02197FFEFAF1A7D
:10164000BF0AC9CFDF92EF92FF920F931F93CF9300
:10165000DF937C01EB01809177248068B4D0809186
:101660007024909171248C179D0770F0209709F4D5
:1016700062D0D12C209751F4D11008C0D8D0882343
:1016800009F44CC080E007C0EC01F3CF80916924DD
:10169000811109C082E0DF91CF911F910F91FF90DE
:1016A000EF90DF900895853011F483E0F4CFD7D028
:1016B000882311F081E0EFCFBAD08111DFCFABD01A
:1016C0008823C1F22091772480917324909174240F
:1016D000FC01EF5BFF4F27FF0FC0008110E0209758
:1016E00019F00830110580F0DD24D394083011057D
:1016F00009F0D12C20D0BECF805C9F4FDC010C9133
:101700008081081B110BEBCFF70184914CD0FFEFC8
:10171000EF1AFF0A21970F5F1F4FE1CF80916924D5
:10172000882309F4B7CF853009F4BFCF98D0882338
:1017300009F4A4CFBFCFE0917324F0917424EF5B40
:10174000FF4F8081E0917524F091762490E08283B0
:10175000938380818D798083E0917324F091742448
:10176000EF5BFF4F10820895E0917524F09176248D
:1017700080818D798083E0917324F0917424EF5BF4
:10178000FF4F108208958091732490917424DC019E
:10179000AF5BBF4FEC9121E02E0F2C93E80FF92F98
:1017A000F11D808108952091732430917424D90112
:1017B000AF5BBF4FEC9191E09E0F9C93E20FF32F34
:1017C000F11D80830895282F2F70809377244091F6
:1017D000C6045091C70494E8299FB001112490E1F8
:1017E000299F9001112487FF0FC066547B4D6093A1
:1017F000732470937424285F3F4F240F351F209368
:10180000752430937624089568587B4D6093732433
:1018100070937424F2CF809177248068D4DFE091B4
:101820007524F09176248081869581700895809149
:1018300077248F77C8DFE0917524F091762480813A
:1018400085FF0BC082819381E0917324F091742411
:10185000E05CFF4F808381E0089580E008958091EF
:1018600077248F77B0DFE0917524F0917624808122
:1018700084FF0BC082819381E0917324F0917424E2
:10188000E05CFF4F808381E0089580E008958091BF
:1018900077248F7798DFE0917524F091762480810A
:1018A0008D788083E0917524F09176248081816029
:1018B0008083E0917324F0917424EF5BFF4F1082DA
:1018C0008091772480687FDFE0917524F091762401
:1018D000808181608083E0917324F0917424EF5BB8
:1018E000FF4F10820895E0917524F0917624818154
:1018F00084608183E0917524F09176248181807CDD
:10190000803459F48091772480585DDFE09175240C
:10191000F091762481818460818308951F93CF9311
:10192000DF93C82F162FD42F4EDFE0917524F0914E
:1019300076241182E0917524F09176248C2F86FB19
:10194000880F880B80F982708083E0917524F09174
:1019500076241183E0917524F0917624128213820B
:10196000809173249091742484839583CC0FCC0B45
:10197000CD23FC01E05CFF4FC0838F5B9F4FFC01D8
:10198000108281E0DF91CF911F910895CF92DF9275
:10199000EF92FF920F931F93CF93DF93D62E8C017C
:1019A000C12CCD1002C081E01AC0F801D081D11144
:1019B00004C0C3940B5F1F4FF4CFE180F280848199
:1019C00028E0823008F028E188E090E0C0E08E1541
:1019D0009F0570F08D2F8F70853070F080E0DF9163
:1019E000CF911F910F91FF90EF90DF90CF900895CE
:1019F000CF5F880F991FEBCFF1E4EF16F10470F77A
:101A0000F8018381C22BCF7E882321F0813079F0C9
:101A1000C06806C0C0644E2D6C2F80E88D0F7EDF3D
:101A20004E2D6C2F8D2F7ADF8111C3CFD7CFC06C95
:101A3000F7CF90E080E0A091C604B091C7049C016C
:101A400044E0220F331F4A95E1F7A20FB31F199606
:101A50001C92E091C604F091C704E20FF31F1182BB
:101A600001968530910539F7089580916A2487FFA2
:101A70000CC0DDDE811178CE809169248111F9CF0F
:101A80000895809169248823D9F3C5DE8823C9F39A
:101A900052CE0F931F93CF93E091C604F091C704E9
:101AA000E05BFF4F00811181C4E68091772487FFBE
:101AB00011C0B1DE811109C08091692481110CC06F
:101AC00082E004C0C22F8C01F0CF80E0CF911F9143
:101AD0000F910895ACDEEECF8530C1F0E091752412
:101AE000F0917624818182FD13C0E091C604F091CB
:101AF000C704E05BFF4F808191810817190719F334
:101B00002FEF2C0FC111DECF84E0E0CF83E0DECFDA
:101B100081E0DCCF63D069D0E0ECF4E081818E7F9E
:101B2000818380818F778083109272240895CF9370
:101B3000DF93E0E4F0E014828481836084834ED0FC
:101B400054D0C0ECD4E088818F7788838881806806
:101B5000888310926924109268241092662410924F
:101B6000672488818064888348E068E480E8D6DE62
:101B700048E068E480E0D2DE8885806488878981D7
:101B800081608983DF91CF910895CF93DF933FB731
:101B9000F894C0ECD1E022E02A87EAE1F0E0E49199
:101BA000A0ECB4E0DA96EC93DA97EBE1F0E0E491A4
:101BB000DB96EC93DB971A868DE097E28E7F169684
:101BC0008D939C93179784E18C9318962C933FBF29
:101BD00081E080937224DF91CF91A9CFE0ECF4E013
:101BE00080858370808711860895E0ECF4E08FEFA4
:101BF0008287848708951F920F920FB60F92112447
:101C000008B60F9218BE09B60F9219BE0BB60F9206
:101C10001BBE2F933F934F935F936F937F938F934D
:101C20009F93AF93BF93EF93FF938091CA0487FF75
:101C300008C08091C80487FF04C080E88093CA046C
:101C40009CDC8091CA0486FF07C080E48093CA04AC
:101C5000109269240E947D6D8091CA0485FF0CC09A
:101C600080E28093CA04809168248823A1F184E0F3
:101C7000809369240E946C6D8091CA0484FF14C013
:101C800080E18093CA0482E08093692410926824E2
:101C90001092C304CEDE48E068E480E83FDE48E00E
:101CA00068E480E03BDE69DCFF91EF91BF91AF918A
:101CB0009F918F917F916F915F914F913F912F9164
:101CC0000F900BBE0F9009BE0F9008BE0F900FBE75
:101CD0000F901F9018958091C304811102C081E07C
:101CE000C7CF83E0C5CF0F931F93CF93DF9300D06F
:101CF00000D0CDB7DEB780912002806880932002AB
:101D00008091230280FFFCCF81E080932302A09189
:101D10001002B0911102AE5BB109B7FF02C0B0E092
:101D2000A0E020E038EB4BE050E00E94736F6B8343
:101D30007C838D839E838C0122273327E091952C11
:101D4000F091962C978186814D815E81443F514070
:101D5000D8F4973019F490E19093802C873019F4DF
:101D600080E180937F2C80917A2C882329F0E09168
:101D70006C2CF0916D2C19952696CDBFDEBFDF91AE
:101D8000CF911F910F910895973019F491E190939D
:101D9000802C873019F481E180937F2C80915F271C
:101DA0008F5F6FE00E94536F90935F279111E4CF94
:101DB00019830A83E091872CF091882C42E0BE01C0
:101DC0006F5F7F4F88E41995D7CF0895E0ECF0E07E
:101DD00080818068808308959091C100917881E02E
:101DE00009F080E00895E0ECF0E08181816081837A
:101DF0000895E0ECF0E08181806881830895862B6E
:101E00008093C0000895862B80618093C000089560
:101E10009C01205F3F4FFC01019640814093C3002D
:101E200082179307C1F708959C01205F3F4FFC0183
:101E300001964091C300408382179307C1F708952C
:101E40009C01205F3F4FFC01019640814093C200FE
:101E500082179307C1F708959C01205F3F4FFC0153
:101E600001964091C200408382179307C1F70895FD
:101E7000EF92FF920F931F93CF93DF938C01EB01AF
:101E80007A0180E28093C0008093C000000010922D
:101E9000C00060E0211164E080E0B1DF81E8809360
:101EA000C1001092C400C701B3DF80E11092C200EC
:101EB0008150E1F7C801C4DF89DF8EDF8111FDCFDA
:101EC000CE01CADFDF91CF911F910F91FF90EF906C
:101ED0008ACFEF92FF920F931F93CF93DF93CDB7EB
:101EE000DEB7A097CDBFDEBF8C017B0180E280937F
:101EF000C00000001092C0008093C00080E1E5E4C3
:101F0000F0E2DE01119601900D928A95E1F720E052
:101F1000BE016F5F7F4FCB01ABDF8091C10087FDBA
:101F20002DC0CE01419680DF5EDF80E28093C0004D
:101F300000001092C00060E080E065DF81E88093DF
:101F4000C1001092C400CE01419662DF80E1109280
:101F5000C2008150E1F7C70173DF38DF3DDF811137
:101F6000FDCFC80179DF3FDFA096CDBFDEBFDF9197
:101F7000CF911F910F91FF90EF9008953ADFD5CF49
:101F80001F920F920FB60F92112408B60F9218BE2F
:101F900009B60F9219BE0BB60F921BBE2F933F933B
:101FA0004F935F936F937F938F939F93AF93BF9361
:101FB000EF93FF93E0917127F0917227309709F02A
:101FC0001995FF91EF91BF91AF919F918F917F9163
:101FD0006F915F914F913F912F910F900BBE0F909A
:101FE00009BE0F9008BE0F900FBE0F901F9018955E
:101FF000FC01892B69F081E080831182128284E0E8
:10200000848380916027813011F483830895138243
:102010000895CF93DF93FC01892BB9F080E2809380
:10202000C000A1E6B7E280E1ED0119928A95E9F7D7
:1020300084819281892B9081892B8093C00085EEC9
:102040009EE08093712790937227DF91CF9108953E
:102050002F923F924F925F926F927F928F929F92B8
:10206000AF92BF92CF92DF92EF92FF920F931F93A6
:10207000CF93DF93CDB7DEB76097CDBFDEBF4B0107
:102080007A0169019C012F703327232B09F0B9C015
:10209000C114D10441F4E1E6F7E220E1DF011D9231
:1020A0002A95E9F76F010F961C0184E03694279476
:1020B0008A95E1F75401B0E1AB0EB11C90E080E0ED
:1020C0002601E0E14E0E511C82159305F9F4809132
:1020D000C10087FF99C08DDE8091C100807890E0BB
:1020E0006096CDBFDEBFDF91CF911F910F91FF9022
:1020F000EF90DF90CF90BF90AF909F908F907F90A8
:102100006F905F904F903F902F9008953C01FFEFAC
:102110006F1A7F0A20916027213009F04FC0892B68
:1021200091F580E1F401DE01119601900D928A95FE
:10213000E1F7C601AE014F5F5F4F48165906C9F47B
:1021400021E0A801B701CE01019692DE26143704E2
:1021500041F480E1FE013196D60101900D928A95FD
:10216000E1F7F0E1EF0EF11C20E1A20EB11CC3017A
:10217000ABCFDA012D91FC013191CF012327FA0178
:102180002083AD01DACF80E1F7017097DE0111966F
:1021900001900D928A95E1F7C5014097AE014F5F1E
:1021A0005F4F8A159B0561F2DA012D91FC01319197
:1021B000CF012327FA012083AD01F3CF80E1F501A0
:1021C0007097DE01119601900D928A95E1F7C60194
:1021D000AE014F5F5F4F8415950549F421E0A801DA
:1021E000B701CE01019644DE80E1F701B5CFDA01F7
:1021F0002D91FC013191CF012327FA012083AD01FC
:10220000EACF8EEB90E06CCF90E080E069CF2F9228
:102210003F924F925F926F927F928F929F92AF9276
:10222000BF92CF92DF92EF92FF920F931F93CF93C3
:10223000DF93CDB7DEB7AA97CDBFDEBF6B017A01C2
:1022400039012801232B41F4E1E6F7E220E1DF0127
:102250001D922A95E9F73F011C01BFE02B0E311CAE
:1022600024E0369427942A95E1F7FC01EF70FF27CC
:10227000EFA3F8A7912C812C9301205F3F4F2DA352
:102280003EA35E0131E1A30EB11C8F70A82FB0E018
:10229000A9A7BAA7FE013196E9A3FAA38214930471
:1022A000F9F48091C10087FFEAC0A3DD8091C100ED
:1022B000807890E0AA96CDBFDEBFDF91CF911F91CD
:1022C0000F91FF90EF90DF90CF90BF90AF909F90D5
:1022D0008F907F906F905F904F903F902F900895D8
:1022E00094012F5F3F4F2BA33CA386018091602771
:1022F000813009F080C02216330621F48FA198A501
:10230000892BD1F5A201B701C501E3DD80E1F5011B
:10231000D60101900D928A95E1F7C3018928C1F099
:10232000C70140978E159F05C1F0F8012191DC018E
:102330003D91CD012327D8012C938F01F3CFF801D4
:102340002191DC013D91CD012327D8012C938F01F0
:10235000EDA1FEA1E817F90791F7EBA1FCA12E165C
:102360003F0609F445C0F0E1EF0EF11C20E1C20E7A
:10237000D11C8BA09CA092CFE9A1FAA120E11192DF
:102380002A95E9F749A55AA5B701CE0101960E9401
:102390005670A201BE016F5F7F4FC5019ADD80E1DB
:1023A000F501D60101900D928A95E1F7C30131E064
:1023B00023163104C1F0C70140978E159F05C1F067
:1023C000F8012191DC013D91CD012327D8012C9307
:1023D0008F01F3CFF8012191DC013D91CD0123273D
:1023E000D8012C938F01EDA1FEA1E817F90791F711
:1023F00080E1F50115C02BA13CA12216330621F482
:102400008FA198A5892BE1F4A201B701C60161DD76
:10241000C301EDA1FEA18E179F0741F480E1F701F2
:10242000D30101900D928A95E1F79DCFF80121919A
:10243000DC013D91CD012327D8012C938F01E9CFF9
:10244000D501E0E11D92EA95E9F749A55AA5B70142
:10245000C5010E945670A201B501C6013ADDC30153
:10246000EDA1FEA18E179F0719F2F8012191DC0161
:102470003D91CD012327D8012C938F01F1CF81E02D
:1024800090E0AFA1B8A5AB2B09F014CF90E080E0AD
:1024900011CF0F931F93DA01FC01680F791F0FEF23
:1024A0001FEF9801E617F70741F40D931D932D9345
:1024B0003C9313971F910F9108958191082788E00D
:1024C00090E0A801417055273695279517950795F7
:1024D000452B41F040E2042743E8142748EB24272A
:1024E0004DEE3427019769F7DDCFEF92FF920F93FE
:1024F0001F93CF93DF9300D00F92CDB7DEB78C013F
:102500007B01AE014F5F5F4FC4DFF801EE0DFF1D91
:10251000898180838A8181838B8182838C8183837B
:10252000C70104962496CDBFDEBFDF91CF911F91E6
:102530000F91FF90EF900895CF92DF92EF92FF926C
:102540000F931F93CF93DF937C01FB01DC0190E09D
:1025500080E00091072010E080179107E0F0F8017B
:102560003197EE0FFF1FEE0FFF1FEE0DFF1D809145
:10257000062090E00196880F991F880F991F081771
:102580001907D8F0DF91CF911F910F91FF90EF9035
:10259000DF90CF90089520812C93218111962C9368
:1025A0001197228112962C931297238113962C93C4
:1025B0001397019634961496CCCF2081C181428125
:1025C0003381C0900720D12CC801B6010E945F6FF3
:1025D0000097C1F4D0E0CB56DE4D5881A42FB0E077
:1025E000AB56BE4DCC91A32FB0E0AB56BE4D4C9137
:1025F000A22FB0E0AB56BE4D3C9166577F4DDB013C
:102600002C912527509108205A3DA9F4049799F45C
:10261000A22FB0E0AB56BE4D2C91D0E0CB56DE4D94
:10262000C881A42FB0E0AB56BE4D4C91A32FB0E0B3
:10263000AB56BE4D3C91D801AC19BD09AA0FBB1FCA
:10264000AA0FBB1FAE0DBF1D8C91282724831196A6
:102650008C911197C827C58312968C9112974827A1
:10266000468313968C91382737830F5F1F4F34961C
:102670007ECFCF92DF92FF920F931F93CF93DF9382
:1026800020E1829FC00111246B01C0E1CC0ED11C5E
:10269000DA01A80FB91FFB0120E03191FD908F01F5
:1026A000015011093F25E80138832F5F2430A9F735
:1026B0006C5F7F4F04966C157D0551F7DF91CF91CC
:1026C0001F910F91FF90DF90CF900895982F881F52
:1026D0008827881F2BE1829F802D1124990F89273D
:1026E00008950F931F93CF93DF93182FC62FEEDF1C
:1026F000082FECDFD82FEADFC1FB992790F9909FD4
:10270000902D11242C2F2170219F202D1124822700
:102710008927C2FBCC27C0F9CD9FC02D11248C275F
:10272000DF91CF911F910F9108953F924F925F9249
:102730006F927F928F929F92AF92BF92CF92DF92D1
:10274000EF92FF920F931F93CF93DF93EC016B01F6
:10275000AB01BC0180E08DDF662463945E0184E000
:10276000A80EB11C4E01E0E18E0E911C8E01CE012F
:10277000DC0120E0EC91F0E0EB56FE4D30813C9323
:102780002F5F14962430B1F701968A159B0581F7C7
:1027900089819D81998399859D839D8599878D8761
:1027A0008A819A859A838A878E819E859E838E8769
:1027B0008B819F859B839B859F879F819B878F8331
:1027C00080910620861579F1F80140807180842D72
:1027D0008725E280F3803E2C3F24582E532476DF59
:1027E00084258525F8018083872D8E256FDF782647
:1027F0007524F8017182832D69DFE826E524F8014C
:10280000E282842D8F2562DFF826F524F801F38219
:102810000C5F1F4F80169106B9F6A601BE01862DEA
:1028200028DF6394A3CFA601BE01862DDF91CF914F
:102830001F910F91FF90EF90DF90CF90BF90AF90DE
:102840009F908F907F906F905F904F903F9011CFAF
:102850004F925F926F927F928F929F92AF92BF92B0
:10286000CF92DF92EF92FF920F931F93CF93DF935C
:10287000EC016B01AB01BC0180910620FADEE09017
:102880000620EA945E0184E0A80EB11C4E01E0E14E
:102890008E0E911C8D8599859D879D819987998143
:1028A0009D8389838A819A859A838A878E819E8572
:1028B0009E838E878B819F819B839B859F839F8532
:1028C0009B878F878E01CE01DC0120E0EC91F0E048
:1028D000EB56FF4D30813C932F5F14962430B1F7B7
:1028E0000196A816B90681F7A601BE018E2DC1DE9C
:1028F000EE2009F455C0F801408051806280738059
:102900006EE0842DEEDEF82E6BE0852DEADEF826F3
:102910006DE0862DE6DEF82669E0872DE2DEF826FA
:10292000F801F08269E0842DDCDEF82E6EE0852D62
:10293000D8DEF8266BE0862DD4DEF8266DE0872DF4
:10294000D0DEF826F801F1826DE0842DCADEF82E83
:1029500069E0852DC6DEF8266EE0862DC2DEF826FB
:102960006BE0872DBEDEF826F801F2826BE0842D45
:10297000B8DEF82E6DE0852DB4DEF82669E0862DF0
:10298000B0DEF8266EE0872DACDEF826F801F38283
:102990000C5F1F4F8016910609F0ADCFEA947ACFF5
:1029A000DF91CF911F910F91FF90EF90DF90CF902B
:1029B000BF90AF909F908F907F906F905F904F905F
:1029C0000895FC016A3841F586E090E080839183A8
:1029D0008CE090E08283938388E190E08483958308
:1029E00080ED90E086839783408783E897E2818734
:1029F000928783E797E2838794876093082080819A
:102A00008093072082818093062084818093052013
:102A100086818093042008956A3D79F488E090E0EF
:102A2000808391838EE090E08283938380E290E0C4
:102A30008483958380EF90E0D5CF84E090E080831D
:102A400091838AE090E08283938380E190E08483A5
:102A5000958380EB90E0C6CFFC01818592856CCD9B
:102A60000F931F93CF93DF93EC018A0189859A8599
:102A700063DDAB85BC8580E1F80101900D928A95FC
:102A8000E1F7DF91CF911F910F910895FC01CB01E8
:102A9000618572854ACEFC01CB0161857285D8CEF5
:102AA000AF92BF92CF92DF92EF92FF920F931F935C
:102AB000CF93DF938C01EB016A01DC011B96ED9152
:102AC000FC91B12CA12CAC14BD0498F0E801AB85AD
:102AD000BC8580E101900D928A95E1F7DF91CF915D
:102AE0001F910F91FF90EF90DF90CF90BF90AF902C
:102AF00008957E019E01205F3F4FD7018D917D019A
:102B00009191119789278C93E216F306B1F7F8019A
:102B100061857285CE0109DEF0E1AF0EB11CFE01C8
:102B2000E701D1CFCF93FC01C085C11104C0AEDF56
:102B30008C2FCF9108959A012F703327C1E0232B5A
:102B4000B9F7AEDFC0E0F4CFAF92BF92CF92DF9281
:102B5000EF92FF920F931F93CF93DF93CDB7DEB722
:102B60006097CDBFDEBF7C018B016A01B12CA12C27
:102B7000AC14BD0470F06096CDBFDEBFDF91CF9185
:102B80001F910F91FF90EF90DF90CF90BF90AF908B
:102B9000089580E1F801DE01119601900D928A9569
:102BA000E1F7D70119966D917C91C80151DED701EB
:102BB0001B96ED91FC919801205F3F4FD8018D91BC
:102BC0008D019191119789278C9302171307B1F703
:102BD000F701A385B48580E1FE01319601900D9245
:102BE0008A95E1F7F0E1AF0EB11CC2CFCF93FC01A3
:102BF000C085C11104C04FDF8C2FCF9108959A0179
:102C00002F703327C1E0232BB9F79EDFC0E0F4CF4C
:102C1000EF92FF920F931F93CF93DF937C01E90113
:102C2000062F10E0F801E154F74D4083A801B901E7
:102C30000E94B052F701808187FF0EC0FE01A0EC18
:102C4000B8E20C0F1D1F81919D91EF0121978927FB
:102C50008883E017F107B9F7DF91CF911F910F91AA
:102C6000FF90EF9008953F924F925F926F927F9204
:102C70008F929F92AF92BF92CF92DF92EF92FF928C
:102C80000F931F93CF93DF93382E4B013A01E80146
:102C9000A22EB12C27014A185B08E114F10411F5AA
:102CA000A50170E060E0C8010E94707080E8888330
:102CB0006501FE01E40DF51D95012E193F094E1425
:102CC0005F04B0F55191CF010197D901A40DB51D55
:102CD000A053B74D4C914527DC014C93BFEF4B1AE5
:102CE0005B0AEDCFC701B5010E945F6F009709F441
:102CF00063C06701CA0CDB1CC81AD90A80E8F80156
:102D0000EE0DFF1D8083D5CF51919F0121503109D8
:102D1000DC01A40DB51DA052B74D4C914527D9013A
:102D20004C93BFEF4B1A5B0A4E145F0468F36701C4
:102D30002AE13216B1F08AE43816A9F180E0DF9179
:102D4000CF911F910F91FF90EF90DF90CF90BF90A8
:102D5000AF909F908F907F906F905F904F903F903B
:102D60000895AE014E0D5F1D83019401BE01C601A1
:102D700085D77E01EC0CFD1CA601B701CE010E9497
:102D80005F70B6016A197B096C0F7D1FA50180EB8E
:102D900098E20E945670A50160EB78E2C7010E949C
:102DA000567081E0CCCFAE014E0D5F1D84019301C2
:102DB000BE01C6014DD9DDCFF801E40DF51DC501F9
:102DC0008E199F09B1CF8F929F92AF92BF92CF92EF
:102DD000DF92EF92FF920F931F93CF93DF93C82F51
:102DE0006B014A01790158018A31B1F080E0CA349F
:102DF00009F044C0E0EAF8E280E1DF011D928A9523
:102E0000E9F78B019F0140ED58E2BF0180E190E0BE
:102E10001FD917E8D0E111C0E0EAF8E288E0DF014D
:102E20001D928A95E9F78B019F0140ED58E2BF01A1
:102E300088E090E023D71BE1D8E020EE38E2412F74
:102E40006D2F80ED98E2E4DE20ED38E2412F6D2F0A
:102E500080EE98E2DDDE84012D2FA501AB2859F428
:102E60004D2F50E070E060E080EA98E20E947070C0
:102E70002D2F40EA58E2B6018C2FF5DEDF91CF917D
:102E80001F910F91FF90EF90DF90CF90BF90AF9088
:102E90009F908F900895CF93DF93FC01DB01480F43
:102EA000591FE417F50719F4DF91CF910895819127
:102EB0009D91EF01219789278883F3CFCF93DF93EB
:102EC000DC0150E040E0FB0131974E175F0740F016
:102ED000E80FF91F8081880F8083DF91CF910895DB
:102EE0002D914F5F5F4FED0121973C91331F3327A9
:102EF000331F220F232B2883E8CF6F927F929F925C
:102F0000AF92BF92CF92DF92EF92FF920F931F93F7
:102F1000CF93DF93CDB7DEB7E097CDBFDEBF182FDD
:102F20003B015A0169018A31A1F08A34C9F180E07C
:102F3000E096CDBFDEBFDF91CF911F910F91FF9043
:102F4000EF90DF90CF90BF90AF909F907F906F9069
:102F5000089528E0E22EF12C3BE1932EA70170E0CA
:102F600060E0CE0101960E947070A70170E060E001
:102F7000CE0181960E9470701A31C1F01A34B9F6F0
:102F800083019E012F5D3F4F41E050E04C0F5D1FDC
:102F90004E0D5F1DBE016F5F7F4FC70159D815C031
:102FA00080E1E82EF12C97E8992ED8CF83019E017D
:102FB0002F5D3F4F41E050E04C0F5D1F4E0D5F1DF8
:102FC000BE016F5F7F4FC70159D661E070E06C0FA3
:102FD0007D1F6E0D7F1DA701CE0101960E945670C8
:102FE000A701BE016F5F7F4FC5010E945670198116
:102FF000B701C50163DF17FF07C0F7013197EA0D7D
:10300000FB1D808189258083A701B501C6010E942F
:103010005670F5011081B701C60150DF17FF09C0D6
:10302000F1E0EF1AF108F601EE0DFF1D8081982600
:10303000908281E07DCF2F923F924F925F926F926C
:103040007F928F929F92AF92BF92CF92DF92EF9238
:10305000FF920F931F93CF93DF93CDB7DEB7E19726
:10306000CDBFDEBF89AB3B01BA0159014801170151
:103070007A01E20EF31EA901C7010E94567089A9C8
:103080008A3129F08A3409F45AC010E07EC008E081
:103090001A2D198E1A8E86E1FE017B96DF01982F7C
:1030A0001D929A95E9F719821A827897DF011D928D
:1030B0008A95E9F79E012F5F3F4FAE01475E5F4F54
:1030C000B30189A91ADF95013327402E512CAA207C
:1030D00049F08A2D602F0E94536F911103C02C1567
:1030E0003D05A8F511E01A0D2E0D3F1D80E8F901F0
:1030F0008083212F30E0812F602F0E94536F911128
:1031000020C02C153D05E8F0C90184199509A201DC
:10311000BE016F5F7F4F8E0D9F1DBDDEB9A9BA3115
:10312000F1F0BA3409F0B1CF812F90E0A701480F38
:10313000591F83019401B7010E94281019C000E1B2
:10314000A7CF1F5F2E0D3F1DD9011C92D2CFC90101
:1031500084199509A201BE01675E7F4FDCCF812FE4
:1031600090E0A701480F591F83019401B70186D54C
:1031700011E0892B09F410E02114310409F485CF02
:10318000A201B401C1010E945670812FE196CDBF0A
:10319000DEBFDF91CF911F910F91FF90EF90DF90F5
:1031A000CF90BF90AF909F908F907F906F905F90E7
:1031B0004F903F902F900895CF92DF92EF92FF9221
:1031C0000F931F93D12CC12C36DF1F910F91FF90CD
:1031D000EF90DF90CF900895CF92DF92EF92FF9221
:1031E0000F931F93CF93DF937C01EB016417750757
:1031F00030F14830510569F56B0188E0C81AD108F3
:10320000CE0DDF1D0FEF18E29601AE016FE079E2FF
:103210008AE1D9DD88E0FE01A0EAB8E201900D92D2
:103220008A95E1F7B7016C0D7D1D48E050E080EA1A
:1032300098E20E9449709C0181E0232B09F080E014
:10324000DF91CF911F910F91FF90EF90DF90CF9082
:1032500008954031510599F76B0180E1C81AD108F2
:10326000CE0DDF1D0FEF18E29601AE016FE079E29F
:103270008AE4A9DD80E1FE01A0EAB8E201900D92A6
:103280008A95E1F7B7016C0D7D1D40E150E0CFCF8D
:10329000AF92BF92CF92DF92EF92FF920F931F9364
:1032A000CF93DF938C016B017A0188E0F801A0E9EC
:1032B000B8E201900D928A95E1F788E0F801A8E85C
:1032C000B8E201900D928A95E1F788E0F801A0E854
:1032D000B8E201900D928A95E1F7E0EAF8E288E021
:1032E000DF011D928A95E9F75B01A40EB51ECA01A4
:1032F00087709927EA01892B51F0C87F2896AE0183
:103300004E195F0970E060E0C5010E947070A6016F
:103310004C0F5D1F20EA38E2B601CE01AFD42897EA
:10332000F601EC0FFD1F84E0A0EAB8E201900D92D7
:103330008A95E1F784E0E0EAF8E2D50101900D9288
:103340008A95E1F7C7010496DF91CF911F910F9104
:10335000FF90EF90DF90CF90BF90AF900895AF9225
:10336000BF92CF92DF92EF92FF920F931F93CF9372
:10337000DF936C01EB015A016417750708F45BC019
:1033800088E0EFE0F9E2A0E9B8E201900D928A95B9
:10339000E1F788E0EFE0F9E2A8E8B8E201900D92E9
:1033A0008A95E1F788E0EFE0F9E2A0E8B8E2019061
:1033B0000D928A95E1F7E0EAF8E288E0DF011D92DC
:1033C0008A95E9F7CB01877099277B01892B79F0E2
:1033D000B8EFEB2288E0E80EF11CA701461B570B63
:1033E00070E060E0C6018C0F9D1F0E947070A60106
:1033F0004E0D5F1D0FE019E220EA38E2B601C70169
:103400003DD4F7013897EC0DFD1D84E0A0EAB8E249
:1034100001900D928A95E1F7CE018A199B0944E04B
:1034200050E060EA78E28C0D9D1D0E9449709C017D
:1034300081E0232B09F080E0DF91CF911F910F9164
:10344000FF90EF90DF90CF90BF90AF9008952F92B4
:103450003F924F925F926F927F928F929F92AF9224
:10346000BF92CF92DF92EF92FF920F931F93CF9371
:10347000DF93CDB7DEB76097CDBFDEBF4C011B0138
:103480004D835E8329833A832801ED86FE862DB71E
:103490003EB72F87388BDC0112962D913C91CB01E2
:1034A0000197820F931FB9010E945F6F6F83788726
:1034B000C101B9010E945F6F89879A87EDB7FEB796
:1034C000E21BF30BEDBFFEBF8DB79EB701966C01FB
:1034D000ADB7BEB7A21BB30BADBFBEBFEDB7FEB756
:1034E00031965F01A9010115110541F470E060E01A
:1034F000CF010E947070712C612C43C0B801CF01C4
:103500000E945670F8CF93012F5F3F4F2B833C836F
:10351000D40112960D911C918091F028813009F010
:10352000C4C06114710409F069C0A80170E060E0D2
:10353000C6010E947070A8016D817E81C6010E9443
:1035400056700A0D1B1DA601C5018017910709F0D1
:103550004BC0D40112968D919C911397689EB00137
:10356000699E700D789E700D1124E981FA816E0FAD
:103570007F1FED91FC914D855E85C60119956B808D
:103580007C802F8138856216730609F0BCCF411408
:10359000510441F0D40112964D915C91B501C201E4
:1035A0000E94567081E090E0E985FA85EF2B11F4D6
:1035B00090E080E02F8538892DBF3EBF6096CDBF5B
:1035C000DEBFDF91CF911F910F91FF90EF90DF90C1
:1035D000CF90BF90AF909F908F907F906F905F90B3
:1035E0004F903F902F900895DA012D91FC01319179
:1035F000CF012327FA012083AD01A7CFC301019793
:10360000809F7001819FF00C909FF00C1124298104
:103610003A812E0D3F1D2B873C87E00EF11E8D81D8
:103620009E81E80EF91EA985BA85A801AB2B39F158
:10363000EF81F8852B813C81E217F30701F570E0FB
:1036400060E0C6010E947070C101B8010E945F6F06
:10365000AC016B857C85C6010E9456700E0D1F1D46
:10366000F601E016F10609F474CFDF012D91CD01CA
:10367000D7013D917D0123272083FC01F2CF6B858B
:103680007C85C6010E9456700E0D1F1DF601E016C6
:10369000F10609F45ECFDF012D91CD01D7013D91F7
:1036A0007D0123272083FC01F2CF609E7001619E83
:1036B000F00C709EF00C1124ED81FE81EE0EFF1EC9
:1036C00029853A85A801232B89F08F819885AB81C4
:1036D000BC818A179B0751F470E060E0C6010E942C
:1036E0007070C101B8010E945F6FAC01B701C601E3
:1036F0000E9456700A0D1B1DA601C5018017910777
:1037000049F5D40112968D919C911397689EB00152
:10371000699E700D789E700D1124E981FA816E0FFB
:103720007F1FED91FC914D855E85C6011995D401F1
:1037300012964D915C91649EB001659E700D749ED1
:10374000700D1124E981FA816E0F7F1FC5010E945F
:10375000567015CFDA012D91FC013191CF0123274D
:10376000FA012083AD01CACF2F923F924F925F9210
:103770006F927F928F929F92AF92BF92CF92DF9281
:10378000EF92FF920F931F93CF93DF93CDB7DEB7E6
:103790002E97CDBFDEBF1C012B013A0129833A834E
:1037A0004801EB86FC862DB73EB72D873E87DC01AE
:1037B00012962D913C91CB010197820F931FB90175
:1037C0000E945F6F6B837C83C201B9010E945F6FAF
:1037D0008D839E83EDB7FEB7E21BF30BEDBFFEBFFB
:1037E0008DB79EB701966C01ADB7BEB7A21BB30BE8
:1037F000ADBFBEBFEDB7FEB731967F01A901011580
:10380000110541F470E060E0CF010E94707010E09B
:1038100000E042C0B801CF010E945670F8CFD1013C
:103820001296AD90BC901397A09EB001A19E700D12
:10383000B09E700D1124F8013196EF83F8878091C6
:10384000F028813009F005C129813A81620F731F88
:10385000ED91FC914B855C85C6011995D1011296BD
:103860004D915C910115110509F07BC0ED81FE8140
:10387000EF2B09F04EC0B601C3010E945670D10172
:1038800012962D913C912E0D3F1DB301C701821759
:103890009307A9F50F811885EB81FC810E171F078F
:1038A00009F0BDCF8114910441F0D10112964D91E0
:1038B0005C91B701C4010E94567081E090E0ED81F7
:1038C000FE81EF2B11F490E080E02D853E852DBF29
:1038D0003EBF2E96CDBFDEBFDF91CF911F910F91DE
:1038E000FF90EF90DF90CF90BF90AF909F908F9020
:1038F0007F906F905F904F903F902F900895DB01E5
:103900004D91FC015191CF014527FB014083BD0141
:10391000BECF2B813C812130310509F068C0C20146
:10392000BA010E945F6FAC01B601C3010E945670DC
:10393000D10112966D917C91C2010E945F6F8E0D34
:103940009F1DB30197012817390709F4A3CFDB01A5
:103950004D91F90151919F014527FB014083BD0124
:10396000F2CF2D813E81232B09F441C08B819C81B4
:10397000AF81B8858A179B07D1F5049F9001059FF9
:10398000300D149F300D1124C201BA010E945F6FE7
:10399000AC01B601C301820F931F0E945670F10162
:1039A0006281738101501109069FF001079FF00D9C
:1039B000169FF00D112429813A812E0F3F1FE60F2B
:1039C000F71F8F01060D171DC2010E945F6F820F46
:1039D000931F8217930709F45DCFD8014D91F90128
:1039E00051919F014527F80140838D01F2CF049F3B
:1039F000C001059F900D149F900D1124B601860DF6
:103A0000971D0E945670D10112962D913C91015044
:103A10001109029FF001039FF00D129FF00D112478
:103A200089819A818E0F9F1FE20FF31FBF01660DE0
:103A3000771D280F391F2817390709F42BCFDB0111
:103A40004D91FC015191CF014527FB014083BD0100
:103A5000F2CF9301260F371F29873A878D819E81E8
:103A6000892BE1F1AB81BC81EF81F885AE17BF07EF
:103A7000A9F5A50170E060E0C6010E947070C20166
:103A8000B5010E945F6FAC0169857A85C6010E940D
:103A90005670D101ED91FC914B855C85B60189850D
:103AA0009A851995F10122813381029FF001039FCC
:103AB000F00D129FF00D1124BF01660D771D2E0D24
:103AC0003F1DC7012817390779F4D10112964D918E
:103AD0005C91B601C7010E945670DCCE29813A8103
:103AE000620F731FA501D2CFDB014D91FC015191F3
:103AF000CF014527FB014083BD01E4CF8F929F9208
:103B0000AF92BF92EF92FF920F931F93CF93DF93E9
:103B100000D00F92CDB7DEB77801809055209090FD
:103B20005620A0905720B090582089829A82AB826C
:103B3000BC8289019A01AB01BC01CE01019687DCF0
:103B40002496CDBFDEBFDF91CF911F910F91FF90E3
:103B5000EF90BF90AF909F908F9008958F929F921B
:103B6000AF92BF92EF92FF920F931F93CF93DF9389
:103B700000D00F92CDB7DEB7780180905920909099
:103B80005A20A0905B20B0905C2089829A82AB8200
:103B9000BC8289019A01AB01BC01CE010196E4DD32
:103BA0002496CDBFDEBFDF91CF911F910F91FF9083
:103BB000EF90BF90AF909F908F9008958F929F92BB
:103BC000AF92BF92EF92FF920F931F93CF93DF9329
:103BD00000D00F92CDB7DEB7780180905D20909035
:103BE0005E20A0905F20B090602089829A82AB8294
:103BF000BC8289019A01AB01BC01CE01019627DC90
:103C00002496CDBFDEBFDF91CF911F910F91FF9022
:103C1000EF90BF90AF909F908F9008958F929F925A
:103C2000AF92BF92EF92FF920F931F93CF93DF93C8
:103C300000D00F92CDB7DEB77801809061209090D0
:103C40006220A0906320B090642089829A82AB8227
:103C5000BC8289019A01AB01BC01CE01019684DDD1
:103C60002496CDBFDEBFDF91CF911F910F91FF90C2
:103C7000EF90BF90AF909F908F9008958F929F92FA
:103C8000AF92BF92EF92FF920F931F93CF93DF9368
:103C900000D00F92CDB7DEB778018090652090906C
:103CA0006620A0906720B090682089829A82AB82BB
:103CB000BC8289019A01AB01BC01CE010196C7DB30
:103CC0002496CDBFDEBFDF91CF911F910F91FF9062
:103CD000EF90BF90AF909F908F9008958F929F929A
:103CE000AF92BF92EF92FF920F931F93CF93DF9308
:103CF00000D00F92CDB7DEB7780180906920909008
:103D00006A20A0906B20B0906C2089829A82AB824E
:103D1000BC8289019A01AB01BC01CE01019624DD70
:103D20002496CDBFDEBFDF91CF911F910F91FF9001
:103D3000EF90BF90AF909F908F900895CF93DF93B7
:103D4000EB012097D9F0AB01495F5F4F403422E08F
:103D50005207D8F423E0569547952A95E1F7BC0120
:103D600081E399E20E945670C13482E0D80710F0D6
:103D7000C0E4D2E0C0932F29D093302980912F291D
:103D800090913029DF91CF91089548E450E0E7CF3A
:103D9000089580E00C94973808956F927F928F92E7
:103DA0009F92AF92BF92CF92DF92EF92FF920F93CA
:103DB0001F93CF93DF93CDB7DEB7A097CDBFDEBF04
:103DC0007C01CB01009709F47DC0D7012C91243CE4
:103DD00009F078C04B01B2E08B1A91085401EFE072
:103DE000AE22BB24A114B10409F07EC020E1EDE6AF
:103DF000F0E2DE01519601900D922A95E1F76701FC
:103E0000F2E0CF0ED11C3701660E771E0FE019E2EB
:103E10009E012F5E3F4FA601B301C4010E9407110E
:103E2000A401B301C6010E945F70D70111966C9185
:103E300080910B20681739F18091D02910D68E30EF
:103E400011F520E130E0AE014F5F5F4FF701618176
:103E50008091D0291FD7F601AE014D5F5F4F22E15F
:103E6000E20EF11C9191DA018D91AD019F0121507B
:103E700031099827D9019C93EE15FF0599F782E146
:103E8000A82EB12C1EC0F70183889488C588D688D7
:103E900063E170E0C7010E947512D70153968C91BF
:103EA000539788120EC054968C915497981209C05B
:103EB00055968C915597C81204C056968C91D81679
:103EC000F1F2C501A096CDBFDEBFDF91CF911F916A
:103ED0000F91FF90EF90DF90CF90BF90AF909F90A9
:103EE0008F907F906F9008955B01EBCF0F931F939E
:103EF000CF93DF93EC01CB01009709F44CC02881EC
:103F00002F3A19F02BE020930A20BC01CE0145DFA7
:103F10008C01AC01BE0183EE0E94AF4F80910A205C
:103F2000843109F451C0C0F48E3009F443C058F410
:103F30008C30B1F18D30C9F18B3039F181EC88834F
:103F400081E090E026C08031D1F18231B9F7B8012B
:103F5000CE010E94E84D1DC08731D9F148F485316A
:103F6000C1F1863159F7B801CE010E94934811C0C2
:103F70008831A1F1893111F7B80161507109CE0181
:103F800001960E94F33390E004C0B801CE010E9474
:103F9000D54C10927929DF91CF911F910F910895FF
:103FA000B801CE010E940D4DF4CFB801CE010E94A0
:103FB0002D4DEFCFB801CE010E946A2BEACFB80198
:103FC000CE010E94374DE5CFB801CE010E94D74EF9
:103FD000E0CFB801CE010E94A548DBCFCE010E9400
:103FE000D933D7CFCF92DF92EF92FF920F931F93E7
:103FF000CF93DF93EC019B01295F3F4FB90143E071
:10400000769567954A95E1F728303105E0F44091BF
:104010002F2950913029495F5F4F33E056954795DE
:104020003A95E1F761E379E20E94567080912F2979
:1040300090913029DF91CF911F910F91FF90EF90D8
:10404000DF90CF9008958881809309202031310539
:10405000A0F199819F3A89F5803911F081113CC016
:104060008B01015011096E018FEFC81AD80AA801FF
:10407000B601CE010E945F70B801CE0137DF8C011E
:10408000892BA1F08881FE01E00FF11F8083780168
:1040900081E0E81AF108A701B601CE010E945F7025
:1040A000CE0DDF1D81E988830F5F1F4FC80123E01C
:1040B000880F991F2A95E1F7BDCF2832310550F0BE
:1040C000803911F0811108C09A81911103C09B8140
:1040D000992329F0882329F0CE0108DFE8CF811148
:1040E0000DC0CE010E942E3B009741F098278927F2
:1040F00098278883998380E190E09CCF8C81082F5A
:1041000010E099819883882341F0A801BE016B5F7C
:104110007F4FCE0101960E945F70B8016F5F7F4FA5
:10412000CE01E4DE8C01892B09F4C0CF80910920F7
:10413000882309F4BBCF8881FE01E00FF11F808343
:10414000780181E0E81AF108BE016F5F7F4FA70197
:10415000A4CF8F929F92AF92BF92CF92DF92EF92B5
:10416000FF920F931F93CF93DF930F920F92CDB7D0
:10417000DEB78C017B014B0127E0820E911CA8E485
:10418000CA2ED12C80E4881682E0980630F46401AF
:10419000B3E0D694C794BA95E1F780912F29909116
:1041A0003029009761F08E159F0549F4A60161E35F
:1041B00079E2C8010E944970892B09F444C0B70113
:1041C000C801BCDD80932F299093302998E0C9164F
:1041D000D10408F494C0F8018181803911F0811173
:1041E00093C0F80182818F3A09F08EC083818111DA
:1041F0008BC08481811188C0A580B12CC60108972D
:10420000A816B90629F00197A816B90609F07CC0CE
:1042100080910A2094EF980F933050F0982F9D7F53
:10422000903131F0843121F08851823008F06CC037
:1042300021E0A601B8018091F4280E94FF52892B49
:1042400091F4F12CE12CC7010F900F90DF91CF91E9
:104250001F910F91FF90EF90DF90CF90BF90AF90A4
:104260009F908F900895F80190808281808385814E
:10427000E82EF12C882341F0A701B8016A5F7F4F37
:10428000C80101960E945F70B7016F5F7F4FC80140
:104290002DDE0097B1F2F80140819082F9E0CF1A4B
:1042A000D108AC14BD0469F49C012F5F3F4F800F0F
:1042B000911F51E9FC015083F801E20FF31F408385
:1042C000C901AC014F5F5F4FB8018091F4280E9493
:1042D000BC53BC01F3E0660F771FFA95E1F7C80104
:1042E0000F900F90DF91CF911F910F91FF90EF9062
:1042F000DF90CF90BF90AF909F908F901FCDF3E055
:10430000CF16D10408F499C1F80122812F3A09F09F
:104310003FC080910A2094EF980F933048F0982F77
:104320009D7F903129F0843119F08851823080F5D9
:10433000F8018081918189839A8321E0A601B801E7
:104340008091F4280E94FF527C01892B09F47BCFD5
:10435000F2E0EF1AF108680122E0C20ED11CA701B9
:10436000B601C8010E945F70B701C801BFDD7C01C2
:10437000009729F0AC01B801C6010E945F708981E5
:104380009A81F80180839183A7014E5F5F4F9CCF94
:10439000F6E0CF16D10408F450C1F80190819039AD
:1043A00011F09111B3C1F80181818F3A09F058C021
:1043B000211156C08381811153C08481A6014850C8
:1043C00051098417150609F04BC080910A2034EF7B
:1043D000380F333048F0382F3D7F303129F08431A9
:1043E00019F088518230E0F521E0A601B8018091F2
:1043F000F4280E94FF52892B09F423CFF801818110
:1044000080838481E82EF12C882341F0A701B80134
:104410006B5F7F4FC80101960E945F70B7016F5FAD
:104420007F4FC80163DD7C01892B09F40ACFF801B5
:104430008081EE0DFF1D80836701F1E0CF1AD10866
:10444000B8016F5F7F4FA601C8010E945F70F8013D
:10445000EC0DFD1D81E98083A7014D5F5F4F34CFD7
:1044600088E0C816D10408F4E8C0903911F0911121
:1044700052C1211150C1F801838181114CC1848145
:104480009601285031098217130609F044C1909310
:104490000920A40173E0569547957A95E1F720E04D
:1044A000B8018091F4280E94FF52BC01E3E0660F3E
:1044B000771FEA95E1F7C80195DD079688309105E9
:1044C00008F4BFCEAC0163E0569547956A95E1F7D5
:1044D000FBCE80E9C0C08330F1F480910920F8015F
:1044E00080838FEA8183F4E0EF16F10450F0A70196
:1044F00043505109B8016D5F7F4FC80105960E9476
:104500005F70F801128213828BEF8E0D8483F2E0CC
:10451000EF0EF11CC1C0823009F0BEC080910920AD
:10452000F801808382818183A70143505109B8013A
:104530006D5F7F4FC80105960E945F70F80112827F
:1045400013828BEF8E0D8483A7C0409708F4CFC0F1
:1045500022E0E21AF108CBC0F5E0CF16D104B8F1A1
:1045600080911A20833011F0883089F5F80180811C
:10457000803E69F1863259F1823549F1843539F14D
:10458000B701C8010E94A839811121C021E0A6010C
:10459000B8018091F4280E94FF528330910558F0B1
:1045A000BC0162507109C80102960E94D54CAC0151
:1045B000892B09F0EACEB701C8010E94BA39BC01C3
:1045C000089708F48CCE695F7F4F687F88CEF8E04B
:1045D000EF16F10480F380911A20833011F08830B7
:1045E00051F7F8018081803E31F3863221F3823524
:1045F00011F3843501F3B701C8010E94A839811174
:10460000DACFB601C8010E94D54CAC01892B99F2D2
:104610005BCEF9E0CF16D10480F081110EC0F80115
:10462000838181110AC08481811107C02581C6015F
:1046300009972817190609F47FC0B601C8010E941E
:10464000133B8093F228882309F486CF813009F048
:1046500040CFF801828180930920F8018081918107
:1046600089839A8320E0A601B8018091F4280E94F2
:10467000FF527C01892B09F4E6CD8091F22881302C
:1046800009F029CFF2E0EF1AF108A701B8016E5F37
:104690007F4FC8010E945F70B70183E0660F771FEC
:1046A0008A95E1F7C8019EDC07967C0123E0F69429
:1046B000E7942A95E1F72091F2282130C1F0883063
:1046C0009105A8F06801CE0CDF1CF60120812223A1
:1046D00009F43BCFA701B801C80101960E945F70A1
:1046E000F6018081F8018083F1E0EF1AF108E1140E
:1046F000F10409F444CEA701B801C80102963DCEE9
:1047000029E0C216D10408F08ACF97CF88E0C816F6
:10471000D10408F492CFF8018181803909F079CF72
:1047200083818111EDCF84818111EACF2581C6017A
:1047300008972817190621F721E0A601B8018091F2
:10474000F4280E94FF527C01892B09F47ACDF801EC
:10475000B080818180930920F1E0EF1AF1086801AF
:104760002FEFC21AD20AA701B601C8010E945F70DA
:10477000B70143E0660F771F4A95E1F7C80132DCC5
:1047800007968830910508F45CCD33E096958795BF
:104790003A95E1F77C01EFEFEE1AFE0AA701B801A6
:1047A000C6010E945F70F801B082A7018DCD80E044
:1047B0000E94B92F8BE080930A2008950E94A538AB
:1047C0000C94B338EAEFF9E284E3DF011D928A9595
:1047D000E9F7E5EEF9E285E1DF011D928A95E9F757
:1047E000E1EDF9E284E1DF011D928A95E9F7E5EB5D
:1047F000F9E28BE1DF011D928A95E9F7E4EAF9E23B
:1048000080E1DF011D928A95E9F71092D0298FEFA0
:104810008093B429CCDFD2CF1F93CF93DF93182F8F
:10482000D62FC42FCFDF8AE080930A201092F12880
:10483000D1506C2F812FD23058F40E943952C111BF
:104840000E940D501092FD28DF91CF911F91089585
:104850000E94E951F4CF40E060E088E1DDCF41E023
:1048600060E088E1D9CF40E061E086E1D5CF41E06A
:1048700061E086E1D1CF40E061E088E1CDCF41E069
:1048800061E088E1C9CF40E062E088E1C5CF41E066
:1048900062E088E1C1CF0C9470520C94795260911F
:1048A000352A7091362A45E150E085EE99E20C9464
:1048B000B84F1F93CF93DF93CDB7DEB76597CDBFCA
:1048C000DEBF182F8091E529681700F56430F0F4F9
:1048D000E62FF0E0EE0FFF1FEB51F64D6585768574
:1048E00045E150E0CE0101960E94B14F8A859B853B
:1048F000163019F1A8F4133099F158F4113069F118
:104900008C81123059F18A81112341F190E080E0CD
:1049100014C088859985143081F48E819F810DC0E3
:104920008A899B89193049F078F48C859D851730E8
:1049300021F088899989183049F76596CDBFDEBF87
:10494000DF91CF911F9108958E859F851A30A9F32D
:104950008C899D891B3089F3D9CF8B8190E0EDCF75
:104960008D81FCCFCF92DF92EF92FF921F93CF9376
:10497000DF93CDB7DEB76597CDBFDEBF182F7A01C5
:104980008091E5296817D8F46430C8F4C62ED12C7C
:10499000CC0CDD1CF601EB51F64D6585768545E1C5
:1049A00050E0CE0101960E94B14F1630E9F1B8F403
:1049B0001330A9F178F4112319F1123071F16596D1
:1049C000CDBFDEBFDF91CF911F91FF90EF90DF90C1
:1049D000CF900895143029F5EE82FF8212C019306D
:1049E00049F138F4173019F1183049F7E88AF98A93
:1049F00008C01A3011F11B3011F7EC8AFD8A01C092
:104A0000EA82F601EB51F64D6585768545E150E089
:104A1000CE0101960E94B84FD2CFEC82F2CFED8248
:104A2000F0CFE886F986EDCFEA86FB86EACFEC8602
:104A3000FD86E7CFEA8AFB8AE4CFEE86FF86E1CFE8
:104A4000682F81E036CFCF93C62F633028F4F8DF8C
:104A5000982F81E0C91708F080E0CF9108951F9347
:104A6000CF93DF9300D0CDB7DEB7162F8430D0F4CC
:104A70006330C0F4682F84E01CDFBC0143E050E0E9
:104A8000CE0101960E94B14FE1E0F0E0EC0FFD1F76
:104A9000E10FF11D80812396CDBFDEBFDF91CF9165
:104AA0001F91089580E0F7CF60E080E0D8DF847048
:104AB000089560E08091D029D2DF82700895EF924E
:104AC000FF920F931F93CF93DF9300D0CDB7DEB744
:104AD000162F042F8430D8F46330C8F4682F84E094
:104AE000E8DE7C0143E050E0BC01CE0101960E946B
:104AF000B14FE1E0F0E0EC0FFD1FE10FF11D00838D
:104B000043E050E0B701CE0101960E94B84F2396D2
:104B1000CDBFDEBFDF91CF911F910F91FF90EF903E
:104B200008951F93CF93DF9300D0CDB7DEB7162F34
:104B30008430D0F46330C0F4682F88E0BADEBC0162
:104B400043E050E0CE0101960E94B14FE1E0F0E079
:104B5000EC0FFD1FE10FF11D80812396CDBFDEBF5D
:104B6000DF91CF911F91089580E0F7CFEF92FF92F0
:104B70000F931F93CF93DF9300D0CDB7DEB7162FDF
:104B8000042F8430D8F46330C8F4682F88E091DEB5
:104B90007C0143E050E0BC01CE0101960E94B14F80
:104BA000E1E0F0E0EC0FFD1FE10FF11D008343E0B9
:104BB00050E0B701CE0101960E94B84F2396CDBFB9
:104BC000DEBFDF91CF911F910F91FF90EF9008957D
:104BD0000F931F93CF93DF9300D0CDB7DEB7082F8D
:104BE000162F843048F080E02396CDBFDEBFDF91E2
:104BF000CF911F910F91089526DF8823A1F3602F95
:104C000089E057DEBC0143E050E0CE0101960E94EE
:104C1000B14FE1E0F0E0EC0FFD1FE10FF11D8081ED
:104C2000E3CFDF92EF92FF920F931F93CF93DF9327
:104C300000D0CDB7DEB7082F162FD42E8430E0F485
:104C400002DF8823C9F0602F89E033DE7C0143E076
:104C500050E0BC01CE0101960E94B14FE1E0F0E0CE
:104C6000EC0FFD1FE10FF11DD08243E050E0B701D2
:104C7000CE0101960E94B84F2396CDBFDEBFDF91D3
:104C8000CF911F910F91FF90EF90DF900895682FC3
:104C90008BE00FCECF92DF92EF92FF920F931F9394
:104CA000CF93DF930F920F92CDB7DEB7082F162F59
:104CB0006A0179018430D8F4C6DE8823C1F081E22C
:104CC000E816F104A0F4802FE2DF612F70E0660F98
:104CD000771F680F791F42E050E0CE0101960E94D5
:104CE000B14F69817A81A701C6010E94B14F0F902F
:104CF0000F90DF91CF911F910F91FF90EF90DF9078
:104D0000CF900895CF92DF92EF92FF921F93CF93AF
:104D1000DF930F920F92CDB7DEB7162F6A0179019C
:104D20008430C0F46330B0F42132310598F4AFDF41
:104D3000612F70E0660F771F680F791F42E050E027
:104D4000CE0101960E94B14F69817A81A701C60107
:104D50000E94B84F0F900F90DF91CF911F91FF905D
:104D6000EF90DF90CF900895462F50E0682F82E0BB
:104D7000F9CD1F93CF93DF9300D00F92CDB7DEB75D
:104D8000162F843098F4682F85E093DDBC0144E051
:104D900050E0CE0101960E94B14FFE01319680E0B5
:104DA0009191911721F08F5F8430D1F784E02496A0
:104DB000CDBFDEBFDF91CF911F910895CF93DF93D9
:104DC00000D00F92CDB7DEB7682F843030F0249634
:104DD000CDBFDEBFDF91CF91089585E06ADDBC01D4
:104DE00044E050E0CE0101960E94B14FFE013196A1
:104DF00080E091919F3F59F38F5F8430D1F7E7CFE7
:104E0000EF92FF920F931F93CF93DF9300D00F92F7
:104E1000CDB7DEB7162F042F8430D8F46430C8F431
:104E2000682F85E046DD7C0144E050E0BC01CE0106
:104E300001960E94B14FE1E0F0E0EC0FFD1FE10FA1
:104E4000F11D008344E050E0B701CE0101960E94BD
:104E5000B84F2496CDBFDEBFDF91CF911F910F9148
:104E6000FF90EF9008951F93CF93DF93CDB7DEB7F8
:104E70002897CDBFDEBF162F843008F56430F8F4D4
:104E80006091D0298AE015DDBC0148E050E0CE01F8
:104E900001960E94B14F612F70E0660F771F81E08D
:104EA00090E08C0F9D1F680F791FFB01808191811D
:104EB0002896CDBFDEBFDF91CF911F91089590E07E
:104EC00080E0F6CFCF93DF93CDB7DEB76B97CDBF42
:104ED000DEBFC9DFBC018FEF6115710539F04BE111
:104EE00050E0CE0101960E94B14F89816B96CDBFF3
:104EF000DEBFDF91CF910895CF93DF93CDB7DEB7BB
:104F00006B97CDBFDEBFAFDFBC018FEF9FEF6115A9
:104F1000710541F04BE150E0CE0101960E94B14F86
:104F20008B819C816B96CDBFDEBFDF91CF910895C1
:104F30001F93CF93DF9300D00F92CDB7DEB7162F1C
:104F40008430D0F46430C0F4682F86E0B2DCBC0159
:104F500044E050E0CE0101960E94B14FE1E0F0E064
:104F6000EC0FFD1FE10FF11D80812496CDBFDEBF48
:104F7000DF91CF911F91089580E0F7CFEF92FF92DC
:104F80000F931F93CF93DF9300D00F92CDB7DEB76F
:104F9000162F042F8430D8F46430C8F4682F86E0CC
:104FA00088DC7C0144E050E0BC01CE0101960E9407
:104FB000B14FE1E0F0E0EC0FFD1FE10FF11D0083C8
:104FC00044E050E0B701CE0101960E94B84F24960C
:104FD000CDBFDEBFDF91CF911F910F91FF90EF907A
:104FE00008951F93CF93DF93CDB7DEB72897CDBF3A
:104FF000DEBF162F843000F56430F0F4682F87E0B0
:1050000058DCBC0148E050E0CE0101960E94B14F4F
:10501000612F70E0660F771F81E090E08C0F9D1F7D
:10502000680F791FFB01808191812896CDBFDEBF7B
:10503000DF91CF911F91089590E080E0F6CFCF925D
:10504000DF92EF92FF921F93CF93DF93CDB7DEB73E
:105050002897CDBFDEBF162F7A018430F0F464307C
:10506000E0F4682F87E025DC6C0148E050E0BC01EB
:10507000CE0101960E94B14FE12FF0E0EE0FFF1F2D
:1050800081E090E08C0F9D1FE80FF91FE082F18214
:1050900048E050E0B6010E94B84F2896CDBFDEBF71
:1050A000DF91CF911F91FF90EF90DF90CF90089507
:1050B000CF92DF92EF92FF921F93CF93DF93CDB702
:1050C000DEB7A397CDBFDEBF6C01142FCE010196D2
:1050D0007C018BE1F70111928A95E9F7643010F4B5
:1050E000443088F08BE1F60111928A95E9F7C60108
:1050F000A396CDBFDEBFDF91CF911F91FF90EF90C0
:10510000DF90CF9008958AE0D4DBBC0148E050E006
:10511000CE014C960E94B14FE12FF0E0EE0FFF1F41
:10512000EE0DFF1D638D748D4BE150E0C7010E94B1
:10513000B14F8BE1F701D60101900D928A95E1F70D
:10514000D6CFEF92FF921F93CF93DF93CDB7DEB709
:105150002897CDBFDEBF162F7A01843040F564302A
:1051600030F5452B21F1682F8AE0A3DBBC0148E034
:1051700050E0CE0101960E94B14F612F70E0660FA2
:10518000771F81E090E08C0F9D1F680F791FFB0156
:10519000608171814BE150E0C7010E94B84F8BE103
:1051A000F701A5EBB9E201900D928A95E1F72896F7
:1051B000CDBFDEBFDF91CF911F91FF90EF9008959B
:1051C000EF92FF920F931F93CF937C0106EE19E2AB
:1051D000C0E043E050E0B701C8010E944970892B4C
:1051E00029F0CF5F0D5F1F4FC43099F78C2FCF91FF
:1051F0001F910F91FF90EF9008950F931F93CF93FE
:10520000C82FE091D029E81741F1A82FB0E0AA0FEC
:10521000BB1FAB51B64D1D960D911C91011511058B
:10522000E1F0EF3F69F0F0E0EE0FFF1FEB51F64DBC
:105230006585768545E150E080ED99E20E94B84FA2
:1052400045E150E0B80180ED99E20E94B14FC09372
:10525000D029CF911F910F9122CBCF911F910F9108
:105260000895AEDF843020F4C8DF90E080E0089538
:1052700080EA90E0089580E0C0CF81E09091D0294D
:10528000911180E008952F923F924F925F926F921A
:105290007F928F929F92AF92BF92CF92DF92EF92C6
:1052A000FF920F931F93CF93DF93CDB7DEB7C05418
:1052B000D109CDBFDEBF7C01262E042F2DB73EB70E
:1052C00021962EAF3FAF2197DC018C9181110FC049
:1052D00011968C91119781110AC012968C911091A0
:1052E000E529182B09F455C0882309F48AC1C701A0
:1052F00067DF843009F085C11091E5298EEC90E0DC
:10530000143050F51CAEE3E080E490E0E21520F1AB
:10531000E5EEF9E233243394131531F0848195815D
:10532000892B9681892B29F03394339624E032120D
:10533000F3CF412E512C8091262090E00E94E34F24
:105340003201660C771CF301EB51F64D8587968789
:10535000892B11F58EE090E02196EEADFFAD2197FF
:10536000EDBFFEBFC05CDF4FCDBFDEBFDF91CF9191
:105370001F910F91FF90EF90DF90CF90BF90AF9073
:105380009F908F907F906F905F904F903F902F9065
:105390000895B1E0BCAFB7CFFE01B69680E1DF0162
:1053A0001D928A95E9F719A381E08AA32BA21CA27A
:1053B0008091FD288DA38091252090E00E94E34FED
:1053C000BC018EA39FA3892B29F221E031E0029F2B
:1053D000C001039F900D11248A839B83098343E0BE
:1053E00050E08E010F5F1F4FC8010E94B84F80919F
:1053F000242090E00E94E34F6C0188A799A7892B95
:1054000009F4A8CF44E050E06FEF70E0C8010E94BB
:10541000707044E050E0B601C8010E94B84F80911E
:10542000232090E00E94E34FBC018AA79BA7892B11
:1054300009F490CF84E0F80111928A95E9F744E0ED
:1054400050E0C8010E94B84F8091222090E00E9455
:10545000E34FBC018CA79DA7892B09F47BCF8FE07C
:1054600090E089839A838B839C838D839E838F8333
:10547000988748E050E0C8010E94B84F80912120F1
:1054800090E00E94E34FBC0188AB99AB892B09F4F3
:1054900061CF83E0D8011D928A95E9F743E050E09F
:1054A000C8010E94B84F8091202090E00E94E34FF5
:1054B0006C018AAB9BAB892B09F44CCFEDB7FEB7DF
:1054C000EDAFFEAFA0902020B12C2DB73EB72A192A
:1054D0003B092DBF3EBF8DB79EB701964C01A5017C
:1054E00070E060E00E947070A501B601C4010E94E6
:1054F000B84FADADBEADADBFBEBF80911E2090E038
:105500000E94E34FBC018EA79FA7892B09F422CFED
:1055100088E0F80111928A95E9F748E050E0C80167
:105520000E94B84F80911F2090E00E94E34F8CAB07
:105530009DAB892B09F40ECF6E01F6E3CF0ED11C83
:1055400086E0D6011D928A95E9F75601912C9210BA
:105550004AC080E2D8011D928A95E9F76EA97FA919
:1055600040E250E0C8010E94B84F6CA97DA946E016
:1055700050E0C6010E94B84FF301EB51F64D65852E
:10558000768545E150E0CE0181960E94B84FBCADD2
:10559000BB2349F085E1FE01B196A0EDB9E201908F
:1055A0000D928A95E1F7F7018081F301E40DF51D75
:1055B000EB51F64D8183D70111968C91119782831F
:1055C00012968C91BFEF4B1A5B0AF201EE0FFF1F90
:1055D000E40DF51DEB51F64D80833092E5295FD93E
:1055E00090E080E0B9CE80911D2090E00E94E34FD2
:1055F000F501819391935F01892B09F4ABCE9394CC
:10560000A6CF8EED90E0A8CEDBDD843041F1282FCF
:1056100030E0F901EE0FFF1FE20FF31FEB51F64DE3
:10562000118212822F5F3F4FF901EE0FFF1FE20F31
:10563000F31FEB51F64D10829091E529891708F47C
:10564000982F9093E5292BD98091D029882311F0A8
:1056500080E08FD480E0D1DD90E080E0089580EAA2
:1056600090E008951092A4290895AC019091A42986
:1056700083E0989FF0011124EB51F64D20E0943027
:1056800018F0822F91E00CC031818281832B6381DD
:10569000862BE9F02C3E40F09093A429822F90E0D5
:1056A000A0E0BC018A2F0895DA01A20FB11D3C933E
:1056B0008281A1E0A20FA40FB52FB11D8C9383812D
:1056C000A2E0A20FA40FB52FB11D2D5F8C939F5F99
:1056D0003396D5CFCF93DF93EC010196C6DF9B01C4
:1056E000482F832F942F892B51F018828BE08093C1
:1056F0000A20822F90E00196DF91CF9108958FEAE2
:1057000088838EE0F4CFE091952CF091962C9581D2
:10571000915081E0943008F080E00895CF92DF92BC
:10572000EF92FF920F931F93CF93DF93CDB7DEB726
:10573000C057D109CDBFDEBF7B01E5DF81110EC0AF
:1057400089ECC059DF4FCDBFDEBFDF91CF911F91F4
:105750000F91FF90EF90DF90CF9008956E012DE2B2
:10576000C20ED11CDF92CF928E01075A1F4F1F939A
:105770000F9383E693E09F938F93FF92EF920E94A3
:10578000B870CDBFDEBF892B09F4FEC069961FAE8D
:105790006997F801178AA6016CE270E0CE010196C4
:1057A0000E948B5D7C016FE573E0C8010E9406706A
:1057B000892BD9F41981412F50E04E155F0509F06E
:1057C000BFCFCA010397429708F0BACFBE016F5FFF
:1057D0007F4F86E19AE20E94567010932A2A0E9417
:1057E00074500E940D5084E6ACCF6AE573E0C801A6
:1057F0000E940670892B79F4F2E0EF16F10409F0AB
:105800009FCF89818093142A8A818093152A81E011
:1058100080932E2AE4CF63E573E0C8010E940670EE
:10582000892B41F4EA94EF2809F08ACF898180938B
:10583000022AD5CF6CE473E0C8010E940670892B60
:1058400041F4EA94EF2809F07BCF89818093032A01
:10585000C6CF62E473E0C8010E940670892B41F450
:10586000EA94EF2809F06CCF89818093042AB7CF9E
:1058700066E373E0C8010E940670892B41F4EA9444
:10588000EF2809F05DCF89818093072AA8CF6FE2C6
:1058900073E0C8010E940670892B61F4F2E0EF16F4
:1058A000F10409F04DCF89818093052A8A81809384
:1058B000062A95CF68E273E0C8010E940670892B22
:1058C00041F4EA94EF2809F03BCF89818093082ABC
:1058D00086CF6EE173E0C8010E940670892B41F407
:1058E000EA94EF2809F02CCF89818093092A77CF99
:1058F00062E173E0C8010E940670892B41F4EA94CA
:10590000EF2809F01DCF898180930C2A68CF6BE0C6
:1059100073E0C8010E940670892B61F4E2E0EE1684
:10592000F10409F00DCF898180930A2A8A8180933E
:105930000B2A55CF63E073E0C8010E940670892BE3
:1059400079F4F5E0EF16F10409F0FACE85E0FE01F6
:105950003196ADE0BAE201900D928A95E1F73FCF22
:105960006AEF72E0C8010E940670892B09F0E8CE48
:1059700022E0E216F10409F0E3CE89818093122A35
:105980008A818093132A2BCF8AECDBCEEF92FF9291
:105990000F931F93CF93DF93CDB7DEB76097CDBF43
:1059A000DEBF7B01B0DE81110BC089EC6096CDBFFC
:1059B000DEBFDF91CF911F910F91FF90EF9008957F
:1059C0008E010F5F1F4F1F930F9385EF92E09F9300
:1059D0008F93FF92EF920E94B8700F900F900F90EC
:1059E0000F900F900F90892B09F441C0188A6BEE2D
:1059F00072E0C8010E940670892B39F41092FD28CC
:105A00001092822985E992E2D1CF6DED72E0C80152
:105A10000E940670892B31F481E08093FD288093E9
:105A20008229F0CF6BEC72E0C8010E940670892BCE
:105A300011F483E0F2CF69EB72E0C8010E940670B6
:105A4000892B11F484E0E9CF67EA72E0C8010E9473
:105A50000670892B11F485E0E0CF65E972E0C8019A
:105A60000E940670892B09F0A0CF86E0D6CF8AEC81
:105A70009DCFAF92BF92CF92DF92EF92FF921F9392
:105A8000CF93DF93CDB7DEB76097CDBFDEBF7B018D
:105A90003ADE182F81110EC089EC6096CDBFDEBFB3
:105AA000DF91CF911F91FF90EF90DF90CF90BF904B
:105AB000AF900895CE0101966C019F938F9380E97A
:105AC00092E09F938F93FF92EF920E94B8700F9095
:105AD0000F900F900F900F900F90892B09F44EC0EC
