:10000000ADC70000D1C70000CFC70000CDC70000BA
:10001000CBC70000C9C70000C7C70000C5C70000A4
:10002000C3C70000C1C700000C94CC62BDC700006C
:10003000BBC70000B9C70000B7C70000B5C70000C4
:10004000B3C70000B1C70000AFC70000ADC70000D4
:10005000ABC70000A9C70000A7C70000A5C70000E4
:10006000A3C70000A1C700009FC700009DC70000F4
:100070009BC7000099C7000097C700000C9451125D
:1000800093C7000091C700000C94F6090C947153BB
:100090008BC7000089C7000087C7000085C7000024
:1000A00083C7000081C700007FC700007DC7000034
:1000B0007BC7000079C7000077C700000C940A0ACC
:1000C00073C700000C94140A0C941E0A0C948C55EF
:1000D0006BC7000069C7000067C7000065C7000064
:1000E00063C7000061C700005FC700005DC7000074
:1000F0005BC7000059C7000057C7000055C7000084
:1001000053C7000051C700004FC700004DC7000093
:100110000C94320A0C944E5347C7000045C70000A8
:1001200043C7000041C700003FC700003DC70000B3
:100130003BC700000C94BC5537C700000C942651F7
:100140000C94B3090C94000A0C9498532DC700002A
:100150002BC700000C94280A0C94B45425C7000047
:1001600023C7000021C700001FC700001DC70000F3
:100170001BC7000019C7000017C7000015C7000003
:1001800013C7000011C700000FC700000DC7000013
:100190000BC7000009C7000007C7000005C7000023
:1001A00003C7000001C70000FFC60000FDC6000035
:1001B000FBC60000F9C60000F7C60000F5C6000047
:1001C000F3C60000F1C60000EFC60000EDC6000057
:1001D000EBC60000E9C60000E7C60000E5C6000067
:1001E000E3C60000E1C60000DFC60000DDC6000077
:1001F000DBC600000C948C10D7C6000043424300BD
:100200004543420041455300444553002531357371
:1002100000456E63697068657265643A41455331A3
:10022000323800456E63697068657265643A334BB5
:100230003344455300506C61696E746578743A4D6F
:10024000414300506C61696E7465787400253135E6
:10025000730050726F644461746500426174636836
:100260004E6F0053775665727300537750726F74F8
:100270006F547970650053775375627479706500B7
:100280005377547970650048575665727300485724
:1002900050726F746F54797065004877537562744B
:1002A00079706500487754797065004D616E7549C5
:1002B00044004154514100415453002532347320CD
:1002C0002534307300004E4F4E4500000000000002
:1002D00000000000000000000000000000000155C8
:1002E00049445F52414E444F4D0000000000000061
:1002F00000000000000000025549445F4C45465490
:100300005F494E4352454D454E54000000000000E9
:10031000035549445F52494748545F494E4352454B
:100320004D454E540000000000045549445F4C45C3
:1003300046545F44454352454D454E54000000002D
:100340000000055549445F52494748545F444543BE
:1003500052454D454E540000000000064359434CA1
:10036000455F53455454494E475300000000000078
:10037000000000000753544F52455F4D454D0000AB
:1003800000000000000000000000000000085245CE
:1003900043414C4C5F4D454D000000000000000003
:1003A00000000000000009544F47474C455F464994
:1003B000454C440000000000000000000000000A5E
:1003C00053544F52455F4C4F47000000000000005F
:1003D00000000000000000000B434C4F4E450000A1
:1003E000000000000000000000000000000000000D
:1003F000000C434C4F4E455F4D4655000000000039
:1004000000000000000000000000008040C020A0AC
:1004100060E0109050D030B070F0088848C828A82C
:1004200068E8189858D838B878F8048444C424A4E4
:1004300064E4149454D434B474F40C8C4CCC2CACCC
:100440006CEC1C9C5CDC3CBC7CFC028242C222A2A8
:1004500062E2129252D232B272F20A8A4ACA2AAACC
:100460006AEA1A9A5ADA3ABA7AFA068646C626A684
:1004700066E6169656D636B676F60E8E4ECE2EAE6C
:100480006EEE1E9E5EDE3EBE7EFE018141C121A15A
:1004900061E1119151D131B171F1098949C929A99C
:1004A00069E9199959D939B979F9058545C525A554
:1004B00065E5159555D535B575F50D8D4DCD2DAD3C
:1004C0006DED1D9D5DDD3DBD7DFD038343C323A318
:1004D00063E3139353D333B373F30B8B4BCB2BAB3C
:1004E0006BEB1B9B5BDB3BBB7BFB078747C727A7F4
:1004F00067E7179757D737B777F70F8F4FCF2FAFDC
:100500006FEF1F9F5FDF3FBF7FFF595664566356F3
:1005100062566256615660565F565A565D565E5632
:100520000000000100BE51435262524F235323EC9E
:100530001DF01DED1DCD1F6F23712300100700005E
:10054000BE514352625257235B23EC1DF01DED1D3B
:10055000CD1F6F2371230008070000BE5143526274
:10056000525F236323EC1DF01DED1DCD1F6F237122
:10057000230010070000BE514352625267236B23D1
:10058000EC1DF01DED1DCD1F6F2371230010070022
:1005900000004E4F4E45000000000000000000002B
:1005A00000000000000000000000014D465F4445CF
:1005B00053464952450000000000000000000000C2
:1005C000000000024D465F444553464952455F32A4
:1005D0004B4556310000000000000000034D465F0F
:1005E000444553464952455F344B4556310000005F
:1005F0000000000000044D465F4445534649524503
:100600005F344B4556320000000000000000004EF1
:100610004F4E4500000000000000000000000000F8
:100620000000000000000001504F574552454400B3
:1006300000000000000000000000000000000000BA
:10064000025445524D494E414C5F434F4E4E0000BF
:10065000000000000000000000035445524D494EC8
:10066000414C5F5258545800000000000000000048
:1006700000000453455454494E475F4348414E4798
:100680004500000000000000000000054D454D4FF2
:1006900052595F53544F524544000000000000007F
:1006A00000000000064D454D4F52595F4348414EF2
:1006B0004745440000000000000000000008434FD0
:1006C0004445435F52580000000000000000000055
:1006D00000000000000009434F4445435F545800A8
:1006E0000000000000000000000000000000000703
:1006F0004649454C445F44455445435445440000F5
:1007000000000000000000000A4C4F474D454D5FBF
:1007100046554C4C000000000000000000000000A6
:10072000001E034300680061006D0065006C0065F9
:10073000006F006E002D004D0069006E0069000022
:10074000002A034B006100730070006500720020F6
:1007500000260020004F007300770061006C0064E9
:1007600000200047006D00620048000000040309FB
:100770000409023E00020100C03209040000010227
:1007800002010005240010010424020605240600CD
:1007900001070582030800FF09040100020A0000A6
:1007A000000705040210000507058302100005126A
:1007B00001100102000008D016B20401000102007D
:1007C00001004F464600000000000000000000004D
:1007D00000000000000000000000014D454D4F5298
:1007E00059000000000000000000000000000000B0
:1007F000000000024C4956450000000000000000C7
:10080000000000000000000000000000004E4F4EFD
:100810004500000000000000000000000000000093
:100820000000000000014F4E00000000000000002A
:100830000000000000000000000000000000024F67
:10084000464600000000000000000000000000001C
:100850000000000000000003310000000000000064
:100860000000000000000000000000000000000088
:100870000432000000000000000000000000000042
:100880000000000000000000000533000000000030
:100890000000000000000000000000000000000058
:1008A000000006340000000000000000000000000E
:1008B00000000000000000000000000735000000FC
:1008C0000000000000000000000000000000000028
:1008D000000000000D0A000D0A000D0A006431300E
:1008E000303A4F4B00000000000000000000000004
:1008F0000000000000000000000000000000653162
:1009000030313A4F4B2057495448205445585400F1
:100910000000000000000000000000000000006E69
:100920003131303A57414954494E4720464F5220C1
:10093000584D4F44454D00000000000000000000ED
:10094000C83230303A554E4B4E4F574E20434F4DE4
:100950004D414E4400000000000000000000000077
:1009600000C93230313A494E56414C494420434F38
:100970004D4D414E44205553414745000000000075
:100980000000CA3230323A494E56414C4944205058
:100990004152414D45544552000000000000000006
:1009A000000000783132303A46414C534500000097
:1009B0000000000000000000000000000000000037
:1009C00000000000793132313A54525545000000A0
:1009D0000000000000000000000000000000000017
:1009E0000000000000CB3230333A54494D454F559A
:1009F00054000000000000000000000000000000A3
:100A000000000000000056455253494F4E000000C0
:100A1000000000000000000000000000D264434F0E
:100A20004E464947000000000000000000000000A2
:100A30000000F964F3645549440000000000000020
:100A400000000000000000000000616523655245C1
:100A500041444F4E4C5900000000000000000000CF
:100A60000000BB65AF6555504C4F4144000000008D
:100A7000000000000000E765000000000000444F97
:100A8000574E4C4F41440000000000000000EC6550
:100A900000000000000052455345540000000000D3
:100AA000000000000000F16500000000000055504B
:100AB0004752414445000000000000000000FB6573
:100AC0000000000000004D454D53495A450000000C
:100AD000000000000000000000000000056655490D
:100AE0004453495A45000000000000000000000087
:100AF000000000001C6652425554544F4E00000046
:100B0000000000000000000000003966316652421B
:100B10005554544F4E5F4C4F4E47000000000000AC
:100B20000000596651664C425554544F4E00000027
:100B300000000000000000000000796671664C4271
:100B40005554544F4E5F4C4F4E470000000000007C
:100B50000000996691664C4544475245454E000059
:100B600000000000000000000000B966B1664C45BE
:100B70004452454400000000000000000000000056
:100B80000000D966D16650494E0000000000000008
:100B900000000000000000000000F666F1664C4F07
:100BA000474D4F44450000000000000000000000D9
:100BB000000010670A674C4F474D454D000000008C
:100BC00000000000000000000000000027674C4FFC
:100BD00047444F574E4C4F414400000000004C67C3
:100BE0000000000000004C4F4753544F5245000096
:100BF00000000000000051670000000000004C4FA2
:100C000047434C454152000000000000000055677A
:100C100000000000000053455454494E47000000B6
:100C2000000000000000000000005E675967434CB0
:100C3000454152000000000000000000000066670F
:100C400000000000000053544F5245000000000017
:100C50000000000000006A6700000000000052452C
:100C600043414C4C000000000000000000006E6793
:100C70000000000000004348415247494E47000031
:100C800000000000000000000000000072674845FE
:100C90004C500000000000000000000000007867D9
:100CA0000000000000005253534900000000000003
:100CB000000000000000000000000000B46753596D
:100CC000535449434B0000000000000000000000A6
:100CD00000000000F16754494D454F555400000095
:100CE000000000000000000000002B680C68544861
:100CF000524553484F4C44000000000000000000E3
:100D0000000095687C684155544F43414C4942521C
:100D100041544500000023690000000000004649DE
:100D2000454C4400000000000000000000000000EE
:100D30000000E868136944465F5345544844520034
:100D400000000000000000000000AC2A0000444643
:100D50005F434F4D4D5F4D4F444500000000000084
:100D60000000E42B000044465F454E434D4F444590
:100D700000000000000000000000442C0000444679
:100D80005F4B455953435255420000000000C52CAB
:100D90000000000000000000000000000000000053
:100DA00000000000000000000000000000002563BB
:100DB0002C25630025356400416E7920696E7465C9
:100DC0006765722066726F6D203020746F20257504
:100DD0002E205265666572656E636520766F6C7451
:100DE0006167652077696C6C2062652028564343F3
:100DF000202A205448524553484F4C44202F203439
:100E000030393529206D562E0025750025356400B2
:100E100030203D206E6F2074696D656F75740D0A0A
:100E2000312D363030203D20313030206D73202D73
:100E3000203630303030206D732074696D656F75E9
:100E400074002575206D730025342E345800253527
:100E500075206D56002575202866726F6D207768A5
:100E6000696368202575206E6F6E2D766F6C6174D6
:100E7000696C65290025750025750025632C25639F
:100E80000052414E444F4D004E4F205549442E00D4
:100E90004368616D656C656F6E4D696E6920526562
:100EA0007647202553207573696E67204C5546415F
:100EB00020255320636F6D70696C656420776974B9
:100EC00068204156522D4743432025532E2042612E
:100ED000736564206F6E20746865206F70656E2D79
:100EE000736F75726365204E464320746F6F6C207C
:100EF0004368616D656C656F6E4D696E692E206823
:100F0000747470733A2F2F6769746875622E636FFB
:100F10006D2F656D7365632F4368616D656C656FDB
:100F20006E4D696E6920636F6D6D69742025530085
:100F3000323032362D30322D3035003135313131CD
:100F40003500392E352E3000313364336264310080
:100F50006364696E6F70737578585B0011241FBEEF
:100F6000CFEFCDBFDFE3DEBF00E00CBF18BE19BE80
:100F70001ABE1BBE11E2A0E0B0E2E2EBF6EE00E02A
:100F80000BBF02C007900D92A834B107D9F71BBE62
:100F900020E3A8E4B1E201C01D92A132B207E1F75B
:100FA0000E940A4F0C9457730C94C362F190E19025
:100FB000D190C190B190A190919081900B941B948D
:100FC0002B943B944B945B946B947B948B949B9469
:100FD000AB94BB94CB94DB94EB94FB940895F80111
:100FE000D894E4DF5894E2DFD894E0CFF801D894A5
:100FF000DDDF5894DBDFF801D894D8CFF801D8941E
:10100000D5CFF8015894D2CFF80170965894CEDF1E
:10101000F8013896D894CADFF8015894C7CFF80180
:101020005894C4DFD894C2DFF8015894BFCFFF9022
:10103000EF90DF90CF90BF90AF909F908F907F9078
:101040006F905F904F903F902F90112408952F92B2
:101050003F924F925F926F927F928F929F92AF9248
:10106000BF92CF92DF92EF92FF920F931F93FC01FA
:101070007190619051904190319021901190019028
:101080008A01BCDFFB0171926192519241923192CF
:101090002192119201921F910F91C9CF2F923F92ED
:1010A0004F925F926F927F928F929F92AF92BF9278
:1010B000CF92DF92EF92FF920F931F93FB017190FB
:1010C00061905190419031902190119001908A014E
:1010D00098DFFC017192619251924192319221927A
:1010E000119201921F910F91A2CF2F923F924F9296
:1010F0005F926F927F928F929F92AF92BF92CF92A8
:10110000DF92EF92FF920F931F93FB01719061901A
:101110005190419031902190119001908A017FDF90
:10112000FC017192619251924192319221921192FD
:1011300001921F910F917BCF2F923F924F925F921E
:101140006F927F928F929F92AF92BF92CF92DF92D7
:10115000EF92FF920F931F93FB017190619051905A
:10116000419031902190119001908A014DDFFC0156
:101170007192619251924192319221921192019217
:101180001F910F9154CF2F923F924F925F926F9287
:101190007F928F929F92AF92BF92CF92DF92EF9207
:1011A000FF920F931F93FC017190619051904190B9
:1011B00031902190119001908A0118DFFB0171920A
:1011C00061925192419231922192119201921F911A
:1011D0000F912DCF2F923F924F925F926F927F92FD
:1011E0008F929F92AF92BF92CF92DF92EF92FF9237
:1011F0000F931F93FC017190619051904190319039
:101200002190119001908A01EADEFB0171926192B6
:101210005192419231922192119201921F910F911C
:1012200006CF2F923F924F925F926F927F928F9252
:101230009F92AF92BF92CF92DF92EF92FF92CF93A5
:10124000DF93EB01DA01BF01F901719061905190D8
:1012500041903190219011900190F990E990D990AE
:10126000C990B990A990999089907F246E245D24AB
:101270004C243B242A2419240824FB0109957D923F
:101280006D925D924D923D922D921D920D9201971D
:1012900021F7D9017D926D925D924D923D922D92F2
:1012A0001D920D92DF91CF91C2CE2F923F924F921D
:1012B0005F926F927F928F929F92AF92BF92CF92E6
:1012C000DF92EF92FF92CF93DF93EB01DA01BF0140
:1012D000788069805A804B803C802D801E800F80F2
:1012E000FB010995F901F190E190D190C190B19085
:1012F000A190919081907F246E245D244C243B2406
:101300002A2419240824F990E990D990C990B99019
:10131000A99099908990F901F192E192D192C192AC
:10132000B192A192919281927D926D925D924D9235
:101330003D922D921D920D92019751F6DF91CF9122
:1013400076CEF7E0E6EF6DCFF7E0E6EFAECFF8E070
:10135000EFE067CFF8E0EFE0A8CFF7E0EFEE61CF86
:10136000F8E0E4E0A2CF0F9200240F932F933F9375
:101370004F935F930FB70F93EF93FF93EAB1FBB1D6
:101380005191442735B124B1569578F400928C08D8
:101390000092000806E10A95F1F700C001E0009311
:1013A000000803E000938C0804C00AE10A95F1F7F5
:1013B00000002150304019F40E943C530CC04F5F94
:1013C000477011F4519102C000C000C00AE00A95B4
:1013D000F1F700C0D9CFFF91EF910F910FBF5F914F
:1013E0004F913F912F910F910F901895EF93FF938D
:1013F000E091F925F091FA250995FF91EF91189563
:10140000EF93FF93E091FB25F091FC250995FF9167
:10141000EF911895EF93FF93E091F525F091F62564
:101420000995FF91EF911895EF93FF93E091F325C4
:10143000F091F4250995FF91EF911895EF93FF93A3
:10144000E091F125F091F2250995FF91EF91189522
:10145000EF93FF93E091EF25F091F0250995FF912F
:10146000EF911895EF93FF93E091F725F091F82510
:101470000995FF91EF9118953BB78BBFFB018791C1
:1014800096913BBF08953BB78BBFCB0142E20D94D1
:10149000F00F3BB70B0143E20D94F00F3BB78BBF4E
:1014A000CB0145E20D94F00F3BB746E208C0209116
:1014B000CF0127FDFCCF22272093CA010895409336
:1014C000CA0128ED31E0209334003093CB016091C4
:1014D000C4017091C5018091C60199270895FC014E
:1014E0004093CA0184910895CF93DF93EC01FC01EE
:1014F00070968BE0DF011D928A95E9F782E08C837C
:10150000898783E08E8761E0CE010196D0D488235D
:1015100061F061E0CE010696CAD4882331F061E023
:10152000CE010B96DF91CF91C2C480E0DF91CF91C5
:101530000895CF93DF93FC01EB0180914B21843020
:10154000C1F484899589A689B789892B8A2B8B2B2D
:1015500081F08181C9D3FE0101900020E9F7319724
:10156000BF016C1B7D0B50E040E0CE01DF91CF91BD
:10157000A7C282E0DF91CF9108950F931F93CF937D
:10158000DF93FC01EB018A0180914B21843099F4B7
:1015900084899589A689B789892B8A2B8B2B59F049
:1015A0008181A2D350E040E0B801CE01DF91CF911C
:1015B0001F910F9185C282E0DF91CF911F910F9112
:1015C0000895CF93FC01C62F80914B21843011F5F3
:1015D00084899589A689B789892B8A2B8B2BD1F091
:1015E000818182D38091552190915621FC01EF5B3E
:1015F000FF4F2081805C9F4FFC018081281728F4D9
:101600008C2F62D380E0CF91089526D3D3D4882342
:10161000B9F3F9CF82E0F7CFCF93DF93FC0180914C
:101620004B218430B9F584899589A689B789892B9E
:101630008A2B8B2B79F1818157D32091592180916D
:10164000552190915621FC0127FF0BC0EF5BFF4F06
:10165000208130E0232B69F4C0E08C2FDF91CF9103
:101660000895E05CFF4F208131963081231B330BBE
:10167000F1CFFC01EF5BFF4FD081805C9F4FFC01FD
:10168000C081EAD2DC1740F395D4C82F8111E5CF91
:10169000E3D2E3CFC2E0E1CFCF93DF93EC018091BF
:1016A0004B21843089F48C899D89AE89BF89892B2F
:1016B0008A2B8B2B49F0898117D33ED3882321F0C5
:1016C000CE01DF91CF91A8CFDF91CF910895CF9335
:1016D000DF93FC0180914B21843031F0CFEFDFEFBD
:1016E000CE01DF91CF91089584899589A689B78924
:1016F000892B8A2B8B2B91F38681F6D229D38823D1
:1017000069F3209159218091552190915621FC0136
:10171000EF5BFF4F27FF1AC0808190E0CFEFDFEF34
:10172000892B19F0C1D2C82FD0E020915921809186
:10173000552190915621FC01EF5BFF4F27FF0EC012
:10174000208130E0232B61F6A0D2CACF805C9F4F6E
:10175000DC018C919081891B990BE0CF805C9F4FBD
:10176000DC012C918081281B330BECCF0895CF92A4
:10177000DF92EF92FF920F931F93CF93DF93EC01D1
:10178000FFD2882399F02881809150219091512196
:101790002817190659F480914D21823209F47CC032
:1017A00070F4803209F443C08132E9F0DF91CF91C7
:1017B0001F910F91FF90EF90DF90CF9008958332AB
:1017C000A9F780914C21813289F7F2D2DFD3609161
:1017D0004E21CE01DF91CF911F910F91FF90EF909D
:1017E000DF90CF90C3CF80914C21813AF9F6E0D2BF
:1017F000A3D28823E9F3CC88DD88EE88FF888C2D7E
:1018000063D28D2D61D28E2D5FD28F2D5DD2888DCA
:101810005BD2898D59D28A8D57D21ED2DF91CF915A
:101820001F910F91FF90EF90DF90CF90AFC3809109
:101830004C21813209F0BACFBBD28AD2882339F148
:1018400033D2F82E31D2182F2FD2082F2DD2402F7D
:1018500050E070E060E0BA0155274427782B4F290B
:10186000512B4C8B5D8B6E8B7F8B1ED2888F1CD245
:10187000898F1AD28A8F09D289D3CE01DF91CF9175
:101880001F910F91FF90EF90DF90CF906FCF8091DD
:101890004B218111D2CF8ACF80914C21813209F026
:1018A00085CF86D273D380914E2190914F21888B22
:1018B000998BCE01DF91CF911F910F91FF90EF9007
:1018C000DF90CF9053CFEF92FF920F931F93CF9360
:1018D000DF930F920F92CDB7DEB70CE411E27801DF
:1018E0000F5F1F4FE1D1F7018083F1E204351F073D
:1018F000B1F70E94D56944D2882379F080914C21B8
:1019000090914D21953009F483C0A8F4292F2D7FA3
:10191000213009F450C0992371F132D2882311F09B
:1019200047D272D20F900F90DF91CF911F910F91FC
:10193000FF90EF900895983009F47CC0993009F435
:1019400080C0963051F78058823038F7AE014F5F33
:101950005F4F6091502180914E2190914F210E94C4
:10196000F0578C01892BC9F223D2B80189819A8161
:10197000FAD08BD1D2CF803889F0823871F680913D
:1019800050218F70B1D1E0915721F09158211181F0
:1019900012FB112710F980E0A7D106C01091492150
:1019A000809148218111126003D2812F8DD180E076
:1019B0008BD152D171C0882309F460C0823009F004
:1019C000ACCF80914E21811164C0109150211F70C5
:1019D00009F4A3CF812F88D180914D21833011F458
:1019E00013D257C0E0915721F091582181818B7F0C
:1019F000818384E8189FF0011124E556FE4D108282
:101A0000E0915721F091582180818E7F808341C0E1
:101A1000811183CF10914E211F77CAD1B7D28CD1BB
:101A20008823E9F31093C30482E0111183E08093CB
:101A30004B2173CF803809F070CFBAD180914A2101
:101A4000B7CF81116ACF80914E21823008F065CFE7
:101A5000AFD180914E2180934A2198D280914A2122
:101A6000882311F084E005C08091C3048111FACF6E
:101A700081E080934B210E94D1694FCF80914E210C
:101A8000813009F04ACF81E0933009F080E0809303
:101A9000482180E029D18CD179D23FCF0895CF93CE
:101AA00080914B21882351F0C091592180E01CD1B5
:101AB00067D1811108DF8C2FCF9116C1CF91089586
:101AC000AF92BF92CF92DF92FF920F931F93CF936B
:101AD000DF936C01EB018A016DD2F82E81112AC0CF
:101AE0000115110539F0F80180819181C81BD90BCE
:101AF000C80ED91EB12CA12C2097E1F08091552160
:101B000090915621FC01EF5BFF4F2081805C9F4F3D
:101B1000FC0180812817F0F09FD0C1DF011511056D
:101B2000A1F0F80180819181A80EB91EA082B18236
:101B300085E0F82E8F2DDF91CF911F910F91FF90AF
:101B4000DF90CF90BF90AF90089534D28823A1F258
:101B5000F82EF0CFF60181916F01B6D02197FFEFFB
:101B6000AF1ABF0AC9CFDF92EF92FF920F931F9374
:101B7000CF93DF937C01EB01809159218068B4D031
:101B800080915221909153218C179D0770F02097DE
:101B900009F462D0D12C209751F4D11008C0D8D0CC
:101BA000882309F44CC080E007C0EC01F3CF80919A
:101BB0004B21811109C082E0DF91CF911F910F91DC
:101BC000FF90EF90DF900895853011F483E0F4CF1B
:101BD000D7D0882311F081E0EFCFBAD08111DFCFC9
:101BE000ABD08823C1F22091592180915521909149
:101BF0005621FC01EF5BFF4F27FF0FC0008110E073
:101C0000209719F00830110580F0DD24D3940830B6
:101C1000110509F0D12C20D0BECF805C9F4FDC0194
:101C20000C918081081B110BEBCFF70184914CD0F4
:101C3000FFEFEF1AFF0A21970F5F1F4FE1CF80914F
:101C40004B21882309F4B7CF853009F4BFCF98D052
:101C5000882309F4A4CFBFCFE0915521F0915621FC
:101C6000EF5BFF4F8081E0915721F091582190E088
:101C70008283938380818D798083E0915521F091D7
:101C80005621EF5BFF4F10820895E0915721F091AC
:101C9000582180818D798083E0915521F0915621E2
:101CA000EF5BFF4F1082089580915521909156214E
:101CB000DC01AF5BBF4FEC9121E02E0F2C93E80FBE
:101CC000F92FF11D808108952091552130915621E1
:101CD000D901AF5BBF4FEC9191E09E0F9C93E20F57
:101CE000F32FF11D80830895282F2F7080935921A1
:101CF0004091C6045091C70494E8299FB001112473
:101D000090E1299F9001112487FF0FC064567E4DFA
:101D10006093552170935621285F3F4F240F351F44
:101D200020935721309358210895665A7E4D609331
:101D3000552170935621F2CF809159218068D4DFCC
:101D4000E0915721F0915821808186958170089506
:101D5000809159218F77C8DFE0915721F091582168
:101D6000808185FF0BC082819381E0915521F091A4
:101D70005621E05CFF4F808381E0089580E0089564
:101D8000809159218F77B0DFE0915721F091582150
:101D9000808184FF0BC082819381E0915521F09175
:101DA0005621E05CFF4F808381E0089580E0089534
:101DB000809159218F7798DFE0915721F091582138
:101DC00080818D788083E0915721F0915821808126
:101DD00081608083E0915521F0915621EF5BFF4FA8
:101DE00010828091592180687FDFE0915721F09126
:101DF0005821808181608083E0915521F0915621A6
:101E0000EF5BFF4F10820895E0915721F091582128
:101E1000818184608183E0915721F09158218181F3
:101E2000807C803459F48091592180585DDFE091A5
:101E30005721F091582181818460818308951F93F7
:101E4000CF93DF93C82F162FD42F4EDFE091572169
:101E5000F09158211182E0915721F09158218C2F57
:101E600086FB880F880B80F982708083E091572170
:101E7000F09158211183E0915721F091582112825D
:101E80001382809155219091562184839583CC0FA4
:101E9000CC0BCD23FC01E05CFF4FC0838F5B9F4FD9
:101EA000FC01108281E0DF91CF911F910895CF92C4
:101EB000DF92EF92FF920F931F93CF93DF93D62E73
:101EC0008C01C12CCD1002C081E01AC0F801D08174
:101ED000D11104C0C3940B5F1F4FF4CFE180F28097
:101EE000848128E0823008F028E188E090E0C0E0BA
:101EF0008E159F0570F08D2F8F70853070F080E00B
:101F0000DF91CF911F910F91FF90EF90DF90CF90D5
:101F10000895CF5F880F991FEBCFF1E4EF16F1041E
:101F200070F7F8018381C22BCF7E882321F08130A6
:101F300079F0C06806C0C0644E2D6C2F80E88D0F0C
:101F40007EDF4E2D6C2F8D2F7ADF8111C3CFD7CF3F
:101F5000C06CF7CF90E080E0A091C604B091C704B8
:101F60009C0144E0220F331F4A95E1F7A20FB31FF3
:101F700019961C92E091C604F091C704E20FF31F7A
:101F8000118201968530910539F7089580914C2191
:101F900087FF0CC0DDDE811178CE80914B2181114D
:101FA000F9CF089580914B218823D9F3C5DE88238A
:101FB000C9F352CE0F931F93CF93E091C604F091D3
:101FC000C704E05BFF4F00811181C4E68091592175
:101FD00087FF11C0B1DE811109C080914B218111B1
:101FE0000CC082E004C0C22F8C01F0CF80E0CF9102
:101FF0001F910F910895ACDEEECF8530C1F0E091D6
:102000005721F0915821818182FD13C0E091C604CF
:10201000F091C704E05BFF4F808191810817190799
:1020200019F32FEF2C0FC111DECF84E0E0CF83E056
:10203000DECF81E0DCCF63D069D0E0ECF4E08181D9
:102040008E7F818380818F778083109254210895C1
:10205000CF93DF93E0E4F0E0148284818360848393
:102060004ED054D0C0ECD4E088818F7788838881AB
:102070008068888310924B2110924A211092482147
:102080001092492188818064888348E068E480E870
:10209000D6DE48E068E480E0D2DE88858064888708
:1020A000898181608983DF91CF910895CF93DF93F8
:1020B0003FB7F894C0ECD1E022E02A87EAE1F0E0F3
:1020C000E491A0ECB4E0DA96EC93DA97EBE1F0E07F
:1020D000E491DB96EC93DB971A868FEE93E28E7F8A
:1020E00016968D939C93179784E18C9318962C9356
:1020F0003FBF81E080935421DF91CF91A9CFE0ECE5
:10210000F4E080858370808711860895E0ECF4E028
:102110008FEF8287848708951F920F920FB60F92D8
:10212000112408B60F9218BE09B60F9219BE0BB64D
:102130000F921BBE2F933F934F935F936F937F93A9
:102140008F939F93AF93BF93EF93FF938091CA04B4
:1021500087FF08C08091C80487FF04C080E880938F
:10216000CA049CDC8091CA0486FF07C080E4809387
:10217000CA0410924B210E94C0698091CA0485FF55
:102180000CC080E28093CA0480914A218823A1F187
:1021900084E080934B210E94AF698091CA0484FF40
:1021A00014C080E18093CA0482E080934B21109296
:1021B0004A211092C304CEDE48E068E480E83FDEA6
:1021C00048E068E480E03BDE69DCFF91EF91BF917D
:1021D000AF919F918F917F916F915F914F913F91BF
:1021E0002F910F900BBE0F9009BE0F9008BE0F905D
:1021F0000FBE0F901F9018958091C304811102C0EB
:1022000081E0C7CF83E0C5CF0F931F93CF93DF93B8
:1022100000D000D0CDB7DEB78091200280688093D7
:1022200020028091230280FFFCCF81E08093230273
:10223000A0911002B0911102AE5BB109B7FF02C0CC
:10224000B0E0A0E020E038EB4BE050E00E94B66B3D
:102250006B837C838D839E838C0122273327E091BF
:10226000492DF0914A2D978186814D815E81443FB1
:102270005140D8F4973019F490E190933428873086
:1022800019F480E18093332880912E28882329F047
:10229000E0912028F091212819952696CDBFDEBF28
:1022A000DF91CF911F910F910895973019F491E12B
:1022B00090933428873019F481E1809333288091FA
:1022C00041248F5F6FE00E94966B9093412491119F
:1022D000E4CF19830A83E0913B28F0913C2842E047
:1022E000BE016F5F7F4F88E41995D7CF0895E0EC6A
:1022F000F0E080818068808308959091C10091789A
:1023000081E009F080E00895E0ECF0E081818160F7
:1023100081830895E0ECF0E08181806881830895F5
:10232000862B8093C0000895862B80618093C00027
:1023300008959C01205F3F4FFC010196408140932E
:10234000C30082179307C1F708959C01205F3F4F98
:10235000FC0101964091C300408382179307C1F7A7
:1023600008959C01205F3F4FFC01019640814093FE
:10237000C20082179307C1F708959C01205F3F4F69
:10238000FC0101964091C200408382179307C1F778
:102390000895EF92FF920F931F93CF93DF938C01D9
:1023A000EB017A0180E28093C0008093C0000000BE
:1023B0001092C00060E0211164E080E0B1DF81E8AC
:1023C0008093C1001092C400C701B3DF80E1109276
:1023D000C2008150E1F7C801C4DF89DF8EDF8111BF
:1023E000FDCFCE01CADFDF91CF911F910F91FF90FA
:1023F000EF908ACFEF92FF920F931F93CF93DF93CB
:10240000CDB7DEB7A097CDBFDEBF8C017B0180E2E8
:102410008093C00000001092C0008093C00080E153
:10242000E3E3F0E2DE01119601900D928A95E1F767
:1024300020E0BE016F5F7F4FCB01ABDF8091C10019
:1024400087FD2DC0CE01419680DF5EDF80E2809364
:10245000C00000001092C00060E080E065DF81E80D
:102460008093C1001092C400CE01419662DF80E1EA
:102470001092C2008150E1F7C70173DF38DF3DDF02
:102480008111FDCFC80179DF3FDFA096CDBFDEBF50
:10249000DF91CF911F910F91FF90EF9008953ADF58
:1024A000D5CF1F920F920FB60F92112408B60F923C
:1024B00018BE09B60F9219BE0BB60F921BBE2F9312
:1024C0003F934F935F936F937F938F939F93AF93BC
:1024D000BF93EF93FF93E0915324F09154243097EE
:1024E00009F01995FF91EF91BF91AF919F918F9155
:1024F0007F916F915F914F913F912F910F900BBE04
:102500000F9009BE0F9008BE0F900FBE0F901F9046
:102510001895FC01892B69F081E080831182128279
:1025200084E0848380914224813011F48383089570
:1025300013820895CF93DF93FC01892BB9F080E2D9
:102540008093C000A3E4B4E280E1ED0119928A9582
:10255000E9F784819281892B9081892B8093C00037
:1025600086E791E18093532490935424DF91CF9197
:1025700008952F923F924F925F926F927F928F9227
:102580009F92AF92BF92CF92DF92EF92FF920F9302
:102590001F93CF93DF93CDB7DEB76097CDBFDEBF7C
:1025A0004B017A0169019C012F703327232B09F01D
:1025B000B9C0C114D10441F4E3E4F4E220E1DF0145
:1025C0001D922A95E9F76F010F961C0184E036945D
:1025D00027948A95E1F75401B0E1AB0EB11C90E06D
:1025E00080E02601E0E14E0E511C82159305F9F4BE
:1025F0008091C10087FF99C08DDE8091C1008078F5
:1026000090E06096CDBFDEBFDF91CF911F910F911B
:10261000FF90EF90DF90CF90BF90AF909F908F9002
:102620007F906F905F904F903F902F9008953C0166
:10263000FFEF6F1A7F0A20914224213009F04FC02A
:10264000892B91F580E1F401DE01119601900D9244
:102650008A95E1F7C601AE014F5F5F4F48165906F4
:10266000C9F421E0A801B701CE01019692DE26143B
:10267000370441F480E1FE013196D60101900D92BC
:102680008A95E1F7F0E1EF0EF11C20E1A20EB11CFA
:10269000C301ABCFDA012D91FC013191CF0123278A
:1026A000FA012083AD01DACF80E1F7017097DE01F6
:1026B000119601900D928A95E1F7C5014097AE0100
:1026C0004F5F5F4F8A159B0561F2DA012D91FC0186
:1026D0003191CF012327FA012083AD01F3CF80E1AF
:1026E000F5017097DE01119601900D928A95E1F740
:1026F000C601AE014F5F5F4F8415950549F421E097
:10270000A801B701CE01019644DE80E1F701B5CF03
:10271000DA012D91FC013191CF012327FA012083A9
:10272000AD01EACF8EEB90E06CCF90E080E069CF16
:102730002F923F924F925F926F927F928F929F92D1
:10274000AF92BF92CF92DF92EF92FF920F931F93BF
:10275000CF93DF93CDB7DEB7AA97CDBFDEBF6B01B6
:102760007A0139012801232B41F4E3E4F4E220E16A
:10277000DF011D922A95E9F73F011C01BFE02B0EF6
:10278000311C24E0369427942A95E1F7FC01EF7080
:10279000FF27EFA3F8A7912C812C9301205F3F4FD7
:1027A0002DA33EA35E0131E1A30EB11C8F70A82FB3
:1027B000B0E0A9A7BAA7FE013196E9A3FAA3821453
:1027C0009304F9F48091C10087FFEAC0A3DD8091F2
:1027D000C100807890E0AA96CDBFDEBFDF91CF9197
:1027E0001F910F91FF90EF90DF90CF90BF90AF902F
:1027F0009F908F907F906F905F904F903F902F9021
:10280000089594012F5F3F4F2BA33CA38601809135
:102810004224813009F080C02216330621F48FA1B2
:1028200098A5892BD1F5A201B701C501E3DD80E1AF
:10283000F501D60101900D928A95E1F7C30189282F
:10284000C1F0C70140978E159F05C1F0F801219195
:10285000DC013D91CD012327D8012C938F01F3CFCB
:10286000F8012191DC013D91CD012327D8012C9362
:102870008F01EDA1FEA1E817F90791F7EBA1FCA1EB
:102880002E163F0609F445C0F0E1EF0EF11C20E1E1
:10289000C20ED11C8BA09CA092CFE9A1FAA120E18D
:1028A00011922A95E9F749A55AA5B701CE010196DB
:1028B0000E94996CA201BE016F5F7F4FC5019ADD36
:1028C00080E1F501D60101900D928A95E1F7C301EF
:1028D00031E023163104C1F0C70140978E159F05E2
:1028E000C1F0F8012191DC013D91CD012327D801F0
:1028F0002C938F01F3CFF8012191DC013D91CD01A3
:102900002327D8012C938F01EDA1FEA1E817F90729
:1029100091F780E1F50115C02BA13CA122163306E9
:1029200021F48FA198A5892BE1F4A201B701C6017A
:1029300061DDC301EDA1FEA18E179F0741F480E187
:10294000F701D30101900D928A95E1F79DCFF8012F
:102950002191DC013D91CD012327D8012C938F01DA
:10296000E9CFD501E0E11D92EA95E9F749A55AA51D
:10297000B701C5010E94996CA201B501C6013ADDFB
:10298000C301EDA1FEA18E179F0719F2F801219155
:10299000DC013D91CD012327D8012C938F01F1CF8C
:1029A00081E090E0AFA1B8A5AB2B09F014CF90E087
:1029B00080E011CF0F931F93DA01FC01680F791F9C
:1029C0000FEF1FEF9801E617F70741F40D931D93E2
:1029D0002D933C9313971F910F9108958191082790
:1029E00088E090E0A8014170552736952795179506
:1029F0000795452B41F040E2042743E8142748EBB4
:102A000024274DEE3427019769F7DDCFEF92FF922F
:102A10000F931F93CF93DF9300D00F92CDB7DEB704
:102A20008C017B01AE014F5F5F4FC4DFF801EE0DFB
:102A3000FF1D898180838A8181838B8182838C8140
:102A40008383C70104962496CDBFDEBFDF91CF916B
:102A50001F910F91FF90EF900895EF92FF920F93C7
:102A60001F93CF93DF937C01E901062F10E0F8015B
:102A7000E457FB4D4083A801B9010E94FF4AF701CA
:102A8000808187FF0EC0FE01ADE8B4E20C0F1D1F70
:102A900081919D91EF01219789278883E017F107A4
:102AA000B9F7DF91CF911F910F91FF90EF900895AB
:102AB0003F924F925F926F927F928F929F92AF92CE
:102AC000BF92CF92DF92EF92FF920F931F93CF931B
:102AD000DF93382E4B013A01E801A22EB12C2701D9
:102AE0004A185B08E114F10411F5A50170E060E0FB
:102AF000C8010E94B36C80E888836501FE01E40D83
:102B0000F51D95012E193F094E145F04B0F5519142
:102B1000CF010197D901A40DB51DA356BB4D4C9112
:102B20004527DC014C93BFEF4B1A5B0AEDCFC70181
:102B3000B5010E94A26B009709F463C06701CA0C3B
:102B4000DB1CC81AD90A80E8F801EE0DFF1D80834E
:102B5000D5CF51919F0121503109DC01A40DB51D44
:102B6000A355BB4D4C914527D9014C93BFEF4B1A50
:102B70005B0A4E145F0468F367012AE13216B1F074
:102B80008AE43816A9F180E0DF91CF911F910F916F
:102B9000FF90EF90DF90CF90BF90AF909F908F907D
:102BA0007F906F905F904F903F900895AE014E0DD3
:102BB0005F1D83019401BE01C60184D77E01EC0C28
:102BC000FD1CA601B701CE010E94A26CB6016A19D4
:102BD0007B096C0F7D1FA5018DE794E20E94996C23
:102BE000A5016DE774E2C7010E94996C81E0CCCF2A
:102BF000AE014E0D5F1D84019301BE01C601B9DC1B
:102C0000DDCFF801E40DF51DC5018E199F09B1CF87
:102C10008F929F92AF92BF92CF92DF92EF92FF92EC
:102C20000F931F93CF93DF93C82F6B014A01790154
:102C300058018A31B1F080E0CA3409F044C0EDE6B1
:102C4000F4E280E1DF011D928A95E9F78B019F0193
:102C50004DE954E2BF0180E190E08BDC17E8D0E160
:102C600011C0EDE6F4E288E0DF011D928A95E9F7F4
:102C70008B019F014DE954E2BF0188E090E022D72B
:102C80001BE1D8E02DEA34E2412F6D2F8DE994E26B
:102C9000E4DE2DE934E2412F6D2F8DEA94E2DDDE92
:102CA00084012D2FA501AB2859F44D2F50E070E081
:102CB00060E08DE694E20E94B36C2D2F4DE654E265
:102CC000B6018C2FF5DEDF91CF911F910F91FF9010
:102CD000EF90DF90CF90BF90AF909F908F9008952E
:102CE000CF93DF93FC01DB01480F591FE417F50771
:102CF00019F4DF91CF91089581919D91EF01219772
:102D000089278883F3CFCF93DF93DC0150E040E045
:102D1000FB0131974E175F0740F0E80FF91F8081E4
:102D2000880F8083DF91CF9108952D914F5F5F4F82
:102D3000ED0121973C91331F3327331F220F232BA3
:102D40002883E8CF6F927F929F92AF92BF92CF92EB
:102D5000DF92EF92FF920F931F93CF93DF93CDB744
:102D6000DEB7E097CDBFDEBF182F3B015A016901E6
:102D70008A31A1F08A34C9F180E0E096CDBFDEBF90
:102D8000DF91CF911F910F91FF90EF90DF90CF9047
:102D9000BF90AF909F907F906F90089528E0E22EB3
:102DA000F12C3BE1932EA70170E060E0CE0101968B
:102DB0000E94B36CA70170E060E0CE0181960E9492
:102DC000B36C1A31C1F01A34B9F683019E012F5D3C
:102DD0003F4F41E050E04C0F5D1F4E0D5F1DBE01A7
:102DE0006F5F7F4FC701C5DB15C080E1E82EF12C76
:102DF00097E8992ED8CF83019E012F5D3F4F41E088
:102E000050E04C0F5D1F4E0D5F1DBE016F5F7F4F89
:102E1000C70158D661E070E06C0F7D1F6E0D7F1DFD
:102E2000A701CE0101960E94996CA701BE016F5FB8
:102E30007F4FC5010E94996C1981B701C50163DFFD
:102E400017FF07C0F7013197EA0DFB1D8081892527
:102E50008083A701B501C6010E94996CF50110811C
:102E6000B701C60150DF17FF09C0F1E0EF1AF10802
:102E7000F601EE0DFF1D80819826908281E07DCFC6
:102E80002F923F924F925F926F927F928F929F927A
:102E9000AF92BF92CF92DF92EF92FF920F931F9368
:102EA000CF93DF93CDB7DEB7E197CDBFDEBF89AB60
:102EB0003B01BA015901480117017A01E20EF31EE4
:102EC000A901C7010E94996C89A98A3129F08A3425
:102ED00009F459C010E07DC008E01A2D198E1A8E31
:102EE00086E1FE017B96DF01982F1D929A95E9F706
:102EF00019821A827897DF011D928A95E9F79E015F
:102F00002F5F3F4FAE01475E5F4FB30189A91ADFC4
:102F100095013327402E512CAA2049F08A2D602F8D
:102F20000E94966B911103C02C153D05A0F511E090
:102F30001A0D2E0D3F1D80E8F9018083212F30E00E
:102F4000812F602F0E94966B91111FC02C153D059B
:102F5000E0F0C90184199509A201BE016F5F7F4F9E
:102F60008E0D9F1DBDDEB9A9BA31E9F0BA3409F062
:102F7000B1CF812F90E0A701480F591F8301940121
:102F8000B701F7DA19C000E1A8CF1F5F2E0D3F1D72
:102F9000D9011C92D3CFC90184199509A201BE01A0
:102FA000675E7F4FDDCF812F90E0A701480F591F4B
:102FB00083019401B70186D511E0892B09F410E053
:102FC0002114310409F486CFA201B401C1010E9489
:102FD000996C812FE196CDBFDEBFDF91CF911F911C
:102FE0000F91FF90EF90DF90CF90BF90AF909F90A8
:102FF0008F907F906F905F904F903F902F900895AB
:10300000CF92DF92EF92FF920F931F93D12CC12C9E
:1030100037DF1F910F91FF90EF90DF90CF900895D1
:10302000CF92DF92EF92FF920F931F93CF93DF9394
:103030007C01EB016417750730F14830510569F5E3
:103040006B0188E0C81AD108CE0DDF1D0BEC14E22D
:103050009601AE016BED74E28AE1DADD88E0FE01F3
:10306000ADE6B4E201900D928A95E1F7B7016C0DDF
:103070007D1D48E050E08DE694E20E948C6C9C013E
:1030800081E0232B09F080E0DF91CF911F910F9118
:10309000FF90EF90DF90CF9008954031510599F760
:1030A0006B0180E1C81AD108CE0DDF1D0BEC14E2D4
:1030B0009601AE016BED74E28AE4AADD80E1FE01C7
:1030C000ADE6B4E201900D928A95E1F7B7016C0D7F
:1030D0007D1D40E150E0CFCFAF92BF92CF92DF9203
:1030E000EF92FF920F931F93CF93DF938C016B01AD
:1030F0007A0188E0F801A5E6B4E201900D928A9584
:10310000E1F788E0F801ADE5B4E201900D928A950F
:10311000E1F788E0F801A5E5B4E201900D928A9507
:10312000E1F7EDE6F4E288E0DF011D928A95E9F728
:103130005B01A40EB51ECA0187709927EA01892B8D
:1031400051F0C87F2896AE014E195F0970E060E02B
:10315000C5010E94B36CA6014C0F5D1F2DE634E241
:10316000B601CE01AFD42897F601EC0FFD1F84E025
:10317000ADE6B4E201900D928A95E1F784E0EDE6C8
:10318000F4E2D50101900D928A95E1F7C70104960A
:10319000DF91CF911F910F91FF90EF90DF90CF9033
:1031A000BF90AF900895AF92BF92CF92DF92EF920F
:1031B000FF920F931F93CF93DF936C01EB015A01A2
:1031C0006417750708F45BC088E0EBEDF4E2A5E650
:1031D000B4E201900D928A95E1F788E0EBEDF4E21C
:1031E000ADE5B4E201900D928A95E1F788E0EBED50
:1031F000F4E2A5E5B4E201900D928A95E1F7EDE6DF
:10320000F4E288E0DF011D928A95E9F7CB0187702F
:1032100099277B01892B79F0B8EFEB2288E0E80E43
:10322000F11CA701461B570B70E060E0C6018C0F34
:103230009D1F0E94B36CA6014E0D5F1D0BED14E2A5
:103240002DE634E2B601C7013DD4F7013897EC0D05
:10325000FD1D84E0ADE6B4E201900D928A95E1F7A0
:10326000CE018A199B0944E050E06DE674E28C0DB2
:103270009D1D0E948C6C9C0181E0232B09F080E055
:10328000DF91CF911F910F91FF90EF90DF90CF9042
:10329000BF90AF9008952F923F924F925F926F929E
:1032A0007F928F929F92AF92BF92CF92DF92EF92D6
:1032B000FF920F931F93CF93DF93CDB7DEB7609745
:1032C000CDBFDEBF4C011B014D835E8329833A8352
:1032D0002801ED86FE862DB73EB72F87388BDC019F
:1032E00012962D913C91CB010197820F931FB9014A
:1032F0000E94A26B6F837887C101B9010E94A26B03
:1033000089879A87EDB7FEB7E21BF30BEDBFFEBFCF
:103310008DB79EB701966C01ADB7BEB7A21BB30BBC
:10332000ADBFBEBFEDB7FEB731965F01A901011574
:10333000110541F470E060E0CF010E94B36C712C84
:10334000612C43C0B801CF010E94996CF8CF930162
:103350002F5F3F4F2B833C83D40112960D911C911C
:103360008091BD24813009F0C4C06114710409F05A
:1033700069C0A80170E060E0C6010E94B36CA801BA
:103380006D817E81C6010E94996C0A0D1B1DA601EC
:10339000C5018017910709F04BC0D40112968D9199
:1033A0009C911397689EB001699E700D789E700D78
:1033B0001124E981FA816E0F7F1FED91FC914D85FB
:1033C0005E85C60119956B807C802F8138856216D9
:1033D000730609F0BCCF4114510441F0D401129698
:1033E0004D915C91B501C2010E94996C81E090E021
:1033F000E985FA85EF2B11F490E080E02F8538897C
:103400002DBF3EBF6096CDBFDEBFDF91CF911F9134
:103410000F91FF90EF90DF90CF90BF90AF909F9073
:103420008F907F906F905F904F903F902F90089576
:10343000DA012D91FC013191CF012327FA0120837C
:10344000AD01A7CFC3010197809F7001819FF00C50
:10345000909FF00C112429813A812E0D3F1D2B875E
:103460003C87E00EF11E8D819E81E80EF91EA98534
:10347000BA85A801AB2B39F1EF81F8852B813C810E
:10348000E217F30701F570E060E0C6010E94B36C3B
:10349000C101B8010E94A26BAC016B857C85C6019D
:1034A0000E94996C0E0D1F1DF601E016F10609F43D
:1034B00074CFDF012D91CD01D7013D917D012327EF
:1034C0002083FC01F2CF6B857C85C6010E94996C3C
:1034D0000E0D1F1DF601E016F10609F45ECFDF01A7
:1034E0002D91CD01D7013D917D0123272083FC0142
:1034F000F2CF609E7001619EF00C709EF00C112462
:10350000ED81FE81EE0EFF1E29853A85A801232B51
:1035100089F08F819885AB81BC818A179B0751F414
:1035200070E060E0C6010E94B36CC101B8010E9466
:10353000A26BAC01B701C6010E94996C0A0D1B1D5C
:10354000A601C5018017910749F5D40112968D9106
:103550009C911397689EB001699E700D789E700DC6
:103560001124E981FA816E0F7F1FED91FC914D8549
:103570005E85C6011995D40112964D915C91649EA9
:10358000B001659E700D749E700D1124E981FA8161
:103590006E0F7F1FC5010E94996C15CFDA012D9126
:1035A000FC013191CF012327FA012083AD01CACF5D
:1035B0002F923F924F925F926F927F928F929F9243
:1035C000AF92BF92CF92DF92EF92FF920F931F9331
:1035D000CF93DF93CDB7DEB72E97CDBFDEBF1C01F3
:1035E0002B013A0129833A834801EB86FC862DB7EB
:1035F0003EB72D873E87DC0112962D913C91CB0181
:103600000197820F931FB9010E94A26B6B837C8389
:10361000C201B9010E94A26B8D839E83EDB7FEB7F4
:10362000E21BF30BEDBFFEBF8DB79EB701966C0199
:10363000ADB7BEB7A21BB30BADBFBEBFEDB7FEB7F4
:1036400031967F01A9010115110541F470E060E098
:10365000CF010E94B36C10E000E042C0B801CF017E
:103660000E94996CF8CFD1011296AD90BC9013973F
:10367000A09EB001A19E700DB09E700D1124F801A6
:103680003196EF83F8878091BD24813009F005C120
:1036900029813A81620F731FED91FC914B855C8506
:1036A000C6011995D10112964D915C910115110534
:1036B00009F07BC0ED81FE81EF2B09F04EC0B60111
:1036C000C3010E94996CD10112962D913C912E0D4F
:1036D0003F1DB301C70182179307A9F50F81188514
:1036E000EB81FC810E171F0709F0BDCF81149104F7
:1036F00041F0D10112964D915C91B701C4010E9435
:10370000996C81E090E0ED81FE81EF2B11F490E067
:1037100080E02D853E852DBF3EBF2E96CDBFDEBFFE
:10372000DF91CF911F910F91FF90EF90DF90CF909D
:10373000BF90AF909F908F907F906F905F904F90D1
:103740003F902F900895DB014D91FC015191CF01E5
:103750004527FB014083BD01BECF2B813C81213039
:10376000310509F068C0C201BA010E94A26BAC0128
:10377000B601C3010E94996CD10112966D917C91A2
:10378000C2010E94A26B8E0D9F1DB30197012817E5
:10379000390709F4A3CFDB014D91F90151919F0144
:1037A0004527FB014083BD01F2CF2D813E81232BB4
:1037B00009F441C08B819C81AF81B8858A179B0732
:1037C000D1F5049F9001059F300D149F300D1124F9
:1037D000C201BA010E94A26BAC01B601C301820F03
:1037E000931F0E94996CF10162817381015011094C
:1037F000069FF001079FF00D169FF00D11242981FF
:103800003A812E0F3F1FE60FF71F8F01060D171D80
:10381000C2010E94A26B820F931F8217930709F4C3
:103820005DCFD8014D91F90151919F014527F801D4
:1038300040838D01F2CF049FC001059F900D149F1E
:10384000900D1124B601860D971D0E94996CD1012F
:1038500012962D913C9101501109029FF001039F96
:10386000F00D129FF00D112489819A818E0F9F1FF8
:10387000E20FF31FBF01660D771D280F391F2817B0
:10388000390709F42BCFDB014D91FC015191CF0198
:103890004527FB014083BD01F2CF9301260F371F5F
:1038A00029873A878D819E81892BE1F1AB81BC818B
:1038B000EF81F885AE17BF07A9F5A50170E060E0BC
:1038C000C6010E94B36CC201B5010E94A26BAC019B
:1038D00069857A85C6010E94996CD101ED91FC91B0
:1038E0004B855C85B60189859A851995F101228100
:1038F0003381029FF001039FF00D129FF00D112400
:10390000BF01660D771D2E0D3F1DC7012817390712
:1039100079F4D10112964D915C91B601C7010E94D4
:10392000996CDCCE29813A81620F731FA501D2CF39
:10393000DB014D91FC015191CF014527FB014083F3
:10394000BD01E4CF8F929F92AF92BF92EF92FF9210
:103950000F931F93CF93DF9300D00F92CDB7DEB7B5
:1039600078018090432090904420A0904520B09012
:10397000462089829A82AB82BC8289019A01AB017E
:10398000BC01CE01019687DC2496CDBFDEBFDF915E
:10399000CF911F910F91FF90EF90BF90AF909F90AC
:1039A0008F9008958F929F92AF92BF92EF92FF9265
:1039B0000F931F93CF93DF9300D00F92CDB7DEB755
:1039C00078018090472090904820A0904920B090A6
:1039D0004A2089829A82AB82BC8289019A01AB011A
:1039E000BC01CE010196E4DD2496CDBFDEBFDF91A0
:1039F000CF911F910F91FF90EF90BF90AF909F904C
:103A00008F9008958F929F92AF92BF92EF92FF9204
:103A10000F931F93CF93DF9300D00F92CDB7DEB7F4
:103A2000780180904B2090904C20A0904D20B09039
:103A30004E2089829A82AB82BC8289019A01AB01B5
:103A4000BC01CE01019627DC2496CDBFDEBFDF91FD
:103A5000CF911F910F91FF90EF90BF90AF909F90EB
:103A60008F9008958F929F92AF92BF92EF92FF92A4
:103A70000F931F93CF93DF9300D00F92CDB7DEB794
:103A8000780180904F2090905020A0905120B090CD
:103A9000522089829A82AB82BC8289019A01AB0151
:103AA000BC01CE01019684DD2496CDBFDEBFDF913F
:103AB000CF911F910F91FF90EF90BF90AF909F908B
:103AC0008F9008958F929F92AF92BF92EF92FF9244
:103AD0000F931F93CF93DF9300D00F92CDB7DEB734
:103AE00078018090532090905420A0905520B09061
:103AF000562089829A82AB82BC8289019A01AB01ED
:103B0000BC01CE010196C7DB2496CDBFDEBFDF919D
:103B1000CF911F910F91FF90EF90BF90AF909F902A
:103B20008F9008958F929F92AF92BF92EF92FF92E3
:103B30000F931F93CF93DF9300D00F92CDB7DEB7D3
:103B400078018090572090905820A0905920B090F4
:103B50005A2089829A82AB82BC8289019A01AB0188
:103B6000BC01CE01019624DD2496CDBFDEBFDF91DE
:103B7000CF911F910F91FF90EF90BF90AF909F90CA
:103B80008F900895CF93DF93EB012097D9F0AB018D
:103B9000495F5F4F403422E05207D8F423E0569546
:103BA00047952A95E1F7BC0185EF94E20E94996C54
:103BB000C13482E0D80710F0C0E4D2E0C093F3240F
:103BC000D093F4248091F3249091F424DF91CF9149
:103BD000089548E450E0E7CF089580E00C943E312A
:103BE00008956F927F928F929F92AF92BF92CF92E1
:103BF000DF92EF92FF920F931F93CF93DF93CDB796
:103C0000DEB7A097CDBFDEBF7C01CB01009709F4E2
:103C10007DC0D7012C91243C09F078C04B01B2E063
:103C20008B1A91085401EFE0AE22BB24A114B10419
:103C300009F07EC020E1EBE5F0E2DE015196019053
:103C40000D922A95E1F76701F2E0CF0ED11C370102
:103C5000660E771E0BED14E29E012F5E3F4FA6010C
:103C6000B301C4010E949813A401B301C6010E94CC
:103C7000A26CD70111966C9180910620681739F1DA
:103C80008091842510D68E3011F520E130E0AE0110
:103C90004F5F5F4FF7016181809184251FD7F60147
:103CA000AE014D5F5F4F22E1E20EF11C9191DA010E
:103CB0008D91AD019F01215031099827D9019C9325
:103CC000EE15FF0599F782E1A82EB12C1EC0F70171
:103CD00083889488C588D68863E170E0C7010E9414
:103CE0000615D70153968C91539788120EC054969F
:103CF0008C915497981209C055968C915597C8127B
:103D000004C056968C91D816F1F2C501A096CDBF8D
:103D1000DEBFDF91CF911F910F91FF90EF90DF9069
:103D2000CF90BF90AF909F908F907F906F900895AD
:103D30005B01EBCF0F931F93CF93DF93EC01CB018C
:103D4000009709F44CC028812F3A19F02BE02093FA
:103D50000520BC01CE0145DF8C01AC01BE0183EE24
:103D60000E94F34780910520843109F451C0C0F4CA
:103D70008E3009F443C058F48C30B1F18D30C9F164
:103D80008B3039F181EC888381E090E026C080316E
:103D9000D1F18231B9F7B801CE010E944C461DC065
:103DA0008731D9F148F48531C1F1863159F7B8012D
:103DB000CE010E94334111C08831A1F1893111F740
:103DC000B80161507109CE0101960E94943090E0D3
:103DD00004C0B801CE010E94394510923D25DF9103
:103DE000CF911F910F910895B801CE010E947145A6
:103DF000F4CFB801CE010E949145EFCFB801CE01BA
:103E00000E94882AEACFB801CE010E949B45E5CFE7
:103E1000B801CE010E943947E0CFB801CE010E941F
:103E20004541DBCFCE010E947A30D7CFCF92DF92CF
:103E3000EF92FF920F931F93CF93DF93EC019B01BF
:103E4000295F3F4FB90143E0769567954A95E1F7C1
:103E500028303105E0F44091F3245091F424495F77
:103E60005F4F33E0569547953A95E1F765EF74E279
:103E70000E94996C8091F3249091F424DF91CF916A
:103E80001F910F91FF90EF90DF90CF900895888160
:103E90008093042020313105A0F199819F3A89F562
:103EA000803911F081113CC08B01015011096E0164
:103EB0008FEFC81AD80AA801B601CE010E94A26CE1
:103EC000B801CE0137DF8C01892BA1F08881FE017A
:103ED000E00FF11F8083780181E0E81AF108A70163
:103EE000B601CE010E94A26CCE0DDF1D81E9888350
:103EF0000F5F1F4FC80123E0880F991F2A95E1F734
:103F0000BDCF2832310550F0803911F0811108C041
:103F10009A81911103C09B81992329F0882329F06C
:103F2000CE0108DFE8CF81110DC0CE010E94D5334C
:103F3000009741F09827892798278883998380E103
:103F400090E09CCF8C81082F10E099819883882382
:103F500041F0A801BE016B5F7F4FCE0101960E9428
:103F6000A26CB8016F5F7F4FCE01E4DE8C01892B1C
:103F700009F4C0CF80910420882309F4BBCF888145
:103F8000FE01E00FF11F8083780181E0E81AF1085B
:103F9000BE016F5F7F4FA701A4CF8F929F92AF9218
:103FA000BF92CF92DF92EF92FF920F931F93CF9326
:103FB000DF930F920F92CDB7DEB78C017B014B01DF
:103FC00027E0820E911CA8E4CA2ED12C80E488162A
:103FD00082E0980630F46401B3E0D694C794BA95B1
:103FE000E1F78091F3249091F424009761F08E150D
:103FF0009F0549F4A60165EF74E2C8010E948C6C2C
:10400000892B09F444C0B701C801BCDD8093F324B7
:104010009093F42498E0C916D10408F494C0F801F0
:104020008181803911F0811193C0F80182818F3A2A
:1040300009F08EC0838181118BC08481811188C079
:10404000A580B12CC6010897A816B90629F00197DA
:10405000A816B90609F07CC08091052094EF980F4E
:10406000933050F0982F9D7F903131F0843121F0C2
:104070008851823008F06CC021E0A601B80180911F
:10408000C0240E944E4B892B91F4F12CE12CC701E6
:104090000F900F90DF91CF911F910F91FF90EF90B4
:1040A000DF90CF90BF90AF909F908F900895F801D0
:1040B0009080828180838581E82EF12C882341F0D5
:1040C000A701B8016A5F7F4FC80101960E94A26CE8
:1040D000B7016F5F7F4FC8012DDE0097B1F2F80185
:1040E00040819082F9E0CF1AD108AC14BD0469F484
:1040F0009C012F5F3F4F800F911F51E9FC015083BE
:10410000F801E20FF31F4083C901AC014F5F5F4F1D
:10411000B8018091C0240E94FE4BBC01F3E0660F01
:10412000771FFA95E1F7C8010F900F90DF91CF91BB
:104130001F910F91FF90EF90DF90CF90BF90AF90C5
:104140009F908F901FCDF3E0CF16D10408F499C152
:10415000F80122812F3A09F03FC08091052094EFA9
:10416000980F933048F0982F9D7F903129F084313B
:1041700019F08851823080F5F8018081918189831E
:104180009A8321E0A601B8018091C0240E944E4B81
:104190007C01892B09F47BCFF2E0EF1AF10868016A
:1041A00022E0C20ED11CA701B601C8010E94A26C78
:1041B000B701C801BFDD7C01009729F0AC01B8014F
:1041C000C6010E94A26C89819A81F8018083918343
:1041D000A7014E5F5F4F9CCFF6E0CF16D10408F4E5
:1041E00050C1F8019081903911F09111B3C1F801DB
:1041F00081818F3A09F058C0211156C08381811105
:1042000053C08481A601485051098417150609F04E
:104210004BC08091052034EF380F333048F0382FF1
:104220003D7F303129F0843119F088518230E0F53A
:1042300021E0A601B8018091C0240E944E4B892B39
:1042400009F423CFF801818180838481E82EF12C49
:10425000882341F0A701B8016B5F7F4FC801019629
:104260000E94A26CB7016F5F7F4FC80163DD7C01C4
:10427000892B09F40ACFF8018081EE0DFF1D8083A0
:104280006701F1E0CF1AD108B8016F5F7F4FA60137
:10429000C8010E94A26CF801EC0DFD1D81E980832C
:1042A000A7014D5F5F4F34CF88E0C816D10408F4F2
:1042B000E8C0903911F0911152C1211150C1F8019B
:1042C000838181114CC18481960128503109821764
:1042D000130609F044C190930420A40173E056959D
:1042E00047957A95E1F720E0B8018091C0240E94BB
:1042F0004E4BBC01E3E0660F771FEA95E1F7C8017A
:1043000095DD07968830910508F4BFCEAC0163E0D7
:10431000569547956A95E1F7FBCE80E9C0C083309A
:10432000F1F480910420F80180838FEA8183F4E026
:10433000EF16F10450F0A70143505109B8016D5F29
:104340007F4FC80105960E94A26CF8011282138269
:104350008BEF8E0D8483F2E0EF0EF11CC1C0823032
:1043600009F0BEC080910420F8018083828181839E
:10437000A70143505109B8016D5F7F4FC8010596F1
:104380000E94A26CF801128213828BEF8E0D84833F
:10439000A7C0409708F4CFC022E0E21AF108CBC0D2
:1043A000F5E0CF16D104B8F180910820833011F0E8
:1043B000883089F5F8018081803E69F1863259F1B3
:1043C000823549F1843539F1B701C8010E944F3275
:1043D000811121C021E0A601B8018091C0240E9472
:1043E0004E4B8330910558F0BC0162507109C801F1
:1043F00002960E943945AC01892B09F0EACEB7013B
:10440000C8010E946132BC01089708F48CCE695F34
:104410007F4F687F88CEF8E0EF16F10480F380913B
:104420000820833011F0883051F7F8018081803EF8
:1044300031F3863221F3823511F3843501F3B7016C
:10444000C8010E944F328111DACFB601C8010E9423
:104450003945AC01892B99F25BCEF9E0CF16D10436
:1044600080F081110EC0F801838181110AC084811E
:10447000811107C02581C60109972817190609F47B
:104480007FC0B601C8010E94BA338093BF2488233D
:1044900009F486CF813009F040CFF8018281809302
:1044A0000420F8018081918189839A8320E0A6010C
:1044B000B8018091C0240E944E4B7C01892B09F4E5
:1044C000E6CD8091BF24813009F029CFF2E0EF1AC8
:1044D000F108A701B8016E5F7F4FC8010E94A26C6E
:1044E000B70183E0660F771F8A95E1F7C8019EDC6C
:1044F00007967C0123E0F694E7942A95E1F7209152
:10450000BF242130C1F088309105A8F06801CE0C9D
:10451000DF1CF6012081222309F43BCFA701B8015B
:10452000C80101960E94A26CF6018081F801808387
:10453000F1E0EF1AF108E114F10409F444CEA70107
:10454000B801C80102963DCE29E0C216D10408F098
:104550008ACF97CF88E0C816D10408F492CFF8012B
:104560008181803909F079CF83818111EDCF8481F8
:104570008111EACF2581C60108972817190621F76E
:1045800021E0A601B8018091C0240E944E4B7C011D
:10459000892B09F47ACDF801B080818180930420C1
:1045A000F1E0EF1AF10868012FEFC21AD20AA70151
:1045B000B601C8010E94A26CB70143E0660F771FE5
:1045C0004A95E1F7C80132DC07968830910508F476
:1045D0005CCD33E0969587953A95E1F77C01EFEF56
:1045E000EE1AFE0AA701B801C6010E94A26CF801EA
:1045F000B082A7018DCD80E00E94D72C8BE0809304
:10460000052008950E944C310C945A31EEEAF5E2EF
:1046100084E3DF011D928A95E9F7E9E9F5E285E196
:10462000DF011D928A95E9F7E5E8F5E284E1DF0113
:104630001D928A95E9F7E9E6F5E28BE1DF011D922B
:104640008A95E9F7E8E5F5E280E1DF011D928A95B8
:10465000E9F7109284258FEF80936825CCDFD2CFC5
:104660001F93CF93DF93182FD62FC42FCFDF8AE06D
:10467000809305201092BE24D1506C2F812FD23010
:1046800058F40E94884AC1110E9451481092C924CE
:10469000DF91CF911F9108950E94374AF4CF40E0F7
:1046A00060E088E1DDCF41E060E088E1D9CF40E023
:1046B00061E086E1D5CF41E061E086E1D1CF40E025
:1046C00061E088E1CDCF41E061E088E1C9CF40E021
:1046D00062E088E1C5CF41E062E088E1C1CF0C949F
:1046E000BF4A0C94C84A6091E9257091EA2545E1DA
:1046F00050E089E995E20C94FC471F93CF93DF9338
:10470000CDB7DEB76597CDBFDEBF182F8091992555
:10471000681700F56430F0F4E62FF0E0EE0FFF1FAD
:10472000E756FA4D6585768545E150E0CE01019664
:104730000E94F5478A859B85163019F1A8F413303D
:1047400099F158F4113069F18C81123059F18A8154
:10475000112341F190E080E014C0888599851430E0
:1047600081F48E819F810DC08A899B89193049F01F
:1047700078F48C859D85173021F0888999891830C7
:1047800049F76596CDBFDEBFDF91CF911F910895A8
:104790008E859F851A30A9F38C899D891B3089F3FA
:1047A000D9CF8B8190E0EDCF8D81FCCFCF92DF927E
:1047B000EF92FF921F93CF93DF93CDB7DEB765974C
:1047C000CDBFDEBF182F7A01809199256817D8F4E4
:1047D0006430C8F4C62ED12CCC0CDD1CF601E75693
:1047E000FA4D6585768545E150E0CE0101960E943F
:1047F000F5471630E9F1B8F41330A9F178F4112334
:1048000019F1123071F16596CDBFDEBFDF91CF9106
:104810001F91FF90EF90DF90CF900895143029F50D
:10482000EE82FF8212C0193049F138F4173019F1C5
:10483000183049F7E88AF98A08C01A3011F11B309C
:1048400011F7EC8AFD8A01C0EA82F601E756FA4DBB
:104850006585768545E150E0CE0101960E94FC47D2
:10486000D2CFEC82F2CFED82F0CFE886F986EDCFA1
:10487000EA86FB86EACFEC86FD86E7CFEA8AFB8AEA
:10488000E4CFEE86FF86E1CF682F81E036CFCF936D
:10489000C62F633028F4F8DF982F81E0C91708F09D
:1048A00080E0CF9108951F93CF93DF9300D0CDB7D1
:1048B000DEB7162F8430D0F46330C0F4682F84E064
:1048C0001CDFBC0143E050E0CE0101960E94F54799
:1048D000E1E0F0E0EC0FFD1FE10FF11D8081239678
:1048E000CDBFDEBFDF91CF911F91089580E0F7CF5C
:1048F00060E080E0D8DF8470089560E080918425D6
:10490000D2DF82700895EF92FF920F931F93CF939F
:10491000DF9300D0CDB7DEB7162F042F8430D8F444
:104920006330C8F4682F84E0E8DE7C0143E050E0A7
:10493000BC01CE0101960E94F547E1E0F0E0EC0FEA
:10494000FD1FE10FF11D008343E050E0B701CE01F0
:1049500001960E94FC472396CDBFDEBFDF91CF9129
:104960001F910F91FF90EF9008951F93CF93DF93C6
:1049700000D0CDB7DEB7162F8430D0F46330C0F44A
:10498000682F88E0BADEBC0143E050E0CE0101961A
:104990000E94F547E1E0F0E0EC0FFD1FE10FF11D93
:1049A00080812396CDBFDEBFDF91CF911F91089507
:1049B00080E0F7CFEF92FF920F931F93CF93DF9397
:1049C00000D0CDB7DEB7162F042F8430D8F4633073
:1049D000C8F4682F88E091DE7C0143E050E0BC0120
:1049E000CE0101960E94F547E1E0F0E0EC0FFD1FDB
:1049F000E10FF11D008343E050E0B701CE010196C5
:104A00000E94FC472396CDBFDEBFDF91CF911F915F
:104A10000F91FF90EF9008950F931F93CF93DF9323
:104A200000D0CDB7DEB7082F162F843048F080E0D5
:104A30002396CDBFDEBFDF91CF911F910F910895D7
:104A400026DF8823A1F3602F89E057DEBC0143E015
:104A500050E0CE0101960E94F547E1E0F0E0EC0F56
:104A6000FD1FE10FF11D8081E3CFDF92EF92FF92F6
:104A70000F931F93CF93DF9300D0CDB7DEB7082FEE
:104A8000162FD42E8430E0F402DF8823C9F0602F83
:104A900089E033DE7C0143E050E0BC01CE010196A9
:104AA0000E94F547E1E0F0E0EC0FFD1FE10FF11D82
:104AB000D08243E050E0B701CE0101960E94FC474E
:104AC0002396CDBFDEBFDF91CF911F910F91FF9055
:104AD000EF90DF900895682F8BE00FCECF92DF929A
:104AE000EF92FF920F931F93CF93DF930F920F924A
:104AF000CDB7DEB7082F162F6A0179018430D8F4BC
:104B0000C6DE8823C1F089E1E816F104A0F4802F05
:104B1000E2DF612F70E0660F771F680F791F42E0B8
:104B200050E0CE0101960E94F54769817A81A70184
:104B3000C6010E94F5470F900F90DF91CF911F9112
:104B40000F91FF90EF90DF90CF900895CF92DF927A
:104B5000EF92FF921F93CF93DF930F920F92CDB7F7
:104B6000DEB7162F6A0179018430C0F46330B0F4E7
:104B70002931310598F4AFDF612F70E0660F771FA0
:104B8000680F791F42E050E0CE0101960E94F54780
:104B900069817A81A701C6010E94FC470F900F909E
:104BA000DF91CF911F91FF90EF90DF90CF9008950C
:104BB000462F50E0682F82E0F9CD1F93CF93DF930B
:104BC00000D00F92CDB7DEB7162F843098F4682F3F
:104BD00085E093DDBC0144E050E0CE0101960E94E7
:104BE000F547FE01319680E09191911721F08F5F9A
:104BF0008430D1F784E02496CDBFDEBFDF91CF9122
:104C00001F910895CF93DF9300D00F92CDB7DEB7F9
:104C1000682F843030F02496CDBFDEBFDF91CF9176
:104C2000089585E06ADDBC0144E050E0CE010196C4
:104C30000E94F547FE01319680E091919F3F59F324
:104C40008F5F8430D1F7E7CFEF92FF920F931F93DE
:104C5000CF93DF9300D00F92CDB7DEB7162F042F7E
:104C60008430D8F46430C8F4682F85E046DD7C01D8
:104C700044E050E0BC01CE0101960E94F547E1E01E
:104C8000F0E0EC0FFD1FE10FF11D008344E050E068
:104C9000B701CE0101960E94FC472496CDBFDEBF2E
:104CA000DF91CF911F910F91FF90EF9008951F9387
:104CB000CF93DF93CDB7DEB72897CDBFDEBF162FDA
:104CC000843008F56430F8F4609184258AE015DDBD
:104CD000BC0148E050E0CE0101960E94F547612FEB
:104CE00070E0660F771F81E090E08C0F9D1F680FCA
:104CF000791FFB01808191812896CDBFDEBFDF91B6
:104D0000CF911F91089590E080E0F6CFCF93DF938D
:104D1000CDB7DEB76B97CDBFDEBFC9DFBC018FEF6C
:104D20006115710539F04BE150E0CE0101960E940A
:104D3000F54789816B96CDBFDEBFDF91CF91089596
:104D4000CF93DF93CDB7DEB76B97CDBFDEBFAFDFBD
:104D5000BC018FEF9FEF6115710541F04BE150E011
:104D6000CE0101960E94F5478B819C816B96CDBF49
:104D7000DEBFDF91CF9108951F93CF93DF9300D0D3
:104D80000F92CDB7DEB7162F8430D0F46430C0F464
:104D9000682F86E0B2DCBC0144E050E0CE01019611
:104DA0000E94F547E1E0F0E0EC0FFD1FE10FF11D7F
:104DB00080812496CDBFDEBFDF91CF911F910895F2
:104DC00080E0F7CFEF92FF920F931F93CF93DF9383
:104DD00000D00F92CDB7DEB7162F042F8430D8F451
:104DE0006430C8F4682F86E088DC7C0144E050E041
:104DF000BC01CE0101960E94F547E1E0F0E0EC0F26
:104E0000FD1FE10FF11D008344E050E0B701CE012A
:104E100001960E94FC472496CDBFDEBFDF91CF9163
:104E20001F910F91FF90EF9008951F93CF93DF9301
:104E3000CDB7DEB72897CDBFDEBF162F843000F583
:104E40006430F0F4682F87E058DCBC0148E050E0A3
:104E5000CE0101960E94F547612F70E0660F771F23
:104E600081E090E08C0F9D1F680F791FFB0180810E
:104E700091812896CDBFDEBFDF91CF911F9108951C
:104E800090E080E0F6CFCF92DF92EF92FF921F93F7
:104E9000CF93DF93CDB7DEB72897CDBFDEBF162FF8
:104EA0007A018430F0F46430E0F4682F87E025DC88
:104EB0006C0148E050E0BC01CE0101960E94F5472C
:104EC000E12FF0E0EE0FFF1F81E090E08C0F9D1FBF
:104ED000E80FF91FE082F18248E050E0B6010E943D
:104EE000FC472896CDBFDEBFDF91CF911F91FF9089
:104EF000EF90DF90CF900895CF92DF92EF92FF92E4
:104F00001F93CF93DF93CDB7DEB7A397CDBFDEBF9F
:104F10006C01142FCE0101967C018BE1F7011192F7
:104F20008A95E9F7643010F4443088F08BE1F6019B
:104F300011928A95E9F7C601A396CDBFDEBFDF9136
:104F4000CF911F91FF90EF90DF90CF9008958AE06E
:104F5000D4DBBC0148E050E0CE014C960E94F547FE
:104F6000E12FF0E0EE0FFF1FEE0DFF1D638D748D3E
:104F70004BE150E0C7010E94F5478BE1F701D601F4
:104F800001900D928A95E1F7D6CFEF92FF921F9391
:104F9000CF93DF93CDB7DEB72897CDBFDEBF162FF7
:104FA0007A01843040F5643030F5452B21F1682FCB
:104FB0008AE0A3DBBC0148E050E0CE0101960E94EC
:104FC000F547612F70E0660F771F81E090E08C0F4E
:104FD0009D1F680F791FFB01608171814BE150E0DB
:104FE000C7010E94FC478BE1F701A9E6B5E20190F9
:104FF0000D928A95E1F72896CDBFDEBFDF91CF9164
:105000001F91FF90EF900895EF92FF920F931F93DF
:10501000CF937C010AE915E2C0E043E050E0B7011C
:10502000C8010E948C6C892B29F0CF5F0D5F1F4F48
:10503000C43099F78C2FCF911F910F91FF90EF9073
:1050400008950F931F93CF93C82FE0918425E817FD
:1050500041F1A82FB0E0AA0FBB1FA756BA4D1D966D
:105060000D911C9101151105E1F0EF3F69F0F0E0A1
:10507000EE0FFF1FE756FA4D6585768545E150E056
:1050800084E895E20E94FC4745E150E0B80184E8DD
:1050900095E20E94F547C0938425CF911F910F910F
:1050A00022CBCF911F910F910895AEDF843020F471
:1050B000C8DF90E080E0089580EA90E0089580E005
:1050C000C0CF81E090918425911180E008952F92C6
:1050D0003F924F925F926F927F928F929F92AF9288
:1050E000BF92CF92DF92EF92FF920F931F93CF93D5
:1050F000DF93CDB7DEB7E897CDBFDEBF7C01262EAC
:10510000042F2DB73EB72FAB38AFDC018C91811146
:105110000FC011968C91119781110AC012968C9133
:1051200010919925182B09F452C0882309F487C1DE
:10513000C7016ADF843009F082C1109199258EEC95
:1051400090E0143050F51CAAE3E080E490E0E21512
:1051500020F1E9E9F5E233243394131531F0848129
:105160009581892B9681892B29F03394339624E0FD
:105170003212F3CF412E512C8091142090E00E94E6
:1051800027483201660C771CF301E756FA4D8587F4
:105190009687892BF9F48EE090E0EFA9F8ADEDBF8A
:1051A000FEBFE896CDBFDEBFDF91CF911F910F917B
:1051B000FF90EF90DF90CF90BF90AF909F908F9037
:1051C0007F906F905F904F903F902F900895B1E047
:1051D000BCABBACFFE017E9680E1DF011D928A95BD
:1051E000E9F7198F81E08A8F2B8E1C8E8091C9245C
:1051F0008D8F8091132090E00E942748BC018E8FF4
:105200009F8F892B41F221E031E0029FC001039F73
:10521000900D11248A839B83098343E050E08E0123
:105220000F5F1F4FC8010E94FC478091122090E041
:105230000E9427486C0188A399A3892B09F4ABCF5E
:1052400044E050E06FEF70E0C8010E94B36C44E0AE
:1052500050E0B601C8010E94FC478091112090E007
:105260000E942748BC018AA39BA3892B09F493CFF2
:1052700084E0F80111928A95E9F744E050E0C80112
:105280000E94FC478091102090E00E942748BC01BA
:105290008CA39DA3892B09F47ECF8FE090E08983B6
:1052A0009A838B839C838D839E838F83988748E02A
:1052B00050E0C8010E94FC4780910F2090E00E94BE
:1052C0002748BC0188A799A7892B09F464CF83E0FC
:1052D000D8011D928A95E9F743E050E0C8010E9489
:1052E000FC4780910E2090E00E9427486C018AA71D
:1052F0009BA7892B09F44FCFEDB7FEB7EDABFEAB03
:10530000A0900E20B12C2DB73EB72A193B092DBF16
:105310003EBF8DB79EB701964C01A50170E060E0DD
:105320000E94B36CA501B601C4010E94FC47ADA95F
:10533000BEA9ADBFBEBF80910C2090E00E9427485F
:10534000BC018EA39FA3892B09F425CF88E0F80127
:1053500011928A95E9F748E050E0C8010E94FC47A5
:1053600080910D2090E00E9427488CA79DA7892B53
:1053700009F411CF6E01FEE2CF0ED11C86E0D601FA
:105380001D928A95E9F75601912C92104AC088E146
:10539000D8011D928A95E9F76EA57FA548E150E0F6
:1053A000C8010E94FC476CA57DA546E050E0C601FF
:1053B0000E94FC47F301E756FA4D6585768545E185
:1053C00050E0CE0149960E94FC47BCA9BB2349F09E
:1053D00085E1FE017996A4E8B5E201900D928A95E7
:1053E000E1F7F7018081F301E40DF51DE756FA4D71
:1053F0008183D70111968C911197828312968C919B
:10540000BFEF4B1A5B0AF201EE0FFF1FE40DF51D13
:10541000E756FA4D80833092992565D990E080E077
:10542000BCCE80910B2090E00E942748F50181932B
:1054300091935F01892B09F4AECE9394A6CF8EEDA4
:1054400090E0ABCEE1DD843041F1282F30E0F9016E
:10545000EE0FFF1FE20FF31FE756FA4D1182128283
:105460002F5F3F4FF901EE0FFF1FE20FF31FE756CB
:10547000FA4D108290919925891708F4982F9093EE
:10548000992531D980918425882311F080E08FD22D
:1054900080E0D7DD90E080E0089580EA90E0089514
:1054A000109258250895AC019091582583E0989F5B
:1054B000F0011124E756FA4D20E0943018F0822FC5
:1054C00091E00CC031818281832B6381862BE9F0CE
:1054D0002C3E40F090935825822F90E0A0E0BC0134
:1054E0008A2F0895DA01A20FB11D3C938281A1E0B9
:1054F000A20FA40FB52FB11D8C938381A2E0A20F40
:10550000A40FB52FB11D2D5F8C939F5F3396D5CF20
:10551000CF93DF93EC010196C6DF9B01482F832FC9
:10552000942F892B51F018828BE080930520822FD5
:1055300090E00196DF91CF9108958FEA88838EE005
:10554000F4CFE091492DF0914A2D9581915081E061
:10555000943008F080E00895CF92DF92EF92FF92AE
:105560000F931F93CF93DF93CDB7DEB7C057D10909
:10557000CDBFDEBF7B01E5DF81110EC089ECC059D4
:10558000DF4FCDBFDEBFDF91CF911F910F91FF9015
:10559000EF90DF90CF9008956E012DE2C20ED11CE6
:1055A000DF92CF928E01075A1F4F1F930F938BEB01
:1055B00092E09F938F93FF92EF920E94FB6CCDBF7E
:1055C000DEBF892B09F4FEC069961FAE6997F8010A
:1055D000178AA6016CE270E0CE0101960E941E5669
:1055E0007C0167EB72E0C8010E94496C892BD9F4F9
:1055F0001981412F50E04E155F0509F0BFCFCA0158
:105600000397429708F0BACFBE016F5F7F4F8AECD5
:1056100095E20E94996C1093DE250E94B8480E9482
:10562000514884E6ACCF62EB72E0C8010E94496C3D
:10563000892B79F4F2E0EF16F10409F09FCF89810C
:105640008093C8258A818093C92581E08093E225D3
:10565000E4CF6BEA72E0C8010E94496C892B41F4E7
:10566000EA94EF2809F08ACF89818093B625D5CFB7
:1056700064EA72E0C8010E94496C892B41F4EA9403
:10568000EF2809F07BCF89818093B725C6CF6AE9DF
:1056900072E0C8010E94496C892B41F4EA94EF281A
:1056A00009F06CCF89818093B825B7CF6EE872E09E
:1056B000C8010E94496C892B41F4EA94EF2809F053
:1056C0005DCF89818093BB25A8CF67E872E0C801D0
:1056D0000E94496C892B61F4F2E0EF16F10409F0A5
:1056E0004DCF89818093B9258A818093BA2595CF42
:1056F00060E872E0C8010E94496C892B41F4EA9489
:10570000EF2809F03BCF89818093BC2586CF66E7DF
:1057100072E0C8010E94496C892B41F4EA94EF2899
:1057200009F02CCF89818093BD2577CF6AE672E09E
:10573000C8010E94496C892B41F4EA94EF2809F0D2
:105740001DCF89818093C02568CF63E672E0C801D0
:105750000E94496C892B61F4E2E0EE16F10409F035
:105760000DCF89818093BE258A818093BF2555CF37
:105770006BE572E0C8010E94496C892B79F4F5E071
:10578000EF16F10409F0FACE85E0FE013196A1ECA6
:10579000B5E201900D928A95E1F73FCF62E572E0A4
:1057A000C8010E94496C892B09F0E8CE22E0E2167C
:1057B000F10409F0E3CE89818093C6258A81809324
:1057C000C7252BCF8AECDBCEEF92FF920F931F936E
:1057D000CF93DF93CDB7DEB76097CDBFDEBF7B0140
:1057E000B0DE81110BC089EC6096CDBFDEBFDF91CA
:1057F000CF911F910F91FF90EF9008958E010F5F51
:105800001F4F1F930F938DE492E09F938F93FF920E
:10581000EF920E94FB6C0F900F900F900F900F90E3
:105820000F90892B79F1188A63E472E0C8010E9415
:10583000496C892B39F41092C9241092462588E7C7
:1058400090E2D2CF65E372E0C8010E94496C892BD7
:1058500031F481E08093C92480934625F0CF63E240
:1058600072E0C8010E94496C892B11F483E0F2CFE9
:1058700061E172E0C8010E94496C892B09F0B3CF45
:1058800084E0E8CF8AECB0CFAF92BF92CF92DF92A4
:10589000EF92FF921F93CF93DF93CDB7DEB7609760
:1058A000CDBFDEBF7B014DDE182F81110EC089EC0C
:1058B0006096CDBFDEBFDF91CF911F91FF90EF903B
:1058C000DF90CF90BF90AF900895CE0101966C010C
:1058D0009F938F938CE092E09F938F93FF92EF9230
:1058E0000E94FB6C0F900F900F900F900F900F90F5
:1058F000892B09F448C0188A6AE370E0C6010E9447
:10590000BA6C7C010097C1F15C01AC18BD088C1524
:1059100071F2BB24A50168E072E0C6010E94656CCB
:10592000892B71F1A50164E072E0C6010E94656CEB
:10593000B12EA12C892B09F0BACF60E072E0C7012B
:105940000E94496C892B49F06CEF71E0C7010E94FD
:10595000496C892B09F0ABCF10E0AA2021F081E03F
:1059600081278093BD24BB2021F081E0182710936C
:10597000422488E790E29CCFA12EB12E7601DDCFA4
:10598000A12EB12CDACF8AEC93CF68E18BED94E2B3
:105990000E94086260E18BEC94E20E94086210921F
:1059A000C3248FEF8093062088E790E20895811149
:1059B00009C01092C224EBEDF4E280E1DF011D92F8
:1059C0008A95E9F7EBECF4E280E1DF011D928A951C
:1059D000E9F71092CA241092C3248FEF8093062017
:1059E000109241251092C12408958091C3240895F6
:1059F0008A3159F030F4882341F08A3021F480E173
:105A000008958A34E1F388E0089588E108952A3101
:105A1000310509F45DC040F42130310551F12A30DF
:105A20003105C1F180E008952A343105D9F724E029
:105A3000FB01DC0101900D922A95E1F7DC0114963F
:105A400024E0FA0101900D922A95E1F7DC01189605
:105A5000FB013C9624E001900D922A95E1F7DC01D0
:105A60001C96FA013C9684E001900D928A95E1F72C
:105A70000FC024E0FB01DC0101900D922A95E1F7B3
:105A8000DC01149694E0FA0101900D929A95E1F7E9
:105A900081E0089524E0FB01DC0101900D922A953C
:105AA000E1F7DC01149624E0FA0101900D922A95A9
:105AB000E1F7DC011896FB01349624E001900D9289
:105AC0002A95E1F7DC011C96FA01349694E0DCCFCC
:105AD00024E0FB01DC0101900D922A95E1F7DC0145
